{
  "_format": "hh-sol-artifact-1",
  "contractName": "TestMarket",
  "sourceName": "contracts/markets/TestMarket.sol",
  "abi": [
    {
      "inputs": [
        {
          "internalType": "string",
          "name": "_question",
          "type": "string"
        },
        {
          "internalType": "uint256",
          "name": "_numberOfOutcomes",
          "type": "uint256"
        },
        {
          "internalType": "uint256",
          "name": "_wageDeadline",
          "type": "uint256"
        },
        {
          "internalType": "uint256",
          "name": "_resolutionDate",
          "type": "uint256"
        }
      ],
      "stateMutability": "nonpayable",
      "type": "constructor"
    },
    {
      "inputs": [],
      "name": "_getMarketOutcome",
      "outputs": [
        {
          "internalType": "uint256",
          "name": "",
          "type": "uint256"
        }
      ],
      "stateMutability": "view",
      "type": "function"
    },
    {
      "inputs": [],
      "name": "answer",
      "outputs": [
        {
          "internalType": "uint256",
          "name": "",
          "type": "uint256"
        }
      ],
      "stateMutability": "view",
      "type": "function"
    },
    {
      "inputs": [],
      "name": "calculateReputation",
      "outputs": [
        {
          "internalType": "uint256",
          "name": "",
          "type": "uint256"
        }
      ],
      "stateMutability": "nonpayable",
      "type": "function"
    },
    {
      "inputs": [],
      "name": "creationDate",
      "outputs": [
        {
          "internalType": "uint256",
          "name": "",
          "type": "uint256"
        }
      ],
      "stateMutability": "view",
      "type": "function"
    },
    {
      "inputs": [
        {
          "internalType": "address",
          "name": "_user",
          "type": "address"
        }
      ],
      "name": "hasPredicted",
      "outputs": [
        {
          "internalType": "bool",
          "name": "",
          "type": "bool"
        }
      ],
      "stateMutability": "view",
      "type": "function"
    },
    {
      "inputs": [],
      "name": "numberOfOutcomes",
      "outputs": [
        {
          "internalType": "uint256",
          "name": "",
          "type": "uint256"
        }
      ],
      "stateMutability": "view",
      "type": "function"
    },
    {
      "inputs": [
        {
          "internalType": "bytes32",
          "name": "_encodedPrediction",
          "type": "bytes32"
        }
      ],
      "name": "predict",
      "outputs": [],
      "stateMutability": "nonpayable",
      "type": "function"
    },
    {
      "inputs": [
        {
          "internalType": "address",
          "name": "",
          "type": "address"
        }
      ],
      "name": "predictions",
      "outputs": [
        {
          "internalType": "uint256",
          "name": "predictionTimestamp",
          "type": "uint256"
        },
        {
          "internalType": "bytes32",
          "name": "encodedPrediction",
          "type": "bytes32"
        },
        {
          "internalType": "uint256",
          "name": "decodedPrediction",
          "type": "uint256"
        },
        {
          "internalType": "bool",
          "name": "predicted",
          "type": "bool"
        },
        {
          "internalType": "bool",
          "name": "correct",
          "type": "bool"
        },
        {
          "internalType": "bool",
          "name": "verifiedPrediction",
          "type": "bool"
        }
      ],
      "stateMutability": "view",
      "type": "function"
    },
    {
      "inputs": [],
      "name": "question",
      "outputs": [
        {
          "internalType": "string",
          "name": "",
          "type": "string"
        }
      ],
      "stateMutability": "view",
      "type": "function"
    },
    {
      "inputs": [],
      "name": "resolutionDate",
      "outputs": [
        {
          "internalType": "uint256",
          "name": "",
          "type": "uint256"
        }
      ],
      "stateMutability": "view",
      "type": "function"
    },
    {
      "inputs": [],
      "name": "resolved",
      "outputs": [
        {
          "internalType": "bool",
          "name": "",
          "type": "bool"
        }
      ],
      "stateMutability": "view",
      "type": "function"
    },
    {
      "inputs": [
        {
          "internalType": "address",
          "name": "_user",
          "type": "address"
        }
      ],
      "name": "verifiedPrediction",
      "outputs": [
        {
          "internalType": "bool",
          "name": "",
          "type": "bool"
        }
      ],
      "stateMutability": "view",
      "type": "function"
    },
    {
      "inputs": [
        {
          "internalType": "uint256",
          "name": "_decodedPrediction",
          "type": "uint256"
        },
        {
          "internalType": "bytes",
          "name": "_signature",
          "type": "bytes"
        }
      ],
      "name": "verifyPrediction",
      "outputs": [],
      "stateMutability": "nonpayable",
      "type": "function"
    },
    {
      "inputs": [],
      "name": "wageDeadline",
      "outputs": [
        {
          "internalType": "uint256",
          "name": "",
          "type": "uint256"
        }
      ],
      "stateMutability": "view",
      "type": "function"
    }
  ],
  "bytecode": "0x60806040523480156200001157600080fd5b5060405162001bd338038062001bd3833981810160405281019062000037919062000260565b83838383826001819055504260028190555083600090816200005a919062000532565b5081600381905550806004819055506000600560006101000a81548160ff021916908315150217905550505050505050505062000619565b6000604051905090565b600080fd5b600080fd5b600080fd5b600080fd5b6000601f19601f8301169050919050565b7f4e487b7100000000000000000000000000000000000000000000000000000000600052604160045260246000fd5b620000fb82620000b0565b810181811067ffffffffffffffff821117156200011d576200011c620000c1565b5b80604052505050565b60006200013262000092565b9050620001408282620000f0565b919050565b600067ffffffffffffffff821115620001635762000162620000c1565b5b6200016e82620000b0565b9050602081019050919050565b60005b838110156200019b5780820151818401526020810190506200017e565b60008484015250505050565b6000620001be620001b88462000145565b62000126565b905082815260208101848484011115620001dd57620001dc620000ab565b5b620001ea8482856200017b565b509392505050565b600082601f8301126200020a5762000209620000a6565b5b81516200021c848260208601620001a7565b91505092915050565b6000819050919050565b6200023a8162000225565b81146200024657600080fd5b50565b6000815190506200025a816200022f565b92915050565b600080600080608085870312156200027d576200027c6200009c565b5b600085015167ffffffffffffffff8111156200029e576200029d620000a1565b5b620002ac87828801620001f2565b9450506020620002bf8782880162000249565b9350506040620002d28782880162000249565b9250506060620002e58782880162000249565b91505092959194509250565b600081519050919050565b7f4e487b7100000000000000000000000000000000000000000000000000000000600052602260045260246000fd5b600060028204905060018216806200034457607f821691505b6020821081036200035a5762000359620002fc565b5b50919050565b60008190508160005260206000209050919050565b60006020601f8301049050919050565b600082821b905092915050565b600060088302620003c47fffffffffffffffffffffffffffffffffffffffffffffffffffffffffffffffff8262000385565b620003d0868362000385565b95508019841693508086168417925050509392505050565b6000819050919050565b6000620004136200040d620004078462000225565b620003e8565b62000225565b9050919050565b6000819050919050565b6200042f83620003f2565b620004476200043e826200041a565b84845462000392565b825550505050565b600090565b6200045e6200044f565b6200046b81848462000424565b505050565b5b8181101562000493576200048760008262000454565b60018101905062000471565b5050565b601f821115620004e257620004ac8162000360565b620004b78462000375565b81016020851015620004c7578190505b620004df620004d68562000375565b83018262000470565b50505b505050565b600082821c905092915050565b60006200050760001984600802620004e7565b1980831691505092915050565b6000620005228383620004f4565b9150826002028217905092915050565b6200053d82620002f1565b67ffffffffffffffff811115620005595762000558620000c1565b5b6200056582546200032b565b6200057282828562000497565b600060209050601f831160018114620005aa576000841562000595578287015190505b620005a1858262000514565b86555062000611565b601f198416620005ba8662000360565b60005b82811015620005e457848901518255600182019150602085019450602081019050620005bd565b8683101562000604578489015162000600601f891682620004f4565b8355505b6001600288020188555050505b505050505050565b6115aa80620006296000396000f3fe608060405234801561001057600080fd5b50600436106100ea5760003560e01c806354a810671161008c5780639351a4c9116100665780639351a4c914610254578063dc53264914610272578063fc1bfb901461028e578063fee4fac3146102ac576100ea565b806354a81067146101e85780635b2b0f161461021857806385bb7d6914610236576100ea565b806335fa61fa116100c857806335fa61fa146101595780633f6fa6551461018e5780633fad9ae0146101ac57806349200d77146101ca576100ea565b8063049381c8146100ef57806305b344101461011f5780630e787cce1461013d575b600080fd5b61010960048036038101906101049190610bf8565b6102ca565b6040516101169190610c40565b60405180910390f35b610127610323565b6040516101349190610c74565b60405180910390f35b61015760048036038101906101529190610cc5565b610329565b005b610173600480360381019061016e9190610bf8565b6104f0565b60405161018596959493929190610d01565b60405180910390f35b610196610553565b6040516101a39190610c40565b60405180910390f35b6101b4610566565b6040516101c19190610df2565b60405180910390f35b6101d26105f4565b6040516101df9190610c74565b60405180910390f35b61020260048036038101906101fd9190610bf8565b6105fa565b60405161020f9190610c40565b60405180910390f35b610220610653565b60405161022d9190610c74565b60405180910390f35b61023e610658565b60405161024b9190610c74565b60405180910390f35b61025c61065e565b6040516102699190610c74565b60405180910390f35b61028c60048036038101906102879190610ea5565b610664565b005b610296610948565b6040516102a39190610c74565b60405180910390f35b6102b4610b8a565b6040516102c19190610c74565b60405180910390f35b6000600760008373ffffffffffffffffffffffffffffffffffffffff1673ffffffffffffffffffffffffffffffffffffffff16815260200190815260200160002060030160009054906101000a900460ff169050919050565b60025481565b60035442111561036e576040517f08c379a000000000000000000000000000000000000000000000000000000000815260040161036590610f51565b60405180910390fd5b60001515600760003373ffffffffffffffffffffffffffffffffffffffff1673ffffffffffffffffffffffffffffffffffffffff16815260200190815260200160002060030160009054906101000a900460ff16151514610404576040517f08c379a00000000000000000000000000000000000000000000000000000000081526004016103fb90610fbd565b60405180910390fd5b80600760003373ffffffffffffffffffffffffffffffffffffffff1673ffffffffffffffffffffffffffffffffffffffff1681526020019081526020016000206001018190555042600760003373ffffffffffffffffffffffffffffffffffffffff1673ffffffffffffffffffffffffffffffffffffffff168152602001908152602001600020600001819055506001600760003373ffffffffffffffffffffffffffffffffffffffff1673ffffffffffffffffffffffffffffffffffffffff16815260200190815260200160002060030160006101000a81548160ff02191690831515021790555050565b60076020528060005260406000206000915090508060000154908060010154908060020154908060030160009054906101000a900460ff16908060030160019054906101000a900460ff16908060030160029054906101000a900460ff16905086565b600560009054906101000a900460ff1681565b600080546105739061100c565b80601f016020809104026020016040519081016040528092919081815260200182805461059f9061100c565b80156105ec5780601f106105c1576101008083540402835291602001916105ec565b820191906000526020600020905b8154815290600101906020018083116105cf57829003601f168201915b505050505081565b60015481565b6000600760008373ffffffffffffffffffffffffffffffffffffffff1673ffffffffffffffffffffffffffffffffffffffff16815260200190815260200160002060030160029054906101000a900460ff169050919050565b600090565b60065481565b60035481565b60011515600760003273ffffffffffffffffffffffffffffffffffffffff1673ffffffffffffffffffffffffffffffffffffffff16815260200190815260200160002060030160009054906101000a900460ff161515146106fa576040517f08c379a00000000000000000000000000000000000000000000000000000000081526004016106f190611089565b60405180910390fd5b60001515600760003273ffffffffffffffffffffffffffffffffffffffff1673ffffffffffffffffffffffffffffffffffffffff16815260200190815260200160002060030160029054906101000a900460ff16151514610790576040517f08c379a00000000000000000000000000000000000000000000000000000000081526004016107879061111b565b60405180910390fd5b600760003273ffffffffffffffffffffffffffffffffffffffff1673ffffffffffffffffffffffffffffffffffffffff1681526020019081526020016000206001015482826040516020016107e692919061117a565b604051602081830303815290604052805190602001201461083c576040517f08c379a0000000000000000000000000000000000000000000000000000000008152600401610833906111df565b60405180910390fd5b600083323060405160200161085393929190611268565b60405160208183030381529060405280519060200120905073__$76a5aa0bdfb9550fbf1626cedb3fffb226$__631a86b550328386866040518563ffffffff1660e01b81526004016108a89493929190611301565b602060405180830381865af41580156108c5573d6000803e3d6000fd5b505050506040513d601f19601f820116820180604052508101906108e9919061136d565b600760003273ffffffffffffffffffffffffffffffffffffffff1673ffffffffffffffffffffffffffffffffffffffff16815260200190815260200160002060030160026101000a81548160ff02191690831515021790555050505050565b600060011515600560009054906101000a900460ff161515146109a0576040517f08c379a0000000000000000000000000000000000000000000000000000000008152600401610997906113e6565b60405180910390fd5b6001600760003273ffffffffffffffffffffffffffffffffffffffff1673ffffffffffffffffffffffffffffffffffffffff16815260200190815260200160002060030160026101000a81548160ff0219169083151502179055610a39576040517f08c379a0000000000000000000000000000000000000000000000000000000008152600401610a3090611452565b60405180910390fd5b600760003273ffffffffffffffffffffffffffffffffffffffff1673ffffffffffffffffffffffffffffffffffffffff1681526020019081526020016000206002015460065414610abf576040517f08c379a0000000000000000000000000000000000000000000000000000000008152600401610ab6906114be565b60405180910390fd5b73__$72453d3f86756092f85c686cceda113dff$__636332cadd600354600254600760003273ffffffffffffffffffffffffffffffffffffffff1673ffffffffffffffffffffffffffffffffffffffff168152602001908152602001600020600001546001546040518563ffffffff1660e01b8152600401610b4494939291906114ed565b602060405180830381865af4158015610b61573d6000803e3d6000fd5b505050506040513d601f19601f82011682018060405250810190610b859190611547565b905090565b60045481565b600080fd5b600080fd5b600073ffffffffffffffffffffffffffffffffffffffff82169050919050565b6000610bc582610b9a565b9050919050565b610bd581610bba565b8114610be057600080fd5b50565b600081359050610bf281610bcc565b92915050565b600060208284031215610c0e57610c0d610b90565b5b6000610c1c84828501610be3565b91505092915050565b60008115159050919050565b610c3a81610c25565b82525050565b6000602082019050610c556000830184610c31565b92915050565b6000819050919050565b610c6e81610c5b565b82525050565b6000602082019050610c896000830184610c65565b92915050565b6000819050919050565b610ca281610c8f565b8114610cad57600080fd5b50565b600081359050610cbf81610c99565b92915050565b600060208284031215610cdb57610cda610b90565b5b6000610ce984828501610cb0565b91505092915050565b610cfb81610c8f565b82525050565b600060c082019050610d166000830189610c65565b610d236020830188610cf2565b610d306040830187610c65565b610d3d6060830186610c31565b610d4a6080830185610c31565b610d5760a0830184610c31565b979650505050505050565b600081519050919050565b600082825260208201905092915050565b60005b83811015610d9c578082015181840152602081019050610d81565b60008484015250505050565b6000601f19601f8301169050919050565b6000610dc482610d62565b610dce8185610d6d565b9350610dde818560208601610d7e565b610de781610da8565b840191505092915050565b60006020820190508181036000830152610e0c8184610db9565b905092915050565b610e1d81610c5b565b8114610e2857600080fd5b50565b600081359050610e3a81610e14565b92915050565b600080fd5b600080fd5b600080fd5b60008083601f840112610e6557610e64610e40565b5b8235905067ffffffffffffffff811115610e8257610e81610e45565b5b602083019150836001820283011115610e9e57610e9d610e4a565b5b9250929050565b600080600060408486031215610ebe57610ebd610b90565b5b6000610ecc86828701610e2b565b935050602084013567ffffffffffffffff811115610eed57610eec610b95565b5b610ef986828701610e4f565b92509250509250925092565b7f6d61726b6574206973206e6f206c6f6e67657220616374697665000000000000600082015250565b6000610f3b601a83610d6d565b9150610f4682610f05565b602082019050919050565b60006020820190508181036000830152610f6a81610f2e565b9050919050565b7f757365722068617320616c726561647920707265646963746564000000000000600082015250565b6000610fa7601a83610d6d565b9150610fb282610f71565b602082019050919050565b60006020820190508181036000830152610fd681610f9a565b9050919050565b7f4e487b7100000000000000000000000000000000000000000000000000000000600052602260045260246000fd5b6000600282049050600182168061102457607f821691505b60208210810361103757611036610fdd565b5b50919050565b7f7573657220686173206e6f742070726564696374656400000000000000000000600082015250565b6000611073601683610d6d565b915061107e8261103d565b602082019050919050565b600060208201905081810360008301526110a281611066565b9050919050565b7f796f75206861766520616c726561647920766572696669656420796f7572207060008201527f726564696374696f6e0000000000000000000000000000000000000000000000602082015250565b6000611105602983610d6d565b9150611110826110a9565b604082019050919050565b60006020820190508181036000830152611134816110f8565b9050919050565b600081905092915050565b82818337600083830152505050565b6000611161838561113b565b935061116e838584611146565b82840190509392505050565b6000611187828486611155565b91508190509392505050565b7f7375626d697465642077726f6e67207369676e61747572650000000000000000600082015250565b60006111c9601883610d6d565b91506111d482611193565b602082019050919050565b600060208201905081810360008301526111f8816111bc565b9050919050565b6000819050919050565b61121a61121582610c5b565b6111ff565b82525050565b60008160601b9050919050565b600061123882611220565b9050919050565b600061124a8261122d565b9050919050565b61126261125d82610bba565b61123f565b82525050565b60006112748286611209565b6020820191506112848285611251565b6014820191506112948284611251565b601482019150819050949350505050565b6112ae81610bba565b82525050565b6112bd81610c8f565b82525050565b600082825260208201905092915050565b60006112e083856112c3565b93506112ed838584611146565b6112f683610da8565b840190509392505050565b600060608201905061131660008301876112a5565b61132360208301866112b4565b81810360408301526113368184866112d4565b905095945050505050565b61134a81610c25565b811461135557600080fd5b50565b60008151905061136781611341565b92915050565b60006020828403121561138357611382610b90565b5b600061139184828501611358565b91505092915050565b7f6d61726b657420686173206e6f74207265736f6c766564000000000000000000600082015250565b60006113d0601783610d6d565b91506113db8261139a565b602082019050919050565b600060208201905081810360008301526113ff816113c3565b9050919050565b7f7665726966792070726564696374696f6e732066697273740000000000000000600082015250565b600061143c601883610d6d565b915061144782611406565b602082019050919050565b6000602082019050818103600083015261146b8161142f565b9050919050565b7f70726564696374696f6e2077617320696e636f72726563740000000000000000600082015250565b60006114a8601883610d6d565b91506114b382611472565b602082019050919050565b600060208201905081810360008301526114d78161149b565b9050919050565b6114e781610c5b565b82525050565b600060808201905061150260008301876114de565b61150f60208301866114de565b61151c60408301856114de565b61152960608301846114de565b95945050505050565b60008151905061154181610e14565b92915050565b60006020828403121561155d5761155c610b90565b5b600061156b84828501611532565b9150509291505056fea2646970667358221220ebb5b17424dcf6797c8d38b7fb47298a4f5538f1249c75fe38b6d07b486ddeb764736f6c63430008120033",
  "linkReferences": {
    "contracts/libraries/Maths.sol": {
      "Maths": [
        {
          "length": 20,
          "start": 4330
        }
      ]
    },
    "contracts/libraries/SignatureVerifier.sol": {
      "SignatureVerifier": [
        {
          "length": 20,
          "start": 3734
        }
      ]
    }
  },
  "deployedLinkReferences": {
    "contracts/libraries/Maths.sol": {
      "Maths": [
        {
          "length": 20,
          "start": 2753
        }
      ]
    },
    "contracts/libraries/SignatureVerifier.sol": {
      "SignatureVerifier": [
        {
          "length": 20,
          "start": 2157
        }
      ]
    }
  }
}