{
  "_format": "hh-sol-artifact-1",
  "contractName": "TestMarket",
  "sourceName": "contracts/markets/TestMarket.sol",
  "abi": [
    {
      "inputs": [
        {
          "internalType": "string",
          "name": "_question",
          "type": "string"
        },
        {
          "internalType": "uint256",
          "name": "_numberOfOutcomes",
          "type": "uint256"
        },
        {
          "internalType": "uint256",
          "name": "_wageDeadline",
          "type": "uint256"
        },
        {
          "internalType": "uint256",
          "name": "_resolutionDate",
          "type": "uint256"
        }
      ],
      "stateMutability": "nonpayable",
      "type": "constructor"
    },
    {
      "inputs": [],
      "name": "_getMarketOutcome",
      "outputs": [
        {
          "internalType": "uint256",
          "name": "",
          "type": "uint256"
        }
      ],
      "stateMutability": "view",
      "type": "function"
    },
    {
      "inputs": [],
      "name": "answer",
      "outputs": [
        {
          "internalType": "uint256",
          "name": "",
          "type": "uint256"
        }
      ],
      "stateMutability": "view",
      "type": "function"
    },
    {
      "inputs": [],
      "name": "calculateReputation",
      "outputs": [
        {
          "internalType": "uint256",
          "name": "",
          "type": "uint256"
        }
      ],
      "stateMutability": "nonpayable",
      "type": "function"
    },
    {
      "inputs": [],
      "name": "creationDate",
      "outputs": [
        {
          "internalType": "uint256",
          "name": "",
          "type": "uint256"
        }
      ],
      "stateMutability": "view",
      "type": "function"
    },
    {
      "inputs": [
        {
          "internalType": "address",
          "name": "_user",
          "type": "address"
        }
      ],
      "name": "hasPredicted",
      "outputs": [
        {
          "internalType": "bool",
          "name": "",
          "type": "bool"
        }
      ],
      "stateMutability": "view",
      "type": "function"
    },
    {
      "inputs": [],
      "name": "numberOfOutcomes",
      "outputs": [
        {
          "internalType": "uint256",
          "name": "",
          "type": "uint256"
        }
      ],
      "stateMutability": "view",
      "type": "function"
    },
    {
      "inputs": [
        {
          "internalType": "bytes32",
          "name": "_encodedPrediction",
          "type": "bytes32"
        }
      ],
      "name": "predict",
      "outputs": [],
      "stateMutability": "nonpayable",
      "type": "function"
    },
    {
      "inputs": [
        {
          "internalType": "address",
          "name": "",
          "type": "address"
        }
      ],
      "name": "predictions",
      "outputs": [
        {
          "internalType": "uint256",
          "name": "predictionTimestamp",
          "type": "uint256"
        },
        {
          "internalType": "bytes32",
          "name": "encodedPrediction",
          "type": "bytes32"
        },
        {
          "internalType": "uint256",
          "name": "decodedPrediction",
          "type": "uint256"
        },
        {
          "internalType": "bool",
          "name": "predicted",
          "type": "bool"
        },
        {
          "internalType": "bool",
          "name": "correct",
          "type": "bool"
        },
        {
          "internalType": "bool",
          "name": "verifiedPrediction",
          "type": "bool"
        }
      ],
      "stateMutability": "view",
      "type": "function"
    },
    {
      "inputs": [],
      "name": "question",
      "outputs": [
        {
          "internalType": "string",
          "name": "",
          "type": "string"
        }
      ],
      "stateMutability": "view",
      "type": "function"
    },
    {
      "inputs": [],
      "name": "resolutionDate",
      "outputs": [
        {
          "internalType": "uint256",
          "name": "",
          "type": "uint256"
        }
      ],
      "stateMutability": "view",
      "type": "function"
    },
    {
      "inputs": [],
      "name": "resolve",
      "outputs": [
        {
          "internalType": "bool",
          "name": "",
          "type": "bool"
        }
      ],
      "stateMutability": "nonpayable",
      "type": "function"
    },
    {
      "inputs": [],
      "name": "resolved",
      "outputs": [
        {
          "internalType": "bool",
          "name": "",
          "type": "bool"
        }
      ],
      "stateMutability": "view",
      "type": "function"
    },
    {
      "inputs": [
        {
          "internalType": "address",
          "name": "_user",
          "type": "address"
        }
      ],
      "name": "verifiedPrediction",
      "outputs": [
        {
          "internalType": "bool",
          "name": "",
          "type": "bool"
        }
      ],
      "stateMutability": "view",
      "type": "function"
    },
    {
      "inputs": [
        {
          "internalType": "uint256",
          "name": "_decodedPrediction",
          "type": "uint256"
        },
        {
          "internalType": "bytes",
          "name": "_signature",
          "type": "bytes"
        }
      ],
      "name": "verifyPrediction",
      "outputs": [],
      "stateMutability": "nonpayable",
      "type": "function"
    },
    {
      "inputs": [],
      "name": "wageDeadline",
      "outputs": [
        {
          "internalType": "uint256",
          "name": "",
          "type": "uint256"
        }
      ],
      "stateMutability": "view",
      "type": "function"
    }
  ],
  "bytecode": "0x60806040523480156200001157600080fd5b5060405162001c1338038062001c13833981810160405281019062000037919062000260565b83838383826001819055504260028190555083600090816200005a919062000532565b5081600381905550806004819055506000600560006101000a81548160ff021916908315150217905550505050505050505062000619565b6000604051905090565b600080fd5b600080fd5b600080fd5b600080fd5b6000601f19601f8301169050919050565b7f4e487b7100000000000000000000000000000000000000000000000000000000600052604160045260246000fd5b620000fb82620000b0565b810181811067ffffffffffffffff821117156200011d576200011c620000c1565b5b80604052505050565b60006200013262000092565b9050620001408282620000f0565b919050565b600067ffffffffffffffff821115620001635762000162620000c1565b5b6200016e82620000b0565b9050602081019050919050565b60005b838110156200019b5780820151818401526020810190506200017e565b60008484015250505050565b6000620001be620001b88462000145565b62000126565b905082815260208101848484011115620001dd57620001dc620000ab565b5b620001ea8482856200017b565b509392505050565b600082601f8301126200020a5762000209620000a6565b5b81516200021c848260208601620001a7565b91505092915050565b6000819050919050565b6200023a8162000225565b81146200024657600080fd5b50565b6000815190506200025a816200022f565b92915050565b600080600080608085870312156200027d576200027c6200009c565b5b600085015167ffffffffffffffff8111156200029e576200029d620000a1565b5b620002ac87828801620001f2565b9450506020620002bf8782880162000249565b9350506040620002d28782880162000249565b9250506060620002e58782880162000249565b91505092959194509250565b600081519050919050565b7f4e487b7100000000000000000000000000000000000000000000000000000000600052602260045260246000fd5b600060028204905060018216806200034457607f821691505b6020821081036200035a5762000359620002fc565b5b50919050565b60008190508160005260206000209050919050565b60006020601f8301049050919050565b600082821b905092915050565b600060088302620003c47fffffffffffffffffffffffffffffffffffffffffffffffffffffffffffffffff8262000385565b620003d0868362000385565b95508019841693508086168417925050509392505050565b6000819050919050565b6000620004136200040d620004078462000225565b620003e8565b62000225565b9050919050565b6000819050919050565b6200042f83620003f2565b620004476200043e826200041a565b84845462000392565b825550505050565b600090565b6200045e6200044f565b6200046b81848462000424565b505050565b5b8181101562000493576200048760008262000454565b60018101905062000471565b5050565b601f821115620004e257620004ac8162000360565b620004b78462000375565b81016020851015620004c7578190505b620004df620004d68562000375565b83018262000470565b50505b505050565b600082821c905092915050565b60006200050760001984600802620004e7565b1980831691505092915050565b6000620005228383620004f4565b9150826002028217905092915050565b6200053d82620002f1565b67ffffffffffffffff811115620005595762000558620000c1565b5b6200056582546200032b565b6200057282828562000497565b600060209050601f831160018114620005aa576000841562000595578287015190505b620005a1858262000514565b86555062000611565b601f198416620005ba8662000360565b60005b82811015620005e457848901518255600182019150602085019450602081019050620005bd565b8683101562000604578489015162000600601f891682620004f4565b8355505b6001600288020188555050505b505050505050565b6115ea80620006296000396000f3fe608060405234801561001057600080fd5b50600436106100f55760003560e01c806349200d77116100975780639351a4c9116100665780639351a4c91461027d578063dc5326491461029b578063fc1bfb90146102b7578063fee4fac3146102d5576100f5565b806349200d77146101f357806354a81067146102115780635b2b0f161461024157806385bb7d691461025f576100f5565b80632810e1d6116100d35780632810e1d61461016457806335fa61fa146101825780633f6fa655146101b75780633fad9ae0146101d5576100f5565b8063049381c8146100fa57806305b344101461012a5780630e787cce14610148575b600080fd5b610114600480360381019061010f9190610c38565b6102f3565b6040516101219190610c80565b60405180910390f35b61013261034c565b60405161013f9190610cb4565b60405180910390f35b610162600480360381019061015d9190610d05565b610352565b005b61016c610519565b6040516101799190610c80565b60405180910390f35b61019c60048036038101906101979190610c38565b610530565b6040516101ae96959493929190610d41565b60405180910390f35b6101bf610593565b6040516101cc9190610c80565b60405180910390f35b6101dd6105a6565b6040516101ea9190610e32565b60405180910390f35b6101fb610634565b6040516102089190610cb4565b60405180910390f35b61022b60048036038101906102269190610c38565b61063a565b6040516102389190610c80565b60405180910390f35b610249610693565b6040516102569190610cb4565b60405180910390f35b610267610698565b6040516102749190610cb4565b60405180910390f35b61028561069e565b6040516102929190610cb4565b60405180910390f35b6102b560048036038101906102b09190610ee5565b6106a4565b005b6102bf610988565b6040516102cc9190610cb4565b60405180910390f35b6102dd610bca565b6040516102ea9190610cb4565b60405180910390f35b6000600760008373ffffffffffffffffffffffffffffffffffffffff1673ffffffffffffffffffffffffffffffffffffffff16815260200190815260200160002060030160009054906101000a900460ff169050919050565b60025481565b600354421115610397576040517f08c379a000000000000000000000000000000000000000000000000000000000815260040161038e90610f91565b60405180910390fd5b60001515600760003373ffffffffffffffffffffffffffffffffffffffff1673ffffffffffffffffffffffffffffffffffffffff16815260200190815260200160002060030160009054906101000a900460ff1615151461042d576040517f08c379a000000000000000000000000000000000000000000000000000000000815260040161042490610ffd565b60405180910390fd5b80600760003373ffffffffffffffffffffffffffffffffffffffff1673ffffffffffffffffffffffffffffffffffffffff1681526020019081526020016000206001018190555042600760003373ffffffffffffffffffffffffffffffffffffffff1673ffffffffffffffffffffffffffffffffffffffff168152602001908152602001600020600001819055506001600760003373ffffffffffffffffffffffffffffffffffffffff1673ffffffffffffffffffffffffffffffffffffffff16815260200190815260200160002060030160006101000a81548160ff02191690831515021790555050565b6000610523610693565b6006819055506001905090565b60076020528060005260406000206000915090508060000154908060010154908060020154908060030160009054906101000a900460ff16908060030160019054906101000a900460ff16908060030160029054906101000a900460ff16905086565b600560009054906101000a900460ff1681565b600080546105b39061104c565b80601f01602080910402602001604051908101604052809291908181526020018280546105df9061104c565b801561062c5780601f106106015761010080835404028352916020019161062c565b820191906000526020600020905b81548152906001019060200180831161060f57829003601f168201915b505050505081565b60015481565b6000600760008373ffffffffffffffffffffffffffffffffffffffff1673ffffffffffffffffffffffffffffffffffffffff16815260200190815260200160002060030160029054906101000a900460ff169050919050565b600090565b60065481565b60035481565b60011515600760003273ffffffffffffffffffffffffffffffffffffffff1673ffffffffffffffffffffffffffffffffffffffff16815260200190815260200160002060030160009054906101000a900460ff1615151461073a576040517f08c379a0000000000000000000000000000000000000000000000000000000008152600401610731906110c9565b60405180910390fd5b60001515600760003273ffffffffffffffffffffffffffffffffffffffff1673ffffffffffffffffffffffffffffffffffffffff16815260200190815260200160002060030160029054906101000a900460ff161515146107d0576040517f08c379a00000000000000000000000000000000000000000000000000000000081526004016107c79061115b565b60405180910390fd5b600760003273ffffffffffffffffffffffffffffffffffffffff1673ffffffffffffffffffffffffffffffffffffffff1681526020019081526020016000206001015482826040516020016108269291906111ba565b604051602081830303815290604052805190602001201461087c576040517f08c379a00000000000000000000000000000000000000000000000000000000081526004016108739061121f565b60405180910390fd5b6000833230604051602001610893939291906112a8565b60405160208183030381529060405280519060200120905073__$76a5aa0bdfb9550fbf1626cedb3fffb226$__631a86b550328386866040518563ffffffff1660e01b81526004016108e89493929190611341565b602060405180830381865af4158015610905573d6000803e3d6000fd5b505050506040513d601f19601f8201168201806040525081019061092991906113ad565b600760003273ffffffffffffffffffffffffffffffffffffffff1673ffffffffffffffffffffffffffffffffffffffff16815260200190815260200160002060030160026101000a81548160ff02191690831515021790555050505050565b600060011515600560009054906101000a900460ff161515146109e0576040517f08c379a00000000000000000000000000000000000000000000000000000000081526004016109d790611426565b60405180910390fd5b6001600760003273ffffffffffffffffffffffffffffffffffffffff1673ffffffffffffffffffffffffffffffffffffffff16815260200190815260200160002060030160026101000a81548160ff0219169083151502179055610a79576040517f08c379a0000000000000000000000000000000000000000000000000000000008152600401610a7090611492565b60405180910390fd5b600760003273ffffffffffffffffffffffffffffffffffffffff1673ffffffffffffffffffffffffffffffffffffffff1681526020019081526020016000206002015460065414610aff576040517f08c379a0000000000000000000000000000000000000000000000000000000008152600401610af6906114fe565b60405180910390fd5b73__$72453d3f86756092f85c686cceda113dff$__636332cadd600354600254600760003273ffffffffffffffffffffffffffffffffffffffff1673ffffffffffffffffffffffffffffffffffffffff168152602001908152602001600020600001546001546040518563ffffffff1660e01b8152600401610b84949392919061152d565b602060405180830381865af4158015610ba1573d6000803e3d6000fd5b505050506040513d601f19601f82011682018060405250810190610bc59190611587565b905090565b60045481565b600080fd5b600080fd5b600073ffffffffffffffffffffffffffffffffffffffff82169050919050565b6000610c0582610bda565b9050919050565b610c1581610bfa565b8114610c2057600080fd5b50565b600081359050610c3281610c0c565b92915050565b600060208284031215610c4e57610c4d610bd0565b5b6000610c5c84828501610c23565b91505092915050565b60008115159050919050565b610c7a81610c65565b82525050565b6000602082019050610c956000830184610c71565b92915050565b6000819050919050565b610cae81610c9b565b82525050565b6000602082019050610cc96000830184610ca5565b92915050565b6000819050919050565b610ce281610ccf565b8114610ced57600080fd5b50565b600081359050610cff81610cd9565b92915050565b600060208284031215610d1b57610d1a610bd0565b5b6000610d2984828501610cf0565b91505092915050565b610d3b81610ccf565b82525050565b600060c082019050610d566000830189610ca5565b610d636020830188610d32565b610d706040830187610ca5565b610d7d6060830186610c71565b610d8a6080830185610c71565b610d9760a0830184610c71565b979650505050505050565b600081519050919050565b600082825260208201905092915050565b60005b83811015610ddc578082015181840152602081019050610dc1565b60008484015250505050565b6000601f19601f8301169050919050565b6000610e0482610da2565b610e0e8185610dad565b9350610e1e818560208601610dbe565b610e2781610de8565b840191505092915050565b60006020820190508181036000830152610e4c8184610df9565b905092915050565b610e5d81610c9b565b8114610e6857600080fd5b50565b600081359050610e7a81610e54565b92915050565b600080fd5b600080fd5b600080fd5b60008083601f840112610ea557610ea4610e80565b5b8235905067ffffffffffffffff811115610ec257610ec1610e85565b5b602083019150836001820283011115610ede57610edd610e8a565b5b9250929050565b600080600060408486031215610efe57610efd610bd0565b5b6000610f0c86828701610e6b565b935050602084013567ffffffffffffffff811115610f2d57610f2c610bd5565b5b610f3986828701610e8f565b92509250509250925092565b7f6d61726b6574206973206e6f206c6f6e67657220616374697665000000000000600082015250565b6000610f7b601a83610dad565b9150610f8682610f45565b602082019050919050565b60006020820190508181036000830152610faa81610f6e565b9050919050565b7f757365722068617320616c726561647920707265646963746564000000000000600082015250565b6000610fe7601a83610dad565b9150610ff282610fb1565b602082019050919050565b6000602082019050818103600083015261101681610fda565b9050919050565b7f4e487b7100000000000000000000000000000000000000000000000000000000600052602260045260246000fd5b6000600282049050600182168061106457607f821691505b6020821081036110775761107661101d565b5b50919050565b7f7573657220686173206e6f742070726564696374656400000000000000000000600082015250565b60006110b3601683610dad565b91506110be8261107d565b602082019050919050565b600060208201905081810360008301526110e2816110a6565b9050919050565b7f796f75206861766520616c726561647920766572696669656420796f7572207060008201527f726564696374696f6e0000000000000000000000000000000000000000000000602082015250565b6000611145602983610dad565b9150611150826110e9565b604082019050919050565b6000602082019050818103600083015261117481611138565b9050919050565b600081905092915050565b82818337600083830152505050565b60006111a1838561117b565b93506111ae838584611186565b82840190509392505050565b60006111c7828486611195565b91508190509392505050565b7f7375626d697465642077726f6e67207369676e61747572650000000000000000600082015250565b6000611209601883610dad565b9150611214826111d3565b602082019050919050565b60006020820190508181036000830152611238816111fc565b9050919050565b6000819050919050565b61125a61125582610c9b565b61123f565b82525050565b60008160601b9050919050565b600061127882611260565b9050919050565b600061128a8261126d565b9050919050565b6112a261129d82610bfa565b61127f565b82525050565b60006112b48286611249565b6020820191506112c48285611291565b6014820191506112d48284611291565b601482019150819050949350505050565b6112ee81610bfa565b82525050565b6112fd81610ccf565b82525050565b600082825260208201905092915050565b60006113208385611303565b935061132d838584611186565b61133683610de8565b840190509392505050565b600060608201905061135660008301876112e5565b61136360208301866112f4565b8181036040830152611376818486611314565b905095945050505050565b61138a81610c65565b811461139557600080fd5b50565b6000815190506113a781611381565b92915050565b6000602082840312156113c3576113c2610bd0565b5b60006113d184828501611398565b91505092915050565b7f6d61726b657420686173206e6f74207265736f6c766564000000000000000000600082015250565b6000611410601783610dad565b915061141b826113da565b602082019050919050565b6000602082019050818103600083015261143f81611403565b9050919050565b7f7665726966792070726564696374696f6e732066697273740000000000000000600082015250565b600061147c601883610dad565b915061148782611446565b602082019050919050565b600060208201905081810360008301526114ab8161146f565b9050919050565b7f70726564696374696f6e2077617320696e636f72726563740000000000000000600082015250565b60006114e8601883610dad565b91506114f3826114b2565b602082019050919050565b60006020820190508181036000830152611517816114db565b9050919050565b61152781610c9b565b82525050565b6000608082019050611542600083018761151e565b61154f602083018661151e565b61155c604083018561151e565b611569606083018461151e565b95945050505050565b60008151905061158181610e54565b92915050565b60006020828403121561159d5761159c610bd0565b5b60006115ab84828501611572565b9150509291505056fea26469706673582212207f24d3645d1b1730a2d8dcc6edc6134dabfb22c36b9ff38c084f8be5d11f5b6464736f6c63430008120033",
  "linkReferences": {
    "contracts/libraries/Maths.sol": {
      "Maths": [
        {
          "length": 20,
          "start": 4394
        }
      ]
    },
    "contracts/libraries/SignatureVerifier.sol": {
      "SignatureVerifier": [
        {
          "length": 20,
          "start": 3798
        }
      ]
    }
  },
  "deployedLinkReferences": {
    "contracts/libraries/Maths.sol": {
      "Maths": [
        {
          "length": 20,
          "start": 2817
        }
      ]
    },
    "contracts/libraries/SignatureVerifier.sol": {
      "SignatureVerifier": [
        {
          "length": 20,
          "start": 2221
        }
      ]
    }
  }
}