{
  "_format": "hh-sol-artifact-1",
  "contractName": "PriceFeeder",
  "sourceName": "contracts/chainlink-contracts/PriceFeeder.sol",
  "abi": [
    {
      "inputs": [
        {
          "internalType": "address",
          "name": "pairAddress",
          "type": "address"
        }
      ],
      "name": "getLatestPrice",
      "outputs": [
        {
          "internalType": "uint256",
          "name": "",
          "type": "uint256"
        }
      ],
      "stateMutability": "view",
      "type": "function"
    }
  ],
  "bytecode": "0x608060405234801561001057600080fd5b50610381806100206000396000f3fe608060405234801561001057600080fd5b506004361061002b5760003560e01c806316345f1814610030575b600080fd5b61004a6004803603810190610045919061015a565b610060565b60405161005791906101a0565b60405180910390f35b60008082905060008173ffffffffffffffffffffffffffffffffffffffff1663feaf968c6040518163ffffffff1660e01b815260040160a060405180830381865afa1580156100b3573d6000803e3d6000fd5b505050506040513d601f19601f820116820180604052508101906100d7919061025f565b5050509150506402540be400816100ee9190610309565b92505050919050565b600080fd5b600073ffffffffffffffffffffffffffffffffffffffff82169050919050565b6000610127826100fc565b9050919050565b6101378161011c565b811461014257600080fd5b50565b6000813590506101548161012e565b92915050565b6000602082840312156101705761016f6100f7565b5b600061017e84828501610145565b91505092915050565b6000819050919050565b61019a81610187565b82525050565b60006020820190506101b56000830184610191565b92915050565b600069ffffffffffffffffffff82169050919050565b6101da816101bb565b81146101e557600080fd5b50565b6000815190506101f7816101d1565b92915050565b6000819050919050565b610210816101fd565b811461021b57600080fd5b50565b60008151905061022d81610207565b92915050565b61023c81610187565b811461024757600080fd5b50565b60008151905061025981610233565b92915050565b600080600080600060a0868803121561027b5761027a6100f7565b5b6000610289888289016101e8565b955050602061029a8882890161021e565b94505060406102ab8882890161024a565b93505060606102bc8882890161024a565b92505060806102cd888289016101e8565b9150509295509295909350565b7f4e487b7100000000000000000000000000000000000000000000000000000000600052601160045260246000fd5b600061031482610187565b915061031f83610187565b925082820261032d81610187565b91508282048414831517610344576103436102da565b5b509291505056fea26469706673582212208af789cf8f79e35e19c19e47a2e80f04a3e4660c8d518f9fcaa947572034c4b864736f6c63430008120033",
  "linkReferences": {},
  "deployedLinkReferences": {}
}