{
  "_format": "hh-sol-artifact-1",
  "contractName": "PriceFeedsMarket",
  "sourceName": "contracts/markets/PriceFeedsMarket.sol",
  "abi": [
    {
      "inputs": [
        {
          "internalType": "address",
          "name": "_factoryContractAddress",
          "type": "address"
        },
        {
          "internalType": "string",
          "name": "_question",
          "type": "string"
        },
        {
          "internalType": "uint256[5]",
          "name": "_outcomes",
          "type": "uint256[5]"
        },
        {
          "internalType": "uint256",
          "name": "_numberOfOutcomes",
          "type": "uint256"
        },
        {
          "internalType": "uint256",
          "name": "_wageDeadline",
          "type": "uint256"
        },
        {
          "internalType": "uint256",
          "name": "_resolutionDate",
          "type": "uint256"
        },
        {
          "internalType": "address",
          "name": "_priceFeedAddress",
          "type": "address"
        },
        {
          "internalType": "address",
          "name": "_priceFeederAddress",
          "type": "address"
        }
      ],
      "stateMutability": "nonpayable",
      "type": "constructor"
    },
    {
      "inputs": [],
      "name": "_getMarketOutcome",
      "outputs": [
        {
          "internalType": "uint256",
          "name": "",
          "type": "uint256"
        }
      ],
      "stateMutability": "view",
      "type": "function"
    },
    {
      "inputs": [],
      "name": "answer",
      "outputs": [
        {
          "internalType": "uint256",
          "name": "",
          "type": "uint256"
        }
      ],
      "stateMutability": "view",
      "type": "function"
    },
    {
      "inputs": [],
      "name": "calculateReputation",
      "outputs": [
        {
          "internalType": "uint256",
          "name": "",
          "type": "uint256"
        }
      ],
      "stateMutability": "view",
      "type": "function"
    },
    {
      "inputs": [],
      "name": "creationDate",
      "outputs": [
        {
          "internalType": "uint256",
          "name": "",
          "type": "uint256"
        }
      ],
      "stateMutability": "view",
      "type": "function"
    },
    {
      "inputs": [
        {
          "internalType": "address",
          "name": "_user",
          "type": "address"
        }
      ],
      "name": "hasPredicted",
      "outputs": [
        {
          "internalType": "bool",
          "name": "",
          "type": "bool"
        }
      ],
      "stateMutability": "view",
      "type": "function"
    },
    {
      "inputs": [],
      "name": "numberOfOutcomes",
      "outputs": [
        {
          "internalType": "uint256",
          "name": "",
          "type": "uint256"
        }
      ],
      "stateMutability": "view",
      "type": "function"
    },
    {
      "inputs": [
        {
          "internalType": "bytes32",
          "name": "_encodedPrediction",
          "type": "bytes32"
        }
      ],
      "name": "predict",
      "outputs": [],
      "stateMutability": "nonpayable",
      "type": "function"
    },
    {
      "inputs": [
        {
          "internalType": "address",
          "name": "",
          "type": "address"
        }
      ],
      "name": "predictions",
      "outputs": [
        {
          "internalType": "uint256",
          "name": "predictionTimestamp",
          "type": "uint256"
        },
        {
          "internalType": "bytes32",
          "name": "encodedPrediction",
          "type": "bytes32"
        },
        {
          "internalType": "uint256",
          "name": "decodedPrediction",
          "type": "uint256"
        },
        {
          "internalType": "bool",
          "name": "predicted",
          "type": "bool"
        },
        {
          "internalType": "bool",
          "name": "correct",
          "type": "bool"
        },
        {
          "internalType": "bool",
          "name": "verifiedPrediction",
          "type": "bool"
        }
      ],
      "stateMutability": "view",
      "type": "function"
    },
    {
      "inputs": [],
      "name": "question",
      "outputs": [
        {
          "internalType": "string",
          "name": "",
          "type": "string"
        }
      ],
      "stateMutability": "view",
      "type": "function"
    },
    {
      "inputs": [],
      "name": "resolutionDate",
      "outputs": [
        {
          "internalType": "uint256",
          "name": "",
          "type": "uint256"
        }
      ],
      "stateMutability": "view",
      "type": "function"
    },
    {
      "inputs": [],
      "name": "resolve",
      "outputs": [
        {
          "internalType": "bool",
          "name": "",
          "type": "bool"
        }
      ],
      "stateMutability": "nonpayable",
      "type": "function"
    },
    {
      "inputs": [],
      "name": "resolved",
      "outputs": [
        {
          "internalType": "bool",
          "name": "",
          "type": "bool"
        }
      ],
      "stateMutability": "view",
      "type": "function"
    },
    {
      "inputs": [
        {
          "internalType": "address",
          "name": "_user",
          "type": "address"
        }
      ],
      "name": "verifiedPrediction",
      "outputs": [
        {
          "internalType": "bool",
          "name": "",
          "type": "bool"
        }
      ],
      "stateMutability": "view",
      "type": "function"
    },
    {
      "inputs": [
        {
          "internalType": "uint256",
          "name": "_decodedPrediction",
          "type": "uint256"
        },
        {
          "internalType": "bytes",
          "name": "_signature",
          "type": "bytes"
        }
      ],
      "name": "verifyPrediction",
      "outputs": [],
      "stateMutability": "nonpayable",
      "type": "function"
    },
    {
      "inputs": [],
      "name": "wageDeadline",
      "outputs": [
        {
          "internalType": "uint256",
          "name": "",
          "type": "uint256"
        }
      ],
      "stateMutability": "view",
      "type": "function"
    }
  ],
  "bytecode": "0x60806040523480156200001157600080fd5b5060405162002340380380620023408339818101604052810190620000379190620004cd565b86858585826001819055504260028190555083600090816200005a9190620007fa565b5081600381905550806004819055506000600560006101000a81548160ff021916908315150217905550505050508560089060056200009b9291906200016d565b5080600e60006101000a81548173ffffffffffffffffffffffffffffffffffffffff021916908373ffffffffffffffffffffffffffffffffffffffff16021790555087600f60006101000a81548173ffffffffffffffffffffffffffffffffffffffff021916908373ffffffffffffffffffffffffffffffffffffffff16021790555081600d60006101000a81548173ffffffffffffffffffffffffffffffffffffffff021916908373ffffffffffffffffffffffffffffffffffffffff1602179055505050505050505050620008e1565b82600581019282156200019f579160200282015b828111156200019e57825182559160200191906001019062000181565b5b509050620001ae9190620001b2565b5090565b5b80821115620001cd576000816000905550600101620001b3565b5090565b6000604051905090565b600080fd5b600080fd5b600073ffffffffffffffffffffffffffffffffffffffff82169050919050565b60006200021282620001e5565b9050919050565b620002248162000205565b81146200023057600080fd5b50565b600081519050620002448162000219565b92915050565b600080fd5b600080fd5b6000601f19601f8301169050919050565b7f4e487b7100000000000000000000000000000000000000000000000000000000600052604160045260246000fd5b6200029f8262000254565b810181811067ffffffffffffffff82111715620002c157620002c062000265565b5b80604052505050565b6000620002d6620001d1565b9050620002e4828262000294565b919050565b600067ffffffffffffffff82111562000307576200030662000265565b5b620003128262000254565b9050602081019050919050565b60005b838110156200033f57808201518184015260208101905062000322565b60008484015250505050565b6000620003626200035c84620002e9565b620002ca565b9050828152602081018484840111156200038157620003806200024f565b5b6200038e8482856200031f565b509392505050565b600082601f830112620003ae57620003ad6200024a565b5b8151620003c08482602086016200034b565b91505092915050565b600067ffffffffffffffff821115620003e757620003e662000265565b5b602082029050919050565b600080fd5b6000819050919050565b6200040c81620003f7565b81146200041857600080fd5b50565b6000815190506200042c8162000401565b92915050565b6000620004496200044384620003c9565b620002ca565b90508060208402830185811115620004665762000465620003f2565b5b835b818110156200049357806200047e88826200041b565b84526020840193505060208101905062000468565b5050509392505050565b600082601f830112620004b557620004b46200024a565b5b6005620004c484828562000432565b91505092915050565b600080600080600080600080610180898b031215620004f157620004f0620001db565b5b6000620005018b828c0162000233565b985050602089015167ffffffffffffffff811115620005255762000524620001e0565b5b620005338b828c0162000396565b9750506040620005468b828c016200049d565b96505060e0620005598b828c016200041b565b9550506101006200056d8b828c016200041b565b945050610120620005818b828c016200041b565b935050610140620005958b828c0162000233565b925050610160620005a98b828c0162000233565b9150509295985092959890939650565b600081519050919050565b7f4e487b7100000000000000000000000000000000000000000000000000000000600052602260045260246000fd5b600060028204905060018216806200060c57607f821691505b602082108103620006225762000621620005c4565b5b50919050565b60008190508160005260206000209050919050565b60006020601f8301049050919050565b600082821b905092915050565b6000600883026200068c7fffffffffffffffffffffffffffffffffffffffffffffffffffffffffffffffff826200064d565b6200069886836200064d565b95508019841693508086168417925050509392505050565b6000819050919050565b6000620006db620006d5620006cf84620003f7565b620006b0565b620003f7565b9050919050565b6000819050919050565b620006f783620006ba565b6200070f6200070682620006e2565b8484546200065a565b825550505050565b600090565b6200072662000717565b62000733818484620006ec565b505050565b5b818110156200075b576200074f6000826200071c565b60018101905062000739565b5050565b601f821115620007aa57620007748162000628565b6200077f846200063d565b810160208510156200078f578190505b620007a76200079e856200063d565b83018262000738565b50505b505050565b600082821c905092915050565b6000620007cf60001984600802620007af565b1980831691505092915050565b6000620007ea8383620007bc565b9150826002028217905092915050565b6200080582620005b9565b67ffffffffffffffff81111562000821576200082062000265565b5b6200082d8254620005f3565b6200083a8282856200075f565b600060209050601f8311600181146200087257600084156200085d578287015190505b620008698582620007dc565b865550620008d9565b601f198416620008828662000628565b60005b82811015620008ac5784890151825560018201915060208501945060208101905062000885565b86831015620008cc5784890151620008c8601f891682620007bc565b8355505b6001600288020188555050505b505050505050565b611a4f80620008f16000396000f3fe608060405234801561001057600080fd5b50600436106100f55760003560e01c806349200d77116100975780639351a4c9116100665780639351a4c91461027d578063dc5326491461029b578063fc1bfb90146102b7578063fee4fac3146102d5576100f5565b806349200d77146101f357806354a81067146102115780635b2b0f161461024157806385bb7d691461025f576100f5565b80632810e1d6116100d35780632810e1d61461016457806335fa61fa146101825780633f6fa655146101b75780633fad9ae0146101d5576100f5565b8063049381c8146100fa57806305b344101461012a5780630e787cce14610148575b600080fd5b610114600480360381019061010f9190610fb3565b6102f3565b6040516101219190610ffb565b60405180910390f35b61013261034c565b60405161013f919061102f565b60405180910390f35b610162600480360381019061015d9190611080565b610352565b005b61016c610813565b6040516101799190610ffb565b60405180910390f35b61019c60048036038101906101979190610fb3565b610912565b6040516101ae969594939291906110bc565b60405180910390f35b6101bf610975565b6040516101cc9190610ffb565b60405180910390f35b6101dd610988565b6040516101ea91906111ad565b60405180910390f35b6101fb610a16565b604051610208919061102f565b60405180910390f35b61022b60048036038101906102269190610fb3565b610a1c565b6040516102389190610ffb565b60405180910390f35b610249610a75565b604051610256919061102f565b60405180910390f35b610267610b88565b604051610274919061102f565b60405180910390f35b610285610b8e565b604051610292919061102f565b60405180910390f35b6102b560048036038101906102b09190611260565b610b94565b005b6102bf610e78565b6040516102cc919061102f565b60405180910390f35b6102dd610f45565b6040516102ea919061102f565b60405180910390f35b6000600760008373ffffffffffffffffffffffffffffffffffffffff1673ffffffffffffffffffffffffffffffffffffffff16815260200190815260200160002060030160009054906101000a900460ff169050919050565b60025481565b600354421115610397576040517f08c379a000000000000000000000000000000000000000000000000000000000815260040161038e9061130c565b60405180910390fd5b600f60009054906101000a900473ffffffffffffffffffffffffffffffffffffffff1673ffffffffffffffffffffffffffffffffffffffff16634209fff1336040518263ffffffff1660e01b81526004016103f2919061133b565b602060405180830381865afa15801561040f573d6000803e3d6000fd5b505050506040513d601f19601f820116820180604052508101906104339190611382565b610472576040517f08c379a0000000000000000000000000000000000000000000000000000000008152600401610469906113fb565b60405180910390fd5b60011515600f60009054906101000a900473ffffffffffffffffffffffffffffffffffffffff1673ffffffffffffffffffffffffffffffffffffffff1663b92ae87c336040518263ffffffff1660e01b81526004016104d1919061133b565b602060405180830381865afa1580156104ee573d6000803e3d6000fd5b505050506040513d601f19601f820116820180604052508101906105129190611382565b151514806105bf575060011515600f60009054906101000a900473ffffffffffffffffffffffffffffffffffffffff1673ffffffffffffffffffffffffffffffffffffffff16630f7e31b1336040518263ffffffff1660e01b815260040161057a919061133b565b602060405180830381865afa158015610597573d6000803e3d6000fd5b505050506040513d601f19601f820116820180604052508101906105bb9190611382565b1515145b6105fe576040517f08c379a00000000000000000000000000000000000000000000000000000000081526004016105f59061148d565b60405180910390fd5b60001515600760003373ffffffffffffffffffffffffffffffffffffffff1673ffffffffffffffffffffffffffffffffffffffff16815260200190815260200160002060030160009054906101000a900460ff16151514610694576040517f08c379a000000000000000000000000000000000000000000000000000000000815260040161068b906114f9565b60405180910390fd5b80600760003373ffffffffffffffffffffffffffffffffffffffff1673ffffffffffffffffffffffffffffffffffffffff1681526020019081526020016000206001018190555042600760003373ffffffffffffffffffffffffffffffffffffffff1673ffffffffffffffffffffffffffffffffffffffff168152602001908152602001600020600001819055506001600760003373ffffffffffffffffffffffffffffffffffffffff1673ffffffffffffffffffffffffffffffffffffffff16815260200190815260200160002060030160006101000a81548160ff021916908315150217905550600f60009054906101000a900473ffffffffffffffffffffffffffffffffffffffff1673ffffffffffffffffffffffffffffffffffffffff1663d548a39a333084426040518563ffffffff1660e01b81526004016107de9493929190611519565b600060405180830381600087803b1580156107f857600080fd5b505af115801561080c573d6000803e3d6000fd5b5050505050565b60006004544211610859576040517f08c379a0000000000000000000000000000000000000000000000000000000008152600401610850906115d0565b60405180910390fd5b610861610a75565b6006819055506001600560006101000a81548160ff021916908315150217905550600f60009054906101000a900473ffffffffffffffffffffffffffffffffffffffff1673ffffffffffffffffffffffffffffffffffffffff16639c8809c3306040518263ffffffff1660e01b81526004016108dd919061133b565b600060405180830381600087803b1580156108f757600080fd5b505af115801561090b573d6000803e3d6000fd5b5050505090565b60076020528060005260406000206000915090508060000154908060010154908060020154908060030160009054906101000a900460ff16908060030160019054906101000a900460ff16908060030160029054906101000a900460ff16905086565b600560009054906101000a900460ff1681565b600080546109959061161f565b80601f01602080910402602001604051908101604052809291908181526020018280546109c19061161f565b8015610a0e5780601f106109e357610100808354040283529160200191610a0e565b820191906000526020600020905b8154815290600101906020018083116109f157829003601f168201915b505050505081565b60015481565b6000600760008373ffffffffffffffffffffffffffffffffffffffff1673ffffffffffffffffffffffffffffffffffffffff16815260200190815260200160002060030160029054906101000a900460ff169050919050565b600080600e60009054906101000a900473ffffffffffffffffffffffffffffffffffffffff1673ffffffffffffffffffffffffffffffffffffffff166316345f18600d60009054906101000a900473ffffffffffffffffffffffffffffffffffffffff166040518263ffffffff1660e01b8152600401610af5919061133b565b602060405180830381865afa158015610b12573d6000803e3d6000fd5b505050506040513d601f19601f82011682018060405250810190610b369190611665565b905060005b6001805403811015610b7b5760088160058110610b5b57610b5a611692565b5b0154821015610b6e578092505050610b85565b8080600101915050610b3b565b5060018054039150505b90565b60065481565b60035481565b60011515600760003273ffffffffffffffffffffffffffffffffffffffff1673ffffffffffffffffffffffffffffffffffffffff16815260200190815260200160002060030160009054906101000a900460ff16151514610c2a576040517f08c379a0000000000000000000000000000000000000000000000000000000008152600401610c219061170d565b60405180910390fd5b60001515600760003273ffffffffffffffffffffffffffffffffffffffff1673ffffffffffffffffffffffffffffffffffffffff16815260200190815260200160002060030160029054906101000a900460ff16151514610cc0576040517f08c379a0000000000000000000000000000000000000000000000000000000008152600401610cb79061179f565b60405180910390fd5b600760003273ffffffffffffffffffffffffffffffffffffffff1673ffffffffffffffffffffffffffffffffffffffff168152602001908152602001600020600101548282604051602001610d169291906117fe565b6040516020818303038152906040528051906020012014610d6c576040517f08c379a0000000000000000000000000000000000000000000000000000000008152600401610d6390611863565b60405180910390fd5b6000833230604051602001610d83939291906118ec565b60405160208183030381529060405280519060200120905073__$76a5aa0bdfb9550fbf1626cedb3fffb226$__631a86b550328386866040518563ffffffff1660e01b8152600401610dd89493929190611985565b602060405180830381865af4158015610df5573d6000803e3d6000fd5b505050506040513d601f19601f82011682018060405250810190610e199190611382565b600760003273ffffffffffffffffffffffffffffffffffffffff1673ffffffffffffffffffffffffffffffffffffffff16815260200190815260200160002060030160026101000a81548160ff02191690831515021790555050505050565b600073__$72453d3f86756092f85c686cceda113dff$__636332cadd600354600254600760003273ffffffffffffffffffffffffffffffffffffffff1673ffffffffffffffffffffffffffffffffffffffff168152602001908152602001600020600001546001546040518563ffffffff1660e01b8152600401610eff94939291906119d4565b602060405180830381865af4158015610f1c573d6000803e3d6000fd5b505050506040513d601f19601f82011682018060405250810190610f409190611665565b905090565b60045481565b600080fd5b600080fd5b600073ffffffffffffffffffffffffffffffffffffffff82169050919050565b6000610f8082610f55565b9050919050565b610f9081610f75565b8114610f9b57600080fd5b50565b600081359050610fad81610f87565b92915050565b600060208284031215610fc957610fc8610f4b565b5b6000610fd784828501610f9e565b91505092915050565b60008115159050919050565b610ff581610fe0565b82525050565b60006020820190506110106000830184610fec565b92915050565b6000819050919050565b61102981611016565b82525050565b60006020820190506110446000830184611020565b92915050565b6000819050919050565b61105d8161104a565b811461106857600080fd5b50565b60008135905061107a81611054565b92915050565b60006020828403121561109657611095610f4b565b5b60006110a48482850161106b565b91505092915050565b6110b68161104a565b82525050565b600060c0820190506110d16000830189611020565b6110de60208301886110ad565b6110eb6040830187611020565b6110f86060830186610fec565b6111056080830185610fec565b61111260a0830184610fec565b979650505050505050565b600081519050919050565b600082825260208201905092915050565b60005b8381101561115757808201518184015260208101905061113c565b60008484015250505050565b6000601f19601f8301169050919050565b600061117f8261111d565b6111898185611128565b9350611199818560208601611139565b6111a281611163565b840191505092915050565b600060208201905081810360008301526111c78184611174565b905092915050565b6111d881611016565b81146111e357600080fd5b50565b6000813590506111f5816111cf565b92915050565b600080fd5b600080fd5b600080fd5b60008083601f8401126112205761121f6111fb565b5b8235905067ffffffffffffffff81111561123d5761123c611200565b5b60208301915083600182028301111561125957611258611205565b5b9250929050565b60008060006040848603121561127957611278610f4b565b5b6000611287868287016111e6565b935050602084013567ffffffffffffffff8111156112a8576112a7610f50565b5b6112b48682870161120a565b92509250509250925092565b7f6d61726b6574206973206e6f206c6f6e67657220616374697665000000000000600082015250565b60006112f6601a83611128565b9150611301826112c0565b602082019050919050565b60006020820190508181036000830152611325816112e9565b9050919050565b61133581610f75565b82525050565b6000602082019050611350600083018461132c565b92915050565b61135f81610fe0565b811461136a57600080fd5b50565b60008151905061137c81611356565b92915050565b60006020828403121561139857611397610f4b565b5b60006113a68482850161136d565b91505092915050565b7f75736572206973206e6f74207265676973746572656400000000000000000000600082015250565b60006113e5601683611128565b91506113f0826113af565b602082019050919050565b60006020820190508181036000830152611414816113d8565b9050919050565b7f747269616c2068617320657870697265642c2073756273637269626520746f2060008201527f6d616b652070726564696374696f6e7300000000000000000000000000000000602082015250565b6000611477603083611128565b91506114828261141b565b604082019050919050565b600060208201905081810360008301526114a68161146a565b9050919050565b7f757365722068617320616c726561647920707265646963746564000000000000600082015250565b60006114e3601a83611128565b91506114ee826114ad565b602082019050919050565b60006020820190508181036000830152611512816114d6565b9050919050565b600060808201905061152e600083018761132c565b61153b602083018661132c565b61154860408301856110ad565b6115556060830184611020565b95945050505050565b7f7265736f6c7574696f6e206461746520686173206e6f7420617272697665642060008201527f7965740000000000000000000000000000000000000000000000000000000000602082015250565b60006115ba602383611128565b91506115c58261155e565b604082019050919050565b600060208201905081810360008301526115e9816115ad565b9050919050565b7f4e487b7100000000000000000000000000000000000000000000000000000000600052602260045260246000fd5b6000600282049050600182168061163757607f821691505b60208210810361164a576116496115f0565b5b50919050565b60008151905061165f816111cf565b92915050565b60006020828403121561167b5761167a610f4b565b5b600061168984828501611650565b91505092915050565b7f4e487b7100000000000000000000000000000000000000000000000000000000600052603260045260246000fd5b7f7573657220686173206e6f742070726564696374656400000000000000000000600082015250565b60006116f7601683611128565b9150611702826116c1565b602082019050919050565b60006020820190508181036000830152611726816116ea565b9050919050565b7f796f75206861766520616c726561647920766572696669656420796f7572207060008201527f726564696374696f6e0000000000000000000000000000000000000000000000602082015250565b6000611789602983611128565b91506117948261172d565b604082019050919050565b600060208201905081810360008301526117b88161177c565b9050919050565b600081905092915050565b82818337600083830152505050565b60006117e583856117bf565b93506117f28385846117ca565b82840190509392505050565b600061180b8284866117d9565b91508190509392505050565b7f7375626d697465642077726f6e67207369676e61747572650000000000000000600082015250565b600061184d601883611128565b915061185882611817565b602082019050919050565b6000602082019050818103600083015261187c81611840565b9050919050565b6000819050919050565b61189e61189982611016565b611883565b82525050565b60008160601b9050919050565b60006118bc826118a4565b9050919050565b60006118ce826118b1565b9050919050565b6118e66118e182610f75565b6118c3565b82525050565b60006118f8828661188d565b60208201915061190882856118d5565b60148201915061191882846118d5565b601482019150819050949350505050565b61193281610f75565b82525050565b6119418161104a565b82525050565b600082825260208201905092915050565b60006119648385611947565b93506119718385846117ca565b61197a83611163565b840190509392505050565b600060608201905061199a6000830187611929565b6119a76020830186611938565b81810360408301526119ba818486611958565b905095945050505050565b6119ce81611016565b82525050565b60006080820190506119e960008301876119c5565b6119f660208301866119c5565b611a0360408301856119c5565b611a1060608301846119c5565b9594505050505056fea2646970667358221220c6e0cb08398cdfa963fd0705f36292f7a8b91251eaf686944df195a3c5221a9264736f6c63430008120033",
  "linkReferences": {
    "contracts/libraries/Maths.sol": {
      "Maths": [
        {
          "length": 20,
          "start": 5997
        }
      ]
    },
    "contracts/libraries/SignatureVerifier.sol": {
      "SignatureVerifier": [
        {
          "length": 20,
          "start": 5774
        }
      ]
    }
  },
  "deployedLinkReferences": {
    "contracts/libraries/Maths.sol": {
      "Maths": [
        {
          "length": 20,
          "start": 3708
        }
      ]
    },
    "contracts/libraries/SignatureVerifier.sol": {
      "SignatureVerifier": [
        {
          "length": 20,
          "start": 3485
        }
      ]
    }
  }
}