{
  "_format": "hh-sol-artifact-1",
  "contractName": "ERC948",
  "sourceName": "contracts/subscription/Subscription.sol",
  "abi": [
    {
      "inputs": [
        {
          "internalType": "address",
          "name": "_pythiaFactoryAddress",
          "type": "address"
        },
        {
          "internalType": "address",
          "name": "_subscriptionTokenAddress",
          "type": "address"
        },
        {
          "internalType": "address",
          "name": "_payeeAddress",
          "type": "address"
        },
        {
          "internalType": "uint256",
          "name": "_baseAmountRecurring",
          "type": "uint256"
        }
      ],
      "stateMutability": "nonpayable",
      "type": "constructor"
    },
    {
      "inputs": [],
      "name": "cancelSubscription",
      "outputs": [
        {
          "internalType": "bool",
          "name": "",
          "type": "bool"
        }
      ],
      "stateMutability": "nonpayable",
      "type": "function"
    },
    {
      "inputs": [
        {
          "internalType": "uint256",
          "name": "_periodMultiplier",
          "type": "uint256"
        }
      ],
      "name": "createSubscription",
      "outputs": [],
      "stateMutability": "nonpayable",
      "type": "function"
    },
    {
      "inputs": [
        {
          "internalType": "address",
          "name": "_address",
          "type": "address"
        }
      ],
      "name": "isSubscribed",
      "outputs": [
        {
          "internalType": "bool",
          "name": "",
          "type": "bool"
        }
      ],
      "stateMutability": "view",
      "type": "function"
    },
    {
      "inputs": [
        {
          "internalType": "address",
          "name": "_subscriptionOwner",
          "type": "address"
        }
      ],
      "name": "paymentDue",
      "outputs": [
        {
          "internalType": "bool",
          "name": "",
          "type": "bool"
        }
      ],
      "stateMutability": "view",
      "type": "function"
    },
    {
      "inputs": [
        {
          "internalType": "address",
          "name": "_ownerAddress",
          "type": "address"
        }
      ],
      "name": "processSubscription",
      "outputs": [
        {
          "internalType": "bool",
          "name": "",
          "type": "bool"
        }
      ],
      "stateMutability": "nonpayable",
      "type": "function"
    },
    {
      "inputs": [
        {
          "internalType": "address",
          "name": "",
          "type": "address"
        }
      ],
      "name": "subscriptions",
      "outputs": [
        {
          "internalType": "uint256",
          "name": "periodMultiplier",
          "type": "uint256"
        },
        {
          "internalType": "uint256",
          "name": "startTime",
          "type": "uint256"
        },
        {
          "internalType": "uint256",
          "name": "nextPaymentTime",
          "type": "uint256"
        },
        {
          "internalType": "bool",
          "name": "active",
          "type": "bool"
        }
      ],
      "stateMutability": "view",
      "type": "function"
    }
  ],
  "bytecode": "0x60806040523480156200001157600080fd5b5060405162001395380380620013958339818101604052810190620000379190620001b0565b82600160006101000a81548173ffffffffffffffffffffffffffffffffffffffff021916908373ffffffffffffffffffffffffffffffffffffffff16021790555081600260006101000a81548173ffffffffffffffffffffffffffffffffffffffff021916908373ffffffffffffffffffffffffffffffffffffffff1602179055508060038190555083600460006101000a81548173ffffffffffffffffffffffffffffffffffffffff021916908373ffffffffffffffffffffffffffffffffffffffff1602179055505050505062000222565b600080fd5b600073ffffffffffffffffffffffffffffffffffffffff82169050919050565b60006200013d8262000110565b9050919050565b6200014f8162000130565b81146200015b57600080fd5b50565b6000815190506200016f8162000144565b92915050565b6000819050919050565b6200018a8162000175565b81146200019657600080fd5b50565b600081519050620001aa816200017f565b92915050565b60008060008060808587031215620001cd57620001cc6200010b565b5b6000620001dd878288016200015e565b9450506020620001f0878288016200015e565b935050604062000203878288016200015e565b9250506060620002168782880162000199565b91505092959194509250565b61116380620002326000396000f3fe608060405234801561001057600080fd5b50600436106100625760003560e01c806324e9edb014610067578063366f2d861461008557806338b34251146100b557806359b8ad65146100d1578063b92ae87c14610101578063f046395a14610131575b600080fd5b61006f610164565b60405161007c9190610abf565b60405180910390f35b61009f600480360381019061009a9190610b3d565b610239565b6040516100ac9190610abf565b60405180910390f35b6100cf60048036038101906100ca9190610ba0565b610372565b005b6100eb60048036038101906100e69190610b3d565b61086b565b6040516100f89190610abf565b60405180910390f35b61011b60048036038101906101169190610b3d565b610a0f565b6040516101289190610abf565b60405180910390f35b61014b60048036038101906101469190610b3d565b610a67565b60405161015b9493929190610bdc565b60405180910390f35b6000600115156000803373ffffffffffffffffffffffffffffffffffffffff1673ffffffffffffffffffffffffffffffffffffffff16815260200190815260200160002060030160009054906101000a900460ff161515146101c557600080fd5b6000803373ffffffffffffffffffffffffffffffffffffffff1673ffffffffffffffffffffffffffffffffffffffff168152602001908152602001600020600080820160009055600182016000905560028201600090556003820160006101000a81549060ff021916905550506001905090565b6000806000808473ffffffffffffffffffffffffffffffffffffffff1673ffffffffffffffffffffffffffffffffffffffff1681526020019081526020016000206040518060800160405290816000820154815260200160018201548152602001600282015481526020016003820160009054906101000a900460ff161515151581525050905060011515816060015115151461030b576040517f08c379a000000000000000000000000000000000000000000000000000000000815260040161030290610c7e565b60405180910390fd5b4281602001511115610352576040517f08c379a000000000000000000000000000000000000000000000000000000000815260040161034990610cea565b60405180910390fd5b4281604001511161036757600191505061036d565b60009150505b919050565b600015156000803373ffffffffffffffffffffffffffffffffffffffff1673ffffffffffffffffffffffffffffffffffffffff16815260200190815260200160002060030160009054906101000a900460ff16151514610407576040517f08c379a00000000000000000000000000000000000000000000000000000000081526004016103fe90610d56565b60405180910390fd5b600062278d0060035461041a9190610da5565b905080600160009054906101000a900473ffffffffffffffffffffffffffffffffffffffff1673ffffffffffffffffffffffffffffffffffffffff166370a08231336040518263ffffffff1660e01b81526004016104789190610df6565b602060405180830381865afa158015610495573d6000803e3d6000fd5b505050506040513d601f19601f820116820180604052508101906104b99190610e26565b10156104fa576040517f08c379a00000000000000000000000000000000000000000000000000000000081526004016104f190610ec5565b60405180910390fd5b80600160009054906101000a900473ffffffffffffffffffffffffffffffffffffffff1673ffffffffffffffffffffffffffffffffffffffff1663dd62ed3e33306040518363ffffffff1660e01b8152600401610558929190610ee5565b602060405180830381865afa158015610575573d6000803e3d6000fd5b505050506040513d601f19601f820116820180604052508101906105999190610e26565b10156105da576040517f08c379a00000000000000000000000000000000000000000000000000000000081526004016105d190610f80565b60405180910390fd5b816000803373ffffffffffffffffffffffffffffffffffffffff1673ffffffffffffffffffffffffffffffffffffffff16815260200190815260200160002060000181905550426000803373ffffffffffffffffffffffffffffffffffffffff1673ffffffffffffffffffffffffffffffffffffffff1681526020019081526020016000206001018190555060016000803373ffffffffffffffffffffffffffffffffffffffff1673ffffffffffffffffffffffffffffffffffffffff16815260200190815260200160002060030160006101000a81548160ff02191690831515021790555081426106cc9190610fa0565b6000803373ffffffffffffffffffffffffffffffffffffffff1673ffffffffffffffffffffffffffffffffffffffff16815260200190815260200160002060020181905550600160009054906101000a900473ffffffffffffffffffffffffffffffffffffffff1673ffffffffffffffffffffffffffffffffffffffff166323b872dd33600260009054906101000a900473ffffffffffffffffffffffffffffffffffffffff16846040518463ffffffff1660e01b815260040161079293929190610fd4565b6020604051808303816000875af11580156107b1573d6000803e3d6000fd5b505050506040513d601f19601f820116820180604052508101906107d59190611037565b50600460009054906101000a900473ffffffffffffffffffffffffffffffffffffffff1673ffffffffffffffffffffffffffffffffffffffff1663513450e53384426040518463ffffffff1660e01b815260040161083593929190611064565b600060405180830381600087803b15801561084f57600080fd5b505af1158015610863573d6000803e3d6000fd5b505050505050565b6000806000808473ffffffffffffffffffffffffffffffffffffffff1673ffffffffffffffffffffffffffffffffffffffff1681526020019081526020016000209050600060035482600001546108c29190610da5565b90506108cd84610239565b61090c576040517f08c379a00000000000000000000000000000000000000000000000000000000081526004016109039061110d565b60405180910390fd5b600160009054906101000a900473ffffffffffffffffffffffffffffffffffffffff1673ffffffffffffffffffffffffffffffffffffffff166323b872dd85600260009054906101000a900473ffffffffffffffffffffffffffffffffffffffff16846040518463ffffffff1660e01b815260040161098d93929190610fd4565b6020604051808303816000875af11580156109ac573d6000803e3d6000fd5b505050506040513d601f19601f820116820180604052508101906109d09190611037565b50600062278d0083600001546109e69190610da5565b9050808360020160008282546109fc9190610fa0565b9250508190555060019350505050919050565b60008060008373ffffffffffffffffffffffffffffffffffffffff1673ffffffffffffffffffffffffffffffffffffffff16815260200190815260200160002060030160009054906101000a900460ff169050919050565b60006020528060005260406000206000915090508060000154908060010154908060020154908060030160009054906101000a900460ff16905084565b60008115159050919050565b610ab981610aa4565b82525050565b6000602082019050610ad46000830184610ab0565b92915050565b600080fd5b600073ffffffffffffffffffffffffffffffffffffffff82169050919050565b6000610b0a82610adf565b9050919050565b610b1a81610aff565b8114610b2557600080fd5b50565b600081359050610b3781610b11565b92915050565b600060208284031215610b5357610b52610ada565b5b6000610b6184828501610b28565b91505092915050565b6000819050919050565b610b7d81610b6a565b8114610b8857600080fd5b50565b600081359050610b9a81610b74565b92915050565b600060208284031215610bb657610bb5610ada565b5b6000610bc484828501610b8b565b91505092915050565b610bd681610b6a565b82525050565b6000608082019050610bf16000830187610bcd565b610bfe6020830186610bcd565b610c0b6040830185610bcd565b610c186060830184610ab0565b95945050505050565b600082825260208201905092915050565b7f4e6f7420616e2061637469766520737562736372697074696f6e000000000000600082015250565b6000610c68601a83610c21565b9150610c7382610c32565b602082019050919050565b60006020820190508181036000830152610c9781610c5b565b9050919050565b7f537562736372697074696f6e20686173206e6f74207374617274656420796574600082015250565b6000610cd4602083610c21565b9150610cdf82610c9e565b602082019050919050565b60006020820190508181036000830152610d0381610cc7565b9050919050565b7f737562736372697074696f6e20616c7265616479206578697374730000000000600082015250565b6000610d40601b83610c21565b9150610d4b82610d0a565b602082019050919050565b60006020820190508181036000830152610d6f81610d33565b9050919050565b7f4e487b7100000000000000000000000000000000000000000000000000000000600052601160045260246000fd5b6000610db082610b6a565b9150610dbb83610b6a565b9250828202610dc981610b6a565b91508282048414831517610de057610ddf610d76565b5b5092915050565b610df081610aff565b82525050565b6000602082019050610e0b6000830184610de7565b92915050565b600081519050610e2081610b74565b92915050565b600060208284031215610e3c57610e3b610ada565b5b6000610e4a84828501610e11565b91505092915050565b7f496e73756666696369656e742062616c616e636520666f7220696e697469616c60008201527f202b20317820726563757272696e6720616d6f756e7400000000000000000000602082015250565b6000610eaf603683610c21565b9150610eba82610e53565b604082019050919050565b60006020820190508181036000830152610ede81610ea2565b9050919050565b6000604082019050610efa6000830185610de7565b610f076020830184610de7565b9392505050565b7f496e73756666696369656e7420617070726f76616c20666f7220696e6974696160008201527f6c202b20317820726563757272696e6720616d6f756e74000000000000000000602082015250565b6000610f6a603783610c21565b9150610f7582610f0e565b604082019050919050565b60006020820190508181036000830152610f9981610f5d565b9050919050565b6000610fab82610b6a565b9150610fb683610b6a565b9250828201905080821115610fce57610fcd610d76565b5b92915050565b6000606082019050610fe96000830186610de7565b610ff66020830185610de7565b6110036040830184610bcd565b949350505050565b61101481610aa4565b811461101f57600080fd5b50565b6000815190506110318161100b565b92915050565b60006020828403121561104d5761104c610ada565b5b600061105b84828501611022565b91505092915050565b60006060820190506110796000830186610de7565b6110866020830185610bcd565b6110936040830184610bcd565b949350505050565b7f41205061796d656e74206973206e6f742064756520666f72207468697320737560008201527f62736372697074696f6e00000000000000000000000000000000000000000000602082015250565b60006110f7602a83610c21565b91506111028261109b565b604082019050919050565b60006020820190508181036000830152611126816110ea565b905091905056fea2646970667358221220b2a6c5502201115283b06de12df0428f9530ce6beb5a1dad32998245b72294be64736f6c63430008120033",
  "linkReferences": {},
  "deployedLinkReferences": {}
}