{
  "_format": "hh-sol-artifact-1",
  "contractName": "SignatureVerifier",
  "sourceName": "contracts/libraries/SignatureVerifier.sol",
  "abi": [
    {
      "inputs": [
        {
          "internalType": "address",
          "name": "_signer",
          "type": "address"
        },
        {
          "internalType": "bytes32",
          "name": "_message",
          "type": "bytes32"
        },
        {
          "internalType": "bytes",
          "name": "signature",
          "type": "bytes"
        }
      ],
      "name": "verify",
      "outputs": [
        {
          "internalType": "bool",
          "name": "",
          "type": "bool"
        }
      ],
      "stateMutability": "pure",
      "type": "function"
    }
  ],
  "bytecode": "0x610615610053600b82828239805160001a607314610046577f4e487b7100000000000000000000000000000000000000000000000000000000600052600060045260246000fd5b30600052607381538281f3fe73000000000000000000000000000000000000000030146080604052600436106100355760003560e01c80631a86b5501461003a575b600080fd5b610054600480360381019061004f91906103af565b61006a565b6040516100619190610439565b60405180910390f35b600080610076846100ba565b90508473ffffffffffffffffffffffffffffffffffffffff1661009982856100ea565b73ffffffffffffffffffffffffffffffffffffffff16149150509392505050565b6000816040516020016100cd91906104cc565b604051602081830303815290604052805190602001209050919050565b6000806000806100f985610159565b92509250925060018682858560405160008152602001604052604051610122949392919061051d565b6020604051602081039080840390855afa158015610144573d6000803e3d6000fd5b50505060206040510351935050505092915050565b600080600060418451146101a2576040517f08c379a0000000000000000000000000000000000000000000000000000000008152600401610199906105bf565b60405180910390fd5b6020840151925060408401519150606084015160001a90509193909250565b6000604051905090565b600080fd5b600080fd5b600073ffffffffffffffffffffffffffffffffffffffff82169050919050565b6000610200826101d5565b9050919050565b610210816101f5565b811461021b57600080fd5b50565b60008135905061022d81610207565b92915050565b6000819050919050565b61024681610233565b811461025157600080fd5b50565b6000813590506102638161023d565b92915050565b600080fd5b600080fd5b6000601f19601f8301169050919050565b7f4e487b7100000000000000000000000000000000000000000000000000000000600052604160045260246000fd5b6102bc82610273565b810181811067ffffffffffffffff821117156102db576102da610284565b5b80604052505050565b60006102ee6101c1565b90506102fa82826102b3565b919050565b600067ffffffffffffffff82111561031a57610319610284565b5b61032382610273565b9050602081019050919050565b82818337600083830152505050565b600061035261034d846102ff565b6102e4565b90508281526020810184848401111561036e5761036d61026e565b5b610379848285610330565b509392505050565b600082601f83011261039657610395610269565b5b81356103a684826020860161033f565b91505092915050565b6000806000606084860312156103c8576103c76101cb565b5b60006103d68682870161021e565b93505060206103e786828701610254565b925050604084013567ffffffffffffffff811115610408576104076101d0565b5b61041486828701610381565b9150509250925092565b60008115159050919050565b6104338161041e565b82525050565b600060208201905061044e600083018461042a565b92915050565b600081905092915050565b7f19457468657265756d205369676e6564204d6573736167653a0a333200000000600082015250565b6000610495601c83610454565b91506104a08261045f565b601c82019050919050565b6000819050919050565b6104c66104c182610233565b6104ab565b82525050565b60006104d782610488565b91506104e382846104b5565b60208201915081905092915050565b6104fb81610233565b82525050565b600060ff82169050919050565b61051781610501565b82525050565b600060808201905061053260008301876104f2565b61053f602083018661050e565b61054c60408301856104f2565b61055960608301846104f2565b95945050505050565b600082825260208201905092915050565b7f696e76616c6964207369676e6174757265206c656e6774680000000000000000600082015250565b60006105a9601883610562565b91506105b482610573565b602082019050919050565b600060208201905081810360008301526105d88161059c565b905091905056fea2646970667358221220d2e69c2088bb1365013ff49663ee6c2306bec63393956b7d4caf85c7c9627c2864736f6c63430008120033",
  "linkReferences": {},
  "deployedLinkReferences": {}
}