{
  "_format": "hh-sol-artifact-1",
  "contractName": "ReputationToken",
  "sourceName": "contracts/tokens/ReputationToken.sol",
  "abi": [
    {
      "inputs": [
        {
          "internalType": "string",
          "name": "_name",
          "type": "string"
        },
        {
          "internalType": "string",
          "name": "_symbol",
          "type": "string"
        }
      ],
      "stateMutability": "nonpayable",
      "type": "constructor"
    },
    {
      "anonymous": false,
      "inputs": [
        {
          "indexed": true,
          "internalType": "address",
          "name": "_operator",
          "type": "address"
        }
      ],
      "name": "NewOperator",
      "type": "event"
    },
    {
      "anonymous": false,
      "inputs": [
        {
          "indexed": true,
          "internalType": "address",
          "name": "previousOwner",
          "type": "address"
        },
        {
          "indexed": true,
          "internalType": "address",
          "name": "newOwner",
          "type": "address"
        }
      ],
      "name": "OwnershipTransferred",
      "type": "event"
    },
    {
      "anonymous": false,
      "inputs": [
        {
          "indexed": false,
          "internalType": "address",
          "name": "_rated",
          "type": "address"
        },
        {
          "indexed": false,
          "internalType": "uint256",
          "name": "_rating",
          "type": "uint256"
        }
      ],
      "name": "Rating",
      "type": "event"
    },
    {
      "inputs": [],
      "name": "owner",
      "outputs": [
        {
          "internalType": "address",
          "name": "",
          "type": "address"
        }
      ],
      "stateMutability": "view",
      "type": "function"
    },
    {
      "inputs": [
        {
          "internalType": "address",
          "name": "_rated",
          "type": "address"
        },
        {
          "internalType": "uint256",
          "name": "_rating",
          "type": "uint256"
        }
      ],
      "name": "rate",
      "outputs": [],
      "stateMutability": "nonpayable",
      "type": "function"
    },
    {
      "inputs": [
        {
          "internalType": "address",
          "name": "_rated",
          "type": "address"
        }
      ],
      "name": "ratingOf",
      "outputs": [
        {
          "internalType": "uint256",
          "name": "",
          "type": "uint256"
        }
      ],
      "stateMutability": "view",
      "type": "function"
    },
    {
      "inputs": [],
      "name": "renounceOwnership",
      "outputs": [],
      "stateMutability": "nonpayable",
      "type": "function"
    },
    {
      "inputs": [
        {
          "internalType": "address",
          "name": "newOwner",
          "type": "address"
        }
      ],
      "name": "transferOwnership",
      "outputs": [],
      "stateMutability": "nonpayable",
      "type": "function"
    }
  ],
  "bytecode": "0x60806040523480156200001157600080fd5b5060405162000dae38038062000dae8339818101604052810190620000379190620002e2565b620000576200004b6200008360201b60201c565b6200008b60201b60201c565b8160019081620000689190620005b2565b5080600290816200007a9190620005b2565b50505062000699565b600033905090565b60008060009054906101000a900473ffffffffffffffffffffffffffffffffffffffff169050816000806101000a81548173ffffffffffffffffffffffffffffffffffffffff021916908373ffffffffffffffffffffffffffffffffffffffff1602179055508173ffffffffffffffffffffffffffffffffffffffff168173ffffffffffffffffffffffffffffffffffffffff167f8be0079c531659141344cd1fd0a4f28419497f9722a3daafe3b4186f6b6457e060405160405180910390a35050565b6000604051905090565b600080fd5b600080fd5b600080fd5b600080fd5b6000601f19601f8301169050919050565b7f4e487b7100000000000000000000000000000000000000000000000000000000600052604160045260246000fd5b620001b8826200016d565b810181811067ffffffffffffffff82111715620001da57620001d96200017e565b5b80604052505050565b6000620001ef6200014f565b9050620001fd8282620001ad565b919050565b600067ffffffffffffffff82111562000220576200021f6200017e565b5b6200022b826200016d565b9050602081019050919050565b60005b83811015620002585780820151818401526020810190506200023b565b60008484015250505050565b60006200027b620002758462000202565b620001e3565b9050828152602081018484840111156200029a576200029962000168565b5b620002a784828562000238565b509392505050565b600082601f830112620002c757620002c662000163565b5b8151620002d984826020860162000264565b91505092915050565b60008060408385031215620002fc57620002fb62000159565b5b600083015167ffffffffffffffff8111156200031d576200031c6200015e565b5b6200032b85828601620002af565b925050602083015167ffffffffffffffff8111156200034f576200034e6200015e565b5b6200035d85828601620002af565b9150509250929050565b600081519050919050565b7f4e487b7100000000000000000000000000000000000000000000000000000000600052602260045260246000fd5b60006002820490506001821680620003ba57607f821691505b602082108103620003d057620003cf62000372565b5b50919050565b60008190508160005260206000209050919050565b60006020601f8301049050919050565b600082821b905092915050565b6000600883026200043a7fffffffffffffffffffffffffffffffffffffffffffffffffffffffffffffffff82620003fb565b620004468683620003fb565b95508019841693508086168417925050509392505050565b6000819050919050565b6000819050919050565b6000620004936200048d62000487846200045e565b62000468565b6200045e565b9050919050565b6000819050919050565b620004af8362000472565b620004c7620004be826200049a565b84845462000408565b825550505050565b600090565b620004de620004cf565b620004eb818484620004a4565b505050565b5b81811015620005135762000507600082620004d4565b600181019050620004f1565b5050565b601f82111562000562576200052c81620003d6565b6200053784620003eb565b8101602085101562000547578190505b6200055f6200055685620003eb565b830182620004f0565b50505b505050565b600082821c905092915050565b6000620005876000198460080262000567565b1980831691505092915050565b6000620005a2838362000574565b9150826002028217905092915050565b620005bd8262000367565b67ffffffffffffffff811115620005d957620005d86200017e565b5b620005e58254620003a1565b620005f282828562000517565b600060209050601f8311600181146200062a576000841562000615578287015190505b62000621858262000594565b86555062000691565b601f1984166200063a86620003d6565b60005b8281101562000664578489015182556001820191506020850194506020810190506200063d565b8683101562000684578489015162000680601f89168262000574565b8355505b6001600288020188555050505b505050505050565b61070580620006a96000396000f3fe608060405234801561001057600080fd5b50600436106100575760003560e01c80636205f4c51461005c578063715018a61461008c5780638da5cb5b14610096578063b624633c146100b4578063f2fde38b146100d0575b600080fd5b6100766004803603810190610071919061043d565b6100ec565b6040516100839190610483565b60405180910390f35b610094610135565b005b61009e610149565b6040516100ab91906104ad565b60405180910390f35b6100ce60048036038101906100c991906104f4565b610172565b005b6100ea60048036038101906100e5919061043d565b61020d565b005b6000600360008373ffffffffffffffffffffffffffffffffffffffff1673ffffffffffffffffffffffffffffffffffffffff168152602001908152602001600020549050919050565b61013d610290565b610147600061030e565b565b60008060009054906101000a900473ffffffffffffffffffffffffffffffffffffffff16905090565b61017a610290565b80600360008473ffffffffffffffffffffffffffffffffffffffff1673ffffffffffffffffffffffffffffffffffffffff16815260200190815260200160002060008282546101c99190610563565b925050819055507fad9a58c713ca2c41da93a06db0129643d25bed4ac2c4893b86987e9f1da7048e8282604051610201929190610597565b60405180910390a15050565b610215610290565b600073ffffffffffffffffffffffffffffffffffffffff168173ffffffffffffffffffffffffffffffffffffffff1603610284576040517f08c379a000000000000000000000000000000000000000000000000000000000815260040161027b90610643565b60405180910390fd5b61028d8161030e565b50565b6102986103d2565b73ffffffffffffffffffffffffffffffffffffffff166102b6610149565b73ffffffffffffffffffffffffffffffffffffffff161461030c576040517f08c379a0000000000000000000000000000000000000000000000000000000008152600401610303906106af565b60405180910390fd5b565b60008060009054906101000a900473ffffffffffffffffffffffffffffffffffffffff169050816000806101000a81548173ffffffffffffffffffffffffffffffffffffffff021916908373ffffffffffffffffffffffffffffffffffffffff1602179055508173ffffffffffffffffffffffffffffffffffffffff168173ffffffffffffffffffffffffffffffffffffffff167f8be0079c531659141344cd1fd0a4f28419497f9722a3daafe3b4186f6b6457e060405160405180910390a35050565b600033905090565b600080fd5b600073ffffffffffffffffffffffffffffffffffffffff82169050919050565b600061040a826103df565b9050919050565b61041a816103ff565b811461042557600080fd5b50565b60008135905061043781610411565b92915050565b600060208284031215610453576104526103da565b5b600061046184828501610428565b91505092915050565b6000819050919050565b61047d8161046a565b82525050565b60006020820190506104986000830184610474565b92915050565b6104a7816103ff565b82525050565b60006020820190506104c2600083018461049e565b92915050565b6104d18161046a565b81146104dc57600080fd5b50565b6000813590506104ee816104c8565b92915050565b6000806040838503121561050b5761050a6103da565b5b600061051985828601610428565b925050602061052a858286016104df565b9150509250929050565b7f4e487b7100000000000000000000000000000000000000000000000000000000600052601160045260246000fd5b600061056e8261046a565b91506105798361046a565b925082820190508082111561059157610590610534565b5b92915050565b60006040820190506105ac600083018561049e565b6105b96020830184610474565b9392505050565b600082825260208201905092915050565b7f4f776e61626c653a206e6577206f776e657220697320746865207a65726f206160008201527f6464726573730000000000000000000000000000000000000000000000000000602082015250565b600061062d6026836105c0565b9150610638826105d1565b604082019050919050565b6000602082019050818103600083015261065c81610620565b9050919050565b7f4f776e61626c653a2063616c6c6572206973206e6f7420746865206f776e6572600082015250565b60006106996020836105c0565b91506106a482610663565b602082019050919050565b600060208201905081810360008301526106c88161068c565b905091905056fea26469706673582212205c28a1acd7ab52c6f162903182714452bb1e86e9efd067ebbcd731498220255064736f6c63430008120033",
  "linkReferences": {},
  "deployedLinkReferences": {}
}