{
  "_format": "hh-sol-artifact-1",
  "contractName": "PythiaFactory",
  "sourceName": "contracts/PythiaFactory.sol",
  "abi": [
    {
      "inputs": [
        {
          "internalType": "uint256",
          "name": "_trialPeriodDays",
          "type": "uint256"
        },
        {
          "internalType": "address",
          "name": "_subscriptionTokenAddress",
          "type": "address"
        },
        {
          "internalType": "address",
          "name": "_treasuryAddress",
          "type": "address"
        },
        {
          "internalType": "uint256",
          "name": "_baseAmountRecurring",
          "type": "uint256"
        }
      ],
      "stateMutability": "nonpayable",
      "type": "constructor"
    },
    {
      "anonymous": false,
      "inputs": [
        {
          "indexed": true,
          "internalType": "address",
          "name": "owner",
          "type": "address"
        },
        {
          "indexed": true,
          "internalType": "address",
          "name": "approved",
          "type": "address"
        },
        {
          "indexed": true,
          "internalType": "uint256",
          "name": "tokenId",
          "type": "uint256"
        }
      ],
      "name": "Approval",
      "type": "event"
    },
    {
      "anonymous": false,
      "inputs": [
        {
          "indexed": true,
          "internalType": "address",
          "name": "owner",
          "type": "address"
        },
        {
          "indexed": true,
          "internalType": "address",
          "name": "operator",
          "type": "address"
        },
        {
          "indexed": false,
          "internalType": "bool",
          "name": "approved",
          "type": "bool"
        }
      ],
      "name": "ApprovalForAll",
      "type": "event"
    },
    {
      "anonymous": false,
      "inputs": [
        {
          "indexed": false,
          "internalType": "address",
          "name": "_pythiaFactoryAddress",
          "type": "address"
        },
        {
          "indexed": false,
          "internalType": "address",
          "name": "_subscriptionTokenAddress",
          "type": "address"
        },
        {
          "indexed": false,
          "internalType": "address",
          "name": "_payeeAddress",
          "type": "address"
        },
        {
          "indexed": false,
          "internalType": "uint256",
          "name": "_baseAmountRecurring",
          "type": "uint256"
        },
        {
          "indexed": false,
          "internalType": "uint256",
          "name": "_creationDate",
          "type": "uint256"
        }
      ],
      "name": "ERC948Deployed",
      "type": "event"
    },
    {
      "anonymous": false,
      "inputs": [
        {
          "indexed": true,
          "internalType": "address",
          "name": "_address",
          "type": "address"
        },
        {
          "indexed": false,
          "internalType": "uint256",
          "name": "_answer",
          "type": "uint256"
        },
        {
          "indexed": false,
          "internalType": "uint256",
          "name": "_resolutionDate",
          "type": "uint256"
        }
      ],
      "name": "MarketResolved",
      "type": "event"
    },
    {
      "anonymous": false,
      "inputs": [
        {
          "indexed": true,
          "internalType": "address",
          "name": "previousOwner",
          "type": "address"
        },
        {
          "indexed": true,
          "internalType": "address",
          "name": "newOwner",
          "type": "address"
        }
      ],
      "name": "OwnershipTransferred",
      "type": "event"
    },
    {
      "anonymous": false,
      "inputs": [
        {
          "indexed": true,
          "internalType": "address",
          "name": "_user",
          "type": "address"
        },
        {
          "indexed": true,
          "internalType": "address",
          "name": "_market",
          "type": "address"
        },
        {
          "indexed": false,
          "internalType": "bytes32",
          "name": "_prediction",
          "type": "bytes32"
        },
        {
          "indexed": false,
          "internalType": "uint256",
          "name": "_predictionDate",
          "type": "uint256"
        }
      ],
      "name": "PredictionCreated",
      "type": "event"
    },
    {
      "anonymous": false,
      "inputs": [
        {
          "indexed": true,
          "internalType": "address",
          "name": "_address",
          "type": "address"
        },
        {
          "indexed": false,
          "internalType": "uint256",
          "name": "_creationTimestamp",
          "type": "uint256"
        },
        {
          "indexed": false,
          "internalType": "string",
          "name": "_question",
          "type": "string"
        },
        {
          "indexed": false,
          "internalType": "uint256[5]",
          "name": "_options",
          "type": "uint256[5]"
        },
        {
          "indexed": false,
          "internalType": "uint256",
          "name": "_numberOfOutcomes",
          "type": "uint256"
        },
        {
          "indexed": false,
          "internalType": "uint256",
          "name": "_wageDeadline",
          "type": "uint256"
        },
        {
          "indexed": false,
          "internalType": "uint256",
          "name": "_resolutionDate",
          "type": "uint256"
        },
        {
          "indexed": false,
          "internalType": "address",
          "name": "_reputationTokenAddress",
          "type": "address"
        }
      ],
      "name": "PriceFeedsMarketCreated",
      "type": "event"
    },
    {
      "anonymous": false,
      "inputs": [
        {
          "indexed": true,
          "internalType": "address",
          "name": "_address",
          "type": "address"
        },
        {
          "indexed": false,
          "internalType": "uint256",
          "name": "_creationDate",
          "type": "uint256"
        },
        {
          "indexed": false,
          "internalType": "string",
          "name": "_question",
          "type": "string"
        },
        {
          "indexed": false,
          "internalType": "uint256",
          "name": "_wageDeadline",
          "type": "uint256"
        },
        {
          "indexed": false,
          "internalType": "uint256",
          "name": "_resolutionDate",
          "type": "uint256"
        },
        {
          "indexed": false,
          "internalType": "address",
          "name": "_reputationTokenAddress",
          "type": "address"
        },
        {
          "indexed": false,
          "internalType": "uint256",
          "name": "_template",
          "type": "uint256"
        }
      ],
      "name": "RealityETHMarketCreated",
      "type": "event"
    },
    {
      "anonymous": false,
      "inputs": [
        {
          "indexed": true,
          "internalType": "address",
          "name": "_address",
          "type": "address"
        },
        {
          "indexed": false,
          "internalType": "string",
          "name": "_topic",
          "type": "string"
        },
        {
          "indexed": false,
          "internalType": "string",
          "name": "_symbol",
          "type": "string"
        },
        {
          "indexed": false,
          "internalType": "uint256",
          "name": "_creationDate",
          "type": "uint256"
        }
      ],
      "name": "ReputationTokenCreated",
      "type": "event"
    },
    {
      "anonymous": false,
      "inputs": [
        {
          "indexed": true,
          "internalType": "address",
          "name": "_user",
          "type": "address"
        },
        {
          "indexed": true,
          "internalType": "address",
          "name": "_market",
          "type": "address"
        },
        {
          "indexed": false,
          "internalType": "uint256",
          "name": "_reputation",
          "type": "uint256"
        },
        {
          "indexed": false,
          "internalType": "uint256",
          "name": "_decodedPrediction",
          "type": "uint256"
        },
        {
          "indexed": false,
          "internalType": "uint256",
          "name": "_reputationCollectionDate",
          "type": "uint256"
        }
      ],
      "name": "ReputationTransactionSent",
      "type": "event"
    },
    {
      "anonymous": false,
      "inputs": [
        {
          "indexed": true,
          "internalType": "address",
          "name": "_user",
          "type": "address"
        },
        {
          "indexed": false,
          "internalType": "uint256",
          "name": "_periodMultiplier",
          "type": "uint256"
        },
        {
          "indexed": false,
          "internalType": "uint256",
          "name": "_startDate",
          "type": "uint256"
        }
      ],
      "name": "SubscriptionCreated",
      "type": "event"
    },
    {
      "anonymous": false,
      "inputs": [
        {
          "indexed": true,
          "internalType": "address",
          "name": "from",
          "type": "address"
        },
        {
          "indexed": true,
          "internalType": "address",
          "name": "to",
          "type": "address"
        },
        {
          "indexed": true,
          "internalType": "uint256",
          "name": "tokenId",
          "type": "uint256"
        }
      ],
      "name": "Transfer",
      "type": "event"
    },
    {
      "anonymous": false,
      "inputs": [
        {
          "indexed": true,
          "internalType": "address",
          "name": "_address",
          "type": "address"
        },
        {
          "indexed": false,
          "internalType": "uint256",
          "name": "_registrationDate",
          "type": "uint256"
        }
      ],
      "name": "UserCreated",
      "type": "event"
    },
    {
      "inputs": [
        {
          "internalType": "address",
          "name": "to",
          "type": "address"
        },
        {
          "internalType": "uint256",
          "name": "tokenId",
          "type": "uint256"
        }
      ],
      "name": "approve",
      "outputs": [],
      "stateMutability": "nonpayable",
      "type": "function"
    },
    {
      "inputs": [
        {
          "internalType": "address",
          "name": "owner",
          "type": "address"
        }
      ],
      "name": "balanceOf",
      "outputs": [
        {
          "internalType": "uint256",
          "name": "",
          "type": "uint256"
        }
      ],
      "stateMutability": "view",
      "type": "function"
    },
    {
      "inputs": [],
      "name": "createAccount",
      "outputs": [],
      "stateMutability": "nonpayable",
      "type": "function"
    },
    {
      "inputs": [
        {
          "internalType": "string",
          "name": "_question",
          "type": "string"
        },
        {
          "internalType": "uint256[5]",
          "name": "_outcomes",
          "type": "uint256[5]"
        },
        {
          "internalType": "uint256",
          "name": "_numberOfOutcomes",
          "type": "uint256"
        },
        {
          "internalType": "uint256",
          "name": "_wageDeadline",
          "type": "uint256"
        },
        {
          "internalType": "uint256",
          "name": "_resolutionDate",
          "type": "uint256"
        },
        {
          "internalType": "address",
          "name": "_priceFeedAddress",
          "type": "address"
        },
        {
          "internalType": "address",
          "name": "_priceFeederAddress",
          "type": "address"
        },
        {
          "internalType": "address",
          "name": "_reputationTokenAddress",
          "type": "address"
        }
      ],
      "name": "createPriceFeedsMarket",
      "outputs": [],
      "stateMutability": "nonpayable",
      "type": "function"
    },
    {
      "inputs": [
        {
          "internalType": "string",
          "name": "_question",
          "type": "string"
        },
        {
          "internalType": "uint256",
          "name": "_numberOfOutcomes",
          "type": "uint256"
        },
        {
          "internalType": "uint256",
          "name": "_wageDeadline",
          "type": "uint256"
        },
        {
          "internalType": "uint256",
          "name": "_resolutionDate",
          "type": "uint256"
        },
        {
          "internalType": "uint256",
          "name": "_template_id",
          "type": "uint256"
        },
        {
          "internalType": "address",
          "name": "_arbitrator",
          "type": "address"
        },
        {
          "internalType": "uint32",
          "name": "_timeout",
          "type": "uint32"
        },
        {
          "internalType": "uint256",
          "name": "_nonce",
          "type": "uint256"
        },
        {
          "internalType": "address",
          "name": "_realityEthAddress",
          "type": "address"
        },
        {
          "internalType": "uint256",
          "name": "_min_bond",
          "type": "uint256"
        },
        {
          "internalType": "address",
          "name": "_reputationTokenAddress",
          "type": "address"
        }
      ],
      "name": "createRealityEthMarket",
      "outputs": [],
      "stateMutability": "nonpayable",
      "type": "function"
    },
    {
      "inputs": [
        {
          "internalType": "string",
          "name": "_topic",
          "type": "string"
        },
        {
          "internalType": "string",
          "name": "_symbol",
          "type": "string"
        }
      ],
      "name": "deployReputationToken",
      "outputs": [],
      "stateMutability": "nonpayable",
      "type": "function"
    },
    {
      "inputs": [
        {
          "internalType": "uint256",
          "name": "tokenId",
          "type": "uint256"
        }
      ],
      "name": "getApproved",
      "outputs": [
        {
          "internalType": "address",
          "name": "",
          "type": "address"
        }
      ],
      "stateMutability": "view",
      "type": "function"
    },
    {
      "inputs": [
        {
          "internalType": "address",
          "name": "owner",
          "type": "address"
        },
        {
          "internalType": "address",
          "name": "operator",
          "type": "address"
        }
      ],
      "name": "isApprovedForAll",
      "outputs": [
        {
          "internalType": "bool",
          "name": "",
          "type": "bool"
        }
      ],
      "stateMutability": "view",
      "type": "function"
    },
    {
      "inputs": [
        {
          "internalType": "address",
          "name": "_user",
          "type": "address"
        }
      ],
      "name": "isInTrial",
      "outputs": [
        {
          "internalType": "bool",
          "name": "",
          "type": "bool"
        }
      ],
      "stateMutability": "view",
      "type": "function"
    },
    {
      "inputs": [
        {
          "internalType": "address",
          "name": "_user",
          "type": "address"
        }
      ],
      "name": "isSubscribed",
      "outputs": [
        {
          "internalType": "bool",
          "name": "",
          "type": "bool"
        }
      ],
      "stateMutability": "view",
      "type": "function"
    },
    {
      "inputs": [
        {
          "internalType": "address",
          "name": "_user",
          "type": "address"
        }
      ],
      "name": "isUser",
      "outputs": [
        {
          "internalType": "bool",
          "name": "",
          "type": "bool"
        }
      ],
      "stateMutability": "view",
      "type": "function"
    },
    {
      "inputs": [
        {
          "internalType": "address",
          "name": "_market",
          "type": "address"
        }
      ],
      "name": "logMarketResolved",
      "outputs": [],
      "stateMutability": "nonpayable",
      "type": "function"
    },
    {
      "inputs": [
        {
          "internalType": "address",
          "name": "_user",
          "type": "address"
        },
        {
          "internalType": "address",
          "name": "_market",
          "type": "address"
        },
        {
          "internalType": "bytes32",
          "name": "_prediction",
          "type": "bytes32"
        },
        {
          "internalType": "uint256",
          "name": "_predictionTimestamp",
          "type": "uint256"
        }
      ],
      "name": "logNewPrediction",
      "outputs": [],
      "stateMutability": "nonpayable",
      "type": "function"
    },
    {
      "inputs": [
        {
          "internalType": "address",
          "name": "_ownerAddress",
          "type": "address"
        },
        {
          "internalType": "uint256",
          "name": "_periodMultiplier",
          "type": "uint256"
        },
        {
          "internalType": "uint256",
          "name": "_startTime",
          "type": "uint256"
        }
      ],
      "name": "logNewSubscription",
      "outputs": [],
      "stateMutability": "nonpayable",
      "type": "function"
    },
    {
      "inputs": [],
      "name": "name",
      "outputs": [
        {
          "internalType": "string",
          "name": "",
          "type": "string"
        }
      ],
      "stateMutability": "view",
      "type": "function"
    },
    {
      "inputs": [],
      "name": "owner",
      "outputs": [
        {
          "internalType": "address",
          "name": "",
          "type": "address"
        }
      ],
      "stateMutability": "view",
      "type": "function"
    },
    {
      "inputs": [
        {
          "internalType": "uint256",
          "name": "tokenId",
          "type": "uint256"
        }
      ],
      "name": "ownerOf",
      "outputs": [
        {
          "internalType": "address",
          "name": "",
          "type": "address"
        }
      ],
      "stateMutability": "view",
      "type": "function"
    },
    {
      "inputs": [
        {
          "internalType": "address",
          "name": "_marketAddress",
          "type": "address"
        },
        {
          "internalType": "uint256",
          "name": "_decodedPrediction",
          "type": "uint256"
        },
        {
          "internalType": "bytes",
          "name": "_signature",
          "type": "bytes"
        }
      ],
      "name": "receiveReputation",
      "outputs": [],
      "stateMutability": "nonpayable",
      "type": "function"
    },
    {
      "inputs": [
        {
          "internalType": "address[]",
          "name": "marketAdresses",
          "type": "address[]"
        },
        {
          "internalType": "uint256[]",
          "name": "decodedPredictions",
          "type": "uint256[]"
        },
        {
          "internalType": "bytes[]",
          "name": "signatures",
          "type": "bytes[]"
        }
      ],
      "name": "receiveReputationMultipleMarkets",
      "outputs": [
        {
          "internalType": "bool",
          "name": "",
          "type": "bool"
        }
      ],
      "stateMutability": "nonpayable",
      "type": "function"
    },
    {
      "inputs": [],
      "name": "renounceOwnership",
      "outputs": [],
      "stateMutability": "nonpayable",
      "type": "function"
    },
    {
      "inputs": [
        {
          "internalType": "address",
          "name": "from",
          "type": "address"
        },
        {
          "internalType": "address",
          "name": "to",
          "type": "address"
        },
        {
          "internalType": "uint256",
          "name": "tokenId",
          "type": "uint256"
        }
      ],
      "name": "safeTransferFrom",
      "outputs": [],
      "stateMutability": "nonpayable",
      "type": "function"
    },
    {
      "inputs": [
        {
          "internalType": "address",
          "name": "from",
          "type": "address"
        },
        {
          "internalType": "address",
          "name": "to",
          "type": "address"
        },
        {
          "internalType": "uint256",
          "name": "tokenId",
          "type": "uint256"
        },
        {
          "internalType": "bytes",
          "name": "data",
          "type": "bytes"
        }
      ],
      "name": "safeTransferFrom",
      "outputs": [],
      "stateMutability": "nonpayable",
      "type": "function"
    },
    {
      "inputs": [
        {
          "internalType": "address",
          "name": "operator",
          "type": "address"
        },
        {
          "internalType": "bool",
          "name": "approved",
          "type": "bool"
        }
      ],
      "name": "setApprovalForAll",
      "outputs": [],
      "stateMutability": "nonpayable",
      "type": "function"
    },
    {
      "inputs": [
        {
          "internalType": "bytes4",
          "name": "interfaceId",
          "type": "bytes4"
        }
      ],
      "name": "supportsInterface",
      "outputs": [
        {
          "internalType": "bool",
          "name": "",
          "type": "bool"
        }
      ],
      "stateMutability": "view",
      "type": "function"
    },
    {
      "inputs": [],
      "name": "symbol",
      "outputs": [
        {
          "internalType": "string",
          "name": "",
          "type": "string"
        }
      ],
      "stateMutability": "view",
      "type": "function"
    },
    {
      "inputs": [
        {
          "internalType": "uint256",
          "name": "tokenId",
          "type": "uint256"
        }
      ],
      "name": "tokenURI",
      "outputs": [
        {
          "internalType": "string",
          "name": "",
          "type": "string"
        }
      ],
      "stateMutability": "view",
      "type": "function"
    },
    {
      "inputs": [
        {
          "internalType": "address",
          "name": "from",
          "type": "address"
        },
        {
          "internalType": "address",
          "name": "to",
          "type": "address"
        },
        {
          "internalType": "uint256",
          "name": "tokenId",
          "type": "uint256"
        }
      ],
      "name": "transferFrom",
      "outputs": [],
      "stateMutability": "nonpayable",
      "type": "function"
    },
    {
      "inputs": [
        {
          "internalType": "address",
          "name": "newOwner",
          "type": "address"
        }
      ],
      "name": "transferOwnership",
      "outputs": [],
      "stateMutability": "nonpayable",
      "type": "function"
    },
    {
      "inputs": [],
      "name": "trialPeriod",
      "outputs": [
        {
          "internalType": "uint256",
          "name": "",
          "type": "uint256"
        }
      ],
      "stateMutability": "view",
      "type": "function"
    },
    {
      "inputs": [
        {
          "internalType": "uint256",
          "name": "_newtrialPeriod",
          "type": "uint256"
        }
      ],
      "name": "updateTrialPeriod",
      "outputs": [],
      "stateMutability": "nonpayable",
      "type": "function"
    }
  ],
  "bytecode": "0x60806040523480156200001157600080fd5b5060405162006a9838038062006a98833981810160405281019062000037919062000364565b6040518060400160405280600d81526020017f507974686961466163746f7279000000000000000000000000000000000000008152506040518060400160405280600481526020017f50594146000000000000000000000000000000000000000000000000000000008152508160009081620000b4919062000646565b508060019081620000c6919062000646565b505050620000e9620000dd620001e360201b60201c565b620001eb60201b60201c565b603c80601886620000fb91906200075c565b6200010791906200075c565b6200011391906200075c565b600b81905550308383836040516200012b90620002b1565b6200013a9493929190620007c9565b604051809103906000f08015801562000157573d6000803e3d6000fd5b50600c60006101000a81548173ffffffffffffffffffffffffffffffffffffffff021916908373ffffffffffffffffffffffffffffffffffffffff1602179055507f6a3a881122940a13d6a1f9e93d335e431540ee6a24addde19aa00a61f73f88bf3084848442604051620001d195949392919062000816565b60405180910390a15050505062000873565b600033905090565b6000600660009054906101000a900473ffffffffffffffffffffffffffffffffffffffff16905081600660006101000a81548173ffffffffffffffffffffffffffffffffffffffff021916908373ffffffffffffffffffffffffffffffffffffffff1602179055508173ffffffffffffffffffffffffffffffffffffffff168173ffffffffffffffffffffffffffffffffffffffff167f8be0079c531659141344cd1fd0a4f28419497f9722a3daafe3b4186f6b6457e060405160405180910390a35050565b611395806200570383390190565b600080fd5b6000819050919050565b620002d981620002c4565b8114620002e557600080fd5b50565b600081519050620002f981620002ce565b92915050565b600073ffffffffffffffffffffffffffffffffffffffff82169050919050565b60006200032c82620002ff565b9050919050565b6200033e816200031f565b81146200034a57600080fd5b50565b6000815190506200035e8162000333565b92915050565b60008060008060808587031215620003815762000380620002bf565b5b60006200039187828801620002e8565b9450506020620003a4878288016200034d565b9350506040620003b7878288016200034d565b9250506060620003ca87828801620002e8565b91505092959194509250565b600081519050919050565b7f4e487b7100000000000000000000000000000000000000000000000000000000600052604160045260246000fd5b7f4e487b7100000000000000000000000000000000000000000000000000000000600052602260045260246000fd5b600060028204905060018216806200045857607f821691505b6020821081036200046e576200046d62000410565b5b50919050565b60008190508160005260206000209050919050565b60006020601f8301049050919050565b600082821b905092915050565b600060088302620004d87fffffffffffffffffffffffffffffffffffffffffffffffffffffffffffffffff8262000499565b620004e4868362000499565b95508019841693508086168417925050509392505050565b6000819050919050565b600062000527620005216200051b84620002c4565b620004fc565b620002c4565b9050919050565b6000819050919050565b620005438362000506565b6200055b62000552826200052e565b848454620004a6565b825550505050565b600090565b6200057262000563565b6200057f81848462000538565b505050565b5b81811015620005a7576200059b60008262000568565b60018101905062000585565b5050565b601f821115620005f657620005c08162000474565b620005cb8462000489565b81016020851015620005db578190505b620005f3620005ea8562000489565b83018262000584565b50505b505050565b600082821c905092915050565b60006200061b60001984600802620005fb565b1980831691505092915050565b600062000636838362000608565b9150826002028217905092915050565b6200065182620003d6565b67ffffffffffffffff8111156200066d576200066c620003e1565b5b6200067982546200043f565b62000686828285620005ab565b600060209050601f831160018114620006be5760008415620006a9578287015190505b620006b5858262000628565b86555062000725565b601f198416620006ce8662000474565b60005b82811015620006f857848901518255600182019150602085019450602081019050620006d1565b8683101562000718578489015162000714601f89168262000608565b8355505b6001600288020188555050505b505050505050565b7f4e487b7100000000000000000000000000000000000000000000000000000000600052601160045260246000fd5b60006200076982620002c4565b91506200077683620002c4565b92508282026200078681620002c4565b91508282048414831517620007a0576200079f6200072d565b5b5092915050565b620007b2816200031f565b82525050565b620007c381620002c4565b82525050565b6000608082019050620007e06000830187620007a7565b620007ef6020830186620007a7565b620007fe6040830185620007a7565b6200080d6060830184620007b8565b95945050505050565b600060a0820190506200082d6000830188620007a7565b6200083c6020830187620007a7565b6200084b6040830186620007a7565b6200085a6060830185620007b8565b620008696080830184620007b8565b9695505050505050565b614e8080620008836000396000f3fe608060405234801561001057600080fd5b50600436106101d95760003560e01c806370a0823111610104578063ad36725e116100a2578063d548a39a11610071578063d548a39a1461054e578063e985e9c51461056a578063f2fde38b1461059a578063f492bb94146105b6576101d9565b8063ad36725e146104b4578063b88d4fde146104d2578063b92ae87c146104ee578063c87b56dd1461051e576101d9565b806395d89b41116100de57806395d89b41146104545780639c8809c3146104725780639dca362f1461048e578063a22cb46514610498576101d9565b806370a08231146103fc578063715018a61461042c5780638da5cb5b14610436576101d9565b80633173aa321161017c57806354453e741161014b57806354453e7414610378578063582e865f146103945780636352211e146103b05780636a14f084146103e0576101d9565b80633173aa32146102f45780634209fff11461031057806342842e0e14610340578063513450e51461035c576101d9565b8063081812fc116101b8578063081812fc1461025c578063095ea7b31461028c5780630f7e31b1146102a857806323b872dd146102d8576101d9565b8062fd90bb146101de57806301ffc9a71461020e57806306fdde031461023e575b600080fd5b6101f860048036038101906101f39190612e5d565b6105d2565b6040516102059190612f2c565b60405180910390f35b61022860048036038101906102239190612f9f565b610700565b6040516102359190612f2c565b60405180910390f35b6102466107e2565b604051610253919061305c565b60405180910390f35b610276600480360381019061027191906130b4565b610874565b6040516102839190613122565b60405180910390f35b6102a660048036038101906102a19190613169565b6108ba565b005b6102c260048036038101906102bd91906131a9565b6109d1565b6040516102cf9190612f2c565b60405180910390f35b6102f260048036038101906102ed91906131d6565b610ab8565b005b61030e6004803603810190610309919061327f565b610b18565b005b61032a600480360381019061032591906131a9565b610f70565b6040516103379190612f2c565b60405180910390f35b61035a600480360381019061035591906131d6565b610fc9565b005b610376600480360381019061037191906132f3565b610fe9565b005b610392600480360381019061038d91906134b2565b61103e565b005b6103ae60048036038101906103a99190613673565b611218565b005b6103ca60048036038101906103c591906130b4565b6113eb565b6040516103d79190613122565b60405180910390f35b6103fa60048036038101906103f59190613749565b611471565b005b610416600480360381019061041191906131a9565b611546565b60405161042391906137d0565b60405180910390f35b6104346115fd565b005b61043e611611565b60405161044b9190613122565b60405180910390f35b61045c61163b565b604051610469919061305c565b60405180910390f35b61048c600480360381019061048791906131a9565b6116cd565b005b610496611849565b005b6104b260048036038101906104ad9190613817565b61194a565b005b6104bc611960565b6040516104c991906137d0565b60405180910390f35b6104ec60048036038101906104e791906138f8565b611966565b005b610508600480360381019061050391906131a9565b6119c8565b6040516105159190612f2c565b60405180910390f35b610538600480360381019061053391906130b4565b611a6d565b604051610545919061305c565b60405180910390f35b610568600480360381019061056391906139b1565b611ad5565b005b610584600480360381019061057f9190613a18565b611b42565b6040516105919190612f2c565b60405180910390f35b6105b460048036038101906105af91906131a9565b611bd6565b005b6105d060048036038101906105cb91906130b4565b611c59565b005b6000808787905090506000868690509050600085859050905081831461062d576040517f08c379a000000000000000000000000000000000000000000000000000000000815260040161062490613aca565b60405180910390fd5b80831461066f576040517f08c379a000000000000000000000000000000000000000000000000000000000815260040161066690613b5c565b60405180910390fd5b60005b838110156106ee576106e98b8b838181106106905761068f613b7c565b5b90506020020160208101906106a591906131a9565b8a8a848181106106b8576106b7613b7c565b5b905060200201358989858181106106d2576106d1613b7c565b5b90506020028101906106e49190613bba565b610b18565b610672565b50600193505050509695505050505050565b60007f80ac58cd000000000000000000000000000000000000000000000000000000007bffffffffffffffffffffffffffffffffffffffffffffffffffffffff1916827bffffffffffffffffffffffffffffffffffffffffffffffffffffffff191614806107cb57507f5b5e139f000000000000000000000000000000000000000000000000000000007bffffffffffffffffffffffffffffffffffffffffffffffffffffffff1916827bffffffffffffffffffffffffffffffffffffffffffffffffffffffff1916145b806107db57506107da82611c6b565b5b9050919050565b6060600080546107f190613c4c565b80601f016020809104026020016040519081016040528092919081815260200182805461081d90613c4c565b801561086a5780601f1061083f5761010080835404028352916020019161086a565b820191906000526020600020905b81548152906001019060200180831161084d57829003601f168201915b5050505050905090565b600061087f82611cd5565b6004600083815260200190815260200160002060009054906101000a900473ffffffffffffffffffffffffffffffffffffffff169050919050565b60006108c5826113eb565b90508073ffffffffffffffffffffffffffffffffffffffff168373ffffffffffffffffffffffffffffffffffffffff1603610935576040517f08c379a000000000000000000000000000000000000000000000000000000000815260040161092c90613cef565b60405180910390fd5b8073ffffffffffffffffffffffffffffffffffffffff16610954611d20565b73ffffffffffffffffffffffffffffffffffffffff16148061098357506109828161097d611d20565b611b42565b5b6109c2576040517f08c379a00000000000000000000000000000000000000000000000000000000081526004016109b990613d81565b60405180910390fd5b6109cc8383611d28565b505050565b6000600760008373ffffffffffffffffffffffffffffffffffffffff1673ffffffffffffffffffffffffffffffffffffffff16815260200190815260200160002060000154421015610a58576040517f08c379a0000000000000000000000000000000000000000000000000000000008152600401610a4f90613ded565b60405180910390fd5b6000600760008473ffffffffffffffffffffffffffffffffffffffff1673ffffffffffffffffffffffffffffffffffffffff1681526020019081526020016000206000015442610aa89190613e3c565b9050600b54811115915050919050565b610ac9610ac3611d20565b82611de1565b610b08576040517f08c379a0000000000000000000000000000000000000000000000000000000008152600401610aff90613ee2565b60405180910390fd5b610b13838383611e76565b505050565b60011515600860008673ffffffffffffffffffffffffffffffffffffffff1673ffffffffffffffffffffffffffffffffffffffff16815260200190815260200160002060000160009054906101000a900460ff16151514610bae576040517f08c379a0000000000000000000000000000000000000000000000000000000008152600401610ba590613f74565b60405180910390fd5b60003385604051602001610bc3929190613fdc565b6040516020818303038152906040528051906020012060001c9050600015156009600083815260200190815260200160002060030160009054906101000a900460ff16151514610c48576040517f08c379a0000000000000000000000000000000000000000000000000000000008152600401610c3f90614054565b60405180910390fd5b60008590508073ffffffffffffffffffffffffffffffffffffffff1663dc5326498686866040518463ffffffff1660e01b8152600401610c8a939291906140b2565b600060405180830381600087803b158015610ca457600080fd5b505af1158015610cb8573d6000803e3d6000fd5b5050505060008173ffffffffffffffffffffffffffffffffffffffff1663fc1bfb906040518163ffffffff1660e01b8152600401602060405180830381865afa158015610d09573d6000803e3d6000fd5b505050506040513d601f19601f82011682018060405250810190610d2d91906140f9565b90506000600860008973ffffffffffffffffffffffffffffffffffffffff1673ffffffffffffffffffffffffffffffffffffffff16815260200190815260200160002060000160019054906101000a900473ffffffffffffffffffffffffffffffffffffffff1690506000819050336009600087815260200190815260200160002060000160006101000a81548173ffffffffffffffffffffffffffffffffffffffff021916908373ffffffffffffffffffffffffffffffffffffffff160217905550886009600087815260200190815260200160002060010160006101000a81548173ffffffffffffffffffffffffffffffffffffffff021916908373ffffffffffffffffffffffffffffffffffffffff16021790555082600960008781526020019081526020016000206002018190555060016009600087815260200190815260200160002060030160006101000a81548160ff0219169083151502179055508073ffffffffffffffffffffffffffffffffffffffff1663b624633c33856040518363ffffffff1660e01b8152600401610eca929190614126565b600060405180830381600087803b158015610ee457600080fd5b505af1158015610ef8573d6000803e3d6000fd5b505050508873ffffffffffffffffffffffffffffffffffffffff163373ffffffffffffffffffffffffffffffffffffffff167fc57d81449bf95ee893a78c61c7990762b7d90602761ad9f7d8d051d562f9abf9858b42604051610f5d9392919061414f565b60405180910390a3505050505050505050565b6000600760008373ffffffffffffffffffffffffffffffffffffffff1673ffffffffffffffffffffffffffffffffffffffff16815260200190815260200160002060010160009054906101000a900460ff169050919050565b610fe483838360405180602001604052806000815250611966565b505050565b8273ffffffffffffffffffffffffffffffffffffffff167feec977e786e7248a658b0474ccf8f57f37ead019014ec4d5ba1542ddabeff1b48383604051611031929190614186565b60405180910390a2505050565b61104661216f565b600073__$3df2ca9254ecbb55f109d9ad824fec3c00$__6342554eb0308e8e8e8e8e8e8e8e8e8e6040518c63ffffffff1660e01b81526004016110939b9a99989796959493929190614226565b602060405180830381865af41580156110b0573d6000803e3d6000fd5b505050506040513d601f19601f820116820180604052508101906110d491906142ed565b90506001600860008373ffffffffffffffffffffffffffffffffffffffff1673ffffffffffffffffffffffffffffffffffffffff16815260200190815260200160002060000160006101000a81548160ff02191690831515021790555081600860008373ffffffffffffffffffffffffffffffffffffffff1673ffffffffffffffffffffffffffffffffffffffff16815260200190815260200160002060000160016101000a81548173ffffffffffffffffffffffffffffffffffffffff021916908373ffffffffffffffffffffffffffffffffffffffff1602179055508073ffffffffffffffffffffffffffffffffffffffff167fbe289da69f191f0ee858560469625b39bbfec4fa2d414a2906ccf1f1f3ba9d4c428e8d8d878e6040516112029695949392919061431a565b60405180910390a2505050505050505050505050565b61122061216f565b600073__$3df2ca9254ecbb55f109d9ad824fec3c00$__637353f954308b8b8b8b8b8b8b6040518963ffffffff1660e01b815260040161126798979695949392919061442d565b602060405180830381865af4158015611284573d6000803e3d6000fd5b505050506040513d601f19601f820116820180604052508101906112a891906142ed565b90506001600860008373ffffffffffffffffffffffffffffffffffffffff1673ffffffffffffffffffffffffffffffffffffffff16815260200190815260200160002060000160006101000a81548160ff02191690831515021790555081600860008373ffffffffffffffffffffffffffffffffffffffff1673ffffffffffffffffffffffffffffffffffffffff16815260200190815260200160002060000160016101000a81548173ffffffffffffffffffffffffffffffffffffffff021916908373ffffffffffffffffffffffffffffffffffffffff1602179055508073ffffffffffffffffffffffffffffffffffffffff167f9c21205d8f5e6e55ddf47a5e1bee6e5acb25a2bd4d786d5c011493f75e901865428b8b8b8b8b896040516113d8979695949392919061453f565b60405180910390a2505050505050505050565b6000806113f7836121ed565b9050600073ffffffffffffffffffffffffffffffffffffffff168173ffffffffffffffffffffffffffffffffffffffff1603611468576040517f08c379a000000000000000000000000000000000000000000000000000000000815260040161145f90614605565b60405180910390fd5b80915050919050565b600073__$47182815ebf7e31c4d44e090b1a748d68a$__63b548848784846040518363ffffffff1660e01b81526004016114ac929190614625565b602060405180830381865af41580156114c9573d6000803e3d6000fd5b505050506040513d601f19601f820116820180604052508101906114ed91906142ed565b90508073ffffffffffffffffffffffffffffffffffffffff167f8193bc37eb6686833fca5383f8da5ed2a891ffffd7e58163b697ef00e35815e88484426040516115399392919061465c565b60405180910390a2505050565b60008073ffffffffffffffffffffffffffffffffffffffff168273ffffffffffffffffffffffffffffffffffffffff16036115b6576040517f08c379a00000000000000000000000000000000000000000000000000000000081526004016115ad90614713565b60405180910390fd5b600360008373ffffffffffffffffffffffffffffffffffffffff1673ffffffffffffffffffffffffffffffffffffffff168152602001908152602001600020549050919050565b61160561216f565b61160f600061222a565b565b6000600660009054906101000a900473ffffffffffffffffffffffffffffffffffffffff16905090565b60606001805461164a90613c4c565b80601f016020809104026020016040519081016040528092919081815260200182805461167690613c4c565b80156116c35780601f10611698576101008083540402835291602001916116c3565b820191906000526020600020905b8154815290600101906020018083116116a657829003601f168201915b5050505050905090565b6000819050600115158173ffffffffffffffffffffffffffffffffffffffff16633f6fa6556040518163ffffffff1660e01b8152600401602060405180830381865afa158015611721573d6000803e3d6000fd5b505050506040513d601f19601f820116820180604052508101906117459190614748565b151514611787576040517f08c379a000000000000000000000000000000000000000000000000000000000815260040161177e906147c1565b60405180910390fd5b8173ffffffffffffffffffffffffffffffffffffffff167fae3b4647cde4464880f9f327eb779e36d78c30f835aec6b95b754031729dcfb38273ffffffffffffffffffffffffffffffffffffffff166385bb7d696040518163ffffffff1660e01b8152600401602060405180830381865afa15801561180a573d6000803e3d6000fd5b505050506040513d601f19601f8201168201806040525081019061182e91906140f9565b4260405161183d929190614186565b60405180910390a25050565b6000611855600d6122f0565b9050611861600d6122fe565b61186b3382612314565b6000604051806040016040528042815260200160011515815250905080600760003373ffffffffffffffffffffffffffffffffffffffff1673ffffffffffffffffffffffffffffffffffffffff1681526020019081526020016000206000820151816000015560208201518160010160006101000a81548160ff0219169083151502179055509050503373ffffffffffffffffffffffffffffffffffffffff167fa27642fccf9a9a0a8a8e31188dfec60a6565c30a20ef3ed1eb3a779a79a36b2e826000015160405161193e91906137d0565b60405180910390a25050565b61195c611955611d20565b8383612332565b5050565b600b5481565b611977611971611d20565b83611de1565b6119b6576040517f08c379a00000000000000000000000000000000000000000000000000000000081526004016119ad90613ee2565b60405180910390fd5b6119c28484848461249e565b50505050565b6000600c60009054906101000a900473ffffffffffffffffffffffffffffffffffffffff1673ffffffffffffffffffffffffffffffffffffffff1663b92ae87c836040518263ffffffff1660e01b8152600401611a259190613122565b602060405180830381865afa158015611a42573d6000803e3d6000fd5b505050506040513d601f19601f82011682018060405250810190611a669190614748565b9050919050565b6060611a7882611cd5565b6000611a826124fa565b90506000815111611aa25760405180602001604052806000815250611acd565b80611aac84612511565b604051602001611abd92919061481d565b6040516020818303038152906040525b915050919050565b8273ffffffffffffffffffffffffffffffffffffffff168473ffffffffffffffffffffffffffffffffffffffff167f2e48c1de81c9e22e88140cffd126783793f2b5dc5c6404afa219d647b6b271f98484604051611b34929190614850565b60405180910390a350505050565b6000600560008473ffffffffffffffffffffffffffffffffffffffff1673ffffffffffffffffffffffffffffffffffffffff16815260200190815260200160002060008373ffffffffffffffffffffffffffffffffffffffff1673ffffffffffffffffffffffffffffffffffffffff16815260200190815260200160002060009054906101000a900460ff16905092915050565b611bde61216f565b600073ffffffffffffffffffffffffffffffffffffffff168173ffffffffffffffffffffffffffffffffffffffff1603611c4d576040517f08c379a0000000000000000000000000000000000000000000000000000000008152600401611c44906148eb565b60405180910390fd5b611c568161222a565b50565b611c6161216f565b80600b8190555050565b60007f01ffc9a7000000000000000000000000000000000000000000000000000000007bffffffffffffffffffffffffffffffffffffffffffffffffffffffff1916827bffffffffffffffffffffffffffffffffffffffffffffffffffffffff1916149050919050565b611cde816125df565b611d1d576040517f08c379a0000000000000000000000000000000000000000000000000000000008152600401611d1490614605565b60405180910390fd5b50565b600033905090565b816004600083815260200190815260200160002060006101000a81548173ffffffffffffffffffffffffffffffffffffffff021916908373ffffffffffffffffffffffffffffffffffffffff160217905550808273ffffffffffffffffffffffffffffffffffffffff16611d9b836113eb565b73ffffffffffffffffffffffffffffffffffffffff167f8c5be1e5ebec7d5bd14f71427d1e84f3dd0314c0f7b2291e5b200ac8c7c3b92560405160405180910390a45050565b600080611ded836113eb565b90508073ffffffffffffffffffffffffffffffffffffffff168473ffffffffffffffffffffffffffffffffffffffff161480611e2f5750611e2e8185611b42565b5b80611e6d57508373ffffffffffffffffffffffffffffffffffffffff16611e5584610874565b73ffffffffffffffffffffffffffffffffffffffff16145b91505092915050565b8273ffffffffffffffffffffffffffffffffffffffff16611e96826113eb565b73ffffffffffffffffffffffffffffffffffffffff1614611eec576040517f08c379a0000000000000000000000000000000000000000000000000000000008152600401611ee39061497d565b60405180910390fd5b600073ffffffffffffffffffffffffffffffffffffffff168273ffffffffffffffffffffffffffffffffffffffff1603611f5b576040517f08c379a0000000000000000000000000000000000000000000000000000000008152600401611f5290614a0f565b60405180910390fd5b611f688383836001612620565b8273ffffffffffffffffffffffffffffffffffffffff16611f88826113eb565b73ffffffffffffffffffffffffffffffffffffffff1614611fde576040517f08c379a0000000000000000000000000000000000000000000000000000000008152600401611fd59061497d565b60405180910390fd5b6004600082815260200190815260200160002060006101000a81549073ffffffffffffffffffffffffffffffffffffffff02191690556001600360008573ffffffffffffffffffffffffffffffffffffffff1673ffffffffffffffffffffffffffffffffffffffff168152602001908152602001600020600082825403925050819055506001600360008473ffffffffffffffffffffffffffffffffffffffff1673ffffffffffffffffffffffffffffffffffffffff16815260200190815260200160002060008282540192505081905550816002600083815260200190815260200160002060006101000a81548173ffffffffffffffffffffffffffffffffffffffff021916908373ffffffffffffffffffffffffffffffffffffffff160217905550808273ffffffffffffffffffffffffffffffffffffffff168473ffffffffffffffffffffffffffffffffffffffff167fddf252ad1be2c89b69c2b068fc378daa952ba7f163c4a11628f55a4df523b3ef60405160405180910390a461216a8383836001612762565b505050565b612177611d20565b73ffffffffffffffffffffffffffffffffffffffff16612195611611565b73ffffffffffffffffffffffffffffffffffffffff16146121eb576040517f08c379a00000000000000000000000000000000000000000000000000000000081526004016121e290614a7b565b60405180910390fd5b565b60006002600083815260200190815260200160002060009054906101000a900473ffffffffffffffffffffffffffffffffffffffff169050919050565b6000600660009054906101000a900473ffffffffffffffffffffffffffffffffffffffff16905081600660006101000a81548173ffffffffffffffffffffffffffffffffffffffff021916908373ffffffffffffffffffffffffffffffffffffffff1602179055508173ffffffffffffffffffffffffffffffffffffffff168173ffffffffffffffffffffffffffffffffffffffff167f8be0079c531659141344cd1fd0a4f28419497f9722a3daafe3b4186f6b6457e060405160405180910390a35050565b600081600001549050919050565b6001816000016000828254019250508190555050565b61232e8282604051806020016040528060008152506127c3565b5050565b8173ffffffffffffffffffffffffffffffffffffffff168373ffffffffffffffffffffffffffffffffffffffff16036123a0576040517f08c379a000000000000000000000000000000000000000000000000000000000815260040161239790614ae7565b60405180910390fd5b80600560008573ffffffffffffffffffffffffffffffffffffffff1673ffffffffffffffffffffffffffffffffffffffff16815260200190815260200160002060008473ffffffffffffffffffffffffffffffffffffffff1673ffffffffffffffffffffffffffffffffffffffff16815260200190815260200160002060006101000a81548160ff0219169083151502179055508173ffffffffffffffffffffffffffffffffffffffff168373ffffffffffffffffffffffffffffffffffffffff167f17307eab39ab6107e8899845ad3d59bd9653f200f220920489ca2b5937696c31836040516124919190612f2c565b60405180910390a3505050565b6124a9848484611e76565b6124b58484848461281e565b6124f4576040517f08c379a00000000000000000000000000000000000000000000000000000000081526004016124eb90614b79565b60405180910390fd5b50505050565b606060405180602001604052806000815250905090565b606060006001612520846129a5565b01905060008167ffffffffffffffff81111561253f5761253e61334b565b5b6040519080825280601f01601f1916602001820160405280156125715781602001600182028036833780820191505090505b509050600082602001820190505b6001156125d4578080600190039150507f3031323334353637383961626364656600000000000000000000000000000000600a86061a8153600a85816125c8576125c7614b99565b5b0494506000850361257f575b819350505050919050565b60008073ffffffffffffffffffffffffffffffffffffffff16612601836121ed565b73ffffffffffffffffffffffffffffffffffffffff1614159050919050565b60001515600760008573ffffffffffffffffffffffffffffffffffffffff1673ffffffffffffffffffffffffffffffffffffffff16815260200190815260200160002060010160009054906101000a900460ff161515146126b6576040517f08c379a00000000000000000000000000000000000000000000000000000000081526004016126ad90614c14565b60405180910390fd5b600073ffffffffffffffffffffffffffffffffffffffff168473ffffffffffffffffffffffffffffffffffffffff16148061271d5750600073ffffffffffffffffffffffffffffffffffffffff168373ffffffffffffffffffffffffffffffffffffffff16145b61275c576040517f08c379a000000000000000000000000000000000000000000000000000000000815260040161275390614c80565b60405180910390fd5b50505050565b818473ffffffffffffffffffffffffffffffffffffffff168473ffffffffffffffffffffffffffffffffffffffff167fddf252ad1be2c89b69c2b068fc378daa952ba7f163c4a11628f55a4df523b3ef60405160405180910390a450505050565b6127cd8383612af8565b6127da600084848461281e565b612819576040517f08c379a000000000000000000000000000000000000000000000000000000000815260040161281090614b79565b60405180910390fd5b505050565b600061283f8473ffffffffffffffffffffffffffffffffffffffff16612d15565b15612998578373ffffffffffffffffffffffffffffffffffffffff1663150b7a02612868611d20565b8786866040518563ffffffff1660e01b815260040161288a9493929190614ce4565b6020604051808303816000875af19250505080156128c657506040513d601f19601f820116820180604052508101906128c39190614d45565b60015b612948573d80600081146128f6576040519150601f19603f3d011682016040523d82523d6000602084013e6128fb565b606091505b506000815103612940576040517f08c379a000000000000000000000000000000000000000000000000000000000815260040161293790614b79565b60405180910390fd5b805181602001fd5b63150b7a0260e01b7bffffffffffffffffffffffffffffffffffffffffffffffffffffffff1916817bffffffffffffffffffffffffffffffffffffffffffffffffffffffff19161491505061299d565b600190505b949350505050565b600080600090507a184f03e93ff9f4daa797ed6e38ed64bf6a1f0100000000000000008310612a03577a184f03e93ff9f4daa797ed6e38ed64bf6a1f01000000000000000083816129f9576129f8614b99565b5b0492506040810190505b6d04ee2d6d415b85acef81000000008310612a40576d04ee2d6d415b85acef81000000008381612a3657612a35614b99565b5b0492506020810190505b662386f26fc100008310612a6f57662386f26fc100008381612a6557612a64614b99565b5b0492506010810190505b6305f5e1008310612a98576305f5e1008381612a8e57612a8d614b99565b5b0492506008810190505b6127108310612abd576127108381612ab357612ab2614b99565b5b0492506004810190505b60648310612ae05760648381612ad657612ad5614b99565b5b0492506002810190505b600a8310612aef576001810190505b80915050919050565b600073ffffffffffffffffffffffffffffffffffffffff168273ffffffffffffffffffffffffffffffffffffffff1603612b67576040517f08c379a0000000000000000000000000000000000000000000000000000000008152600401612b5e90614dbe565b60405180910390fd5b612b70816125df565b15612bb0576040517f08c379a0000000000000000000000000000000000000000000000000000000008152600401612ba790614e2a565b60405180910390fd5b612bbe600083836001612620565b612bc7816125df565b15612c07576040517f08c379a0000000000000000000000000000000000000000000000000000000008152600401612bfe90614e2a565b60405180910390fd5b6001600360008473ffffffffffffffffffffffffffffffffffffffff1673ffffffffffffffffffffffffffffffffffffffff16815260200190815260200160002060008282540192505081905550816002600083815260200190815260200160002060006101000a81548173ffffffffffffffffffffffffffffffffffffffff021916908373ffffffffffffffffffffffffffffffffffffffff160217905550808273ffffffffffffffffffffffffffffffffffffffff16600073ffffffffffffffffffffffffffffffffffffffff167fddf252ad1be2c89b69c2b068fc378daa952ba7f163c4a11628f55a4df523b3ef60405160405180910390a4612d11600083836001612762565b5050565b6000808273ffffffffffffffffffffffffffffffffffffffff163b119050919050565b6000604051905090565b600080fd5b600080fd5b600080fd5b600080fd5b600080fd5b60008083601f840112612d7157612d70612d4c565b5b8235905067ffffffffffffffff811115612d8e57612d8d612d51565b5b602083019150836020820283011115612daa57612da9612d56565b5b9250929050565b60008083601f840112612dc757612dc6612d4c565b5b8235905067ffffffffffffffff811115612de457612de3612d51565b5b602083019150836020820283011115612e0057612dff612d56565b5b9250929050565b60008083601f840112612e1d57612e1c612d4c565b5b8235905067ffffffffffffffff811115612e3a57612e39612d51565b5b602083019150836020820283011115612e5657612e55612d56565b5b9250929050565b60008060008060008060608789031215612e7a57612e79612d42565b5b600087013567ffffffffffffffff811115612e9857612e97612d47565b5b612ea489828a01612d5b565b9650965050602087013567ffffffffffffffff811115612ec757612ec6612d47565b5b612ed389828a01612db1565b9450945050604087013567ffffffffffffffff811115612ef657612ef5612d47565b5b612f0289828a01612e07565b92509250509295509295509295565b60008115159050919050565b612f2681612f11565b82525050565b6000602082019050612f416000830184612f1d565b92915050565b60007fffffffff0000000000000000000000000000000000000000000000000000000082169050919050565b612f7c81612f47565b8114612f8757600080fd5b50565b600081359050612f9981612f73565b92915050565b600060208284031215612fb557612fb4612d42565b5b6000612fc384828501612f8a565b91505092915050565b600081519050919050565b600082825260208201905092915050565b60005b83811015613006578082015181840152602081019050612feb565b60008484015250505050565b6000601f19601f8301169050919050565b600061302e82612fcc565b6130388185612fd7565b9350613048818560208601612fe8565b61305181613012565b840191505092915050565b600060208201905081810360008301526130768184613023565b905092915050565b6000819050919050565b6130918161307e565b811461309c57600080fd5b50565b6000813590506130ae81613088565b92915050565b6000602082840312156130ca576130c9612d42565b5b60006130d88482850161309f565b91505092915050565b600073ffffffffffffffffffffffffffffffffffffffff82169050919050565b600061310c826130e1565b9050919050565b61311c81613101565b82525050565b60006020820190506131376000830184613113565b92915050565b61314681613101565b811461315157600080fd5b50565b6000813590506131638161313d565b92915050565b600080604083850312156131805761317f612d42565b5b600061318e85828601613154565b925050602061319f8582860161309f565b9150509250929050565b6000602082840312156131bf576131be612d42565b5b60006131cd84828501613154565b91505092915050565b6000806000606084860312156131ef576131ee612d42565b5b60006131fd86828701613154565b935050602061320e86828701613154565b925050604061321f8682870161309f565b9150509250925092565b60008083601f84011261323f5761323e612d4c565b5b8235905067ffffffffffffffff81111561325c5761325b612d51565b5b60208301915083600182028301111561327857613277612d56565b5b9250929050565b6000806000806060858703121561329957613298612d42565b5b60006132a787828801613154565b94505060206132b88782880161309f565b935050604085013567ffffffffffffffff8111156132d9576132d8612d47565b5b6132e587828801613229565b925092505092959194509250565b60008060006060848603121561330c5761330b612d42565b5b600061331a86828701613154565b935050602061332b8682870161309f565b925050604061333c8682870161309f565b9150509250925092565b600080fd5b7f4e487b7100000000000000000000000000000000000000000000000000000000600052604160045260246000fd5b61338382613012565b810181811067ffffffffffffffff821117156133a2576133a161334b565b5b80604052505050565b60006133b5612d38565b90506133c1828261337a565b919050565b600067ffffffffffffffff8211156133e1576133e061334b565b5b6133ea82613012565b9050602081019050919050565b82818337600083830152505050565b6000613419613414846133c6565b6133ab565b90508281526020810184848401111561343557613434613346565b5b6134408482856133f7565b509392505050565b600082601f83011261345d5761345c612d4c565b5b813561346d848260208601613406565b91505092915050565b600063ffffffff82169050919050565b61348f81613476565b811461349a57600080fd5b50565b6000813590506134ac81613486565b92915050565b60008060008060008060008060008060006101608c8e0312156134d8576134d7612d42565b5b60008c013567ffffffffffffffff8111156134f6576134f5612d47565b5b6135028e828f01613448565b9b505060206135138e828f0161309f565b9a505060406135248e828f0161309f565b99505060606135358e828f0161309f565b98505060806135468e828f0161309f565b97505060a06135578e828f01613154565b96505060c06135688e828f0161349d565b95505060e06135798e828f0161309f565b94505061010061358b8e828f01613154565b93505061012061359d8e828f0161309f565b9250506101406135af8e828f01613154565b9150509295989b509295989b9093969950565b600067ffffffffffffffff8211156135dd576135dc61334b565b5b602082029050919050565b60006135fb6135f6846135c2565b6133ab565b9050806020840283018581111561361557613614612d56565b5b835b8181101561363e578061362a888261309f565b845260208401935050602081019050613617565b5050509392505050565b600082601f83011261365d5761365c612d4c565b5b600561366a8482856135e8565b91505092915050565b600080600080600080600080610180898b03121561369457613693612d42565b5b600089013567ffffffffffffffff8111156136b2576136b1612d47565b5b6136be8b828c01613448565b98505060206136cf8b828c01613648565b97505060c06136e08b828c0161309f565b96505060e06136f18b828c0161309f565b9550506101006137038b828c0161309f565b9450506101206137158b828c01613154565b9350506101406137278b828c01613154565b9250506101606137398b828c01613154565b9150509295985092959890939650565b600080604083850312156137605761375f612d42565b5b600083013567ffffffffffffffff81111561377e5761377d612d47565b5b61378a85828601613448565b925050602083013567ffffffffffffffff8111156137ab576137aa612d47565b5b6137b785828601613448565b9150509250929050565b6137ca8161307e565b82525050565b60006020820190506137e560008301846137c1565b92915050565b6137f481612f11565b81146137ff57600080fd5b50565b600081359050613811816137eb565b92915050565b6000806040838503121561382e5761382d612d42565b5b600061383c85828601613154565b925050602061384d85828601613802565b9150509250929050565b600067ffffffffffffffff8211156138725761387161334b565b5b61387b82613012565b9050602081019050919050565b600061389b61389684613857565b6133ab565b9050828152602081018484840111156138b7576138b6613346565b5b6138c28482856133f7565b509392505050565b600082601f8301126138df576138de612d4c565b5b81356138ef848260208601613888565b91505092915050565b6000806000806080858703121561391257613911612d42565b5b600061392087828801613154565b945050602061393187828801613154565b93505060406139428782880161309f565b925050606085013567ffffffffffffffff81111561396357613962612d47565b5b61396f878288016138ca565b91505092959194509250565b6000819050919050565b61398e8161397b565b811461399957600080fd5b50565b6000813590506139ab81613985565b92915050565b600080600080608085870312156139cb576139ca612d42565b5b60006139d987828801613154565b94505060206139ea87828801613154565b93505060406139fb8782880161399c565b9250506060613a0c8782880161309f565b91505092959194509250565b60008060408385031215613a2f57613a2e612d42565b5b6000613a3d85828601613154565b9250506020613a4e85828601613154565b9150509250929050565b7f6e756d626572206f662070726564696374696f6e73207061737365642069732060008201527f6e6f7420657175616c20746f206e756d626572206f66206d61726b6574647300602082015250565b6000613ab4603f83612fd7565b9150613abf82613a58565b604082019050919050565b60006020820190508181036000830152613ae381613aa7565b9050919050565b7f6e756d626572206f66207369676e61747572657320706173736564206973206e60008201527f6f7420657175616c20746f206e756d626572206f66206d61726b657464730000602082015250565b6000613b46603e83612fd7565b9150613b5182613aea565b604082019050919050565b60006020820190508181036000830152613b7581613b39565b9050919050565b7f4e487b7100000000000000000000000000000000000000000000000000000000600052603260045260246000fd5b600080fd5b600080fd5b600080fd5b60008083356001602003843603038112613bd757613bd6613bab565b5b80840192508235915067ffffffffffffffff821115613bf957613bf8613bb0565b5b602083019250600182023603831315613c1557613c14613bb5565b5b509250929050565b7f4e487b7100000000000000000000000000000000000000000000000000000000600052602260045260246000fd5b60006002820490506001821680613c6457607f821691505b602082108103613c7757613c76613c1d565b5b50919050565b7f4552433732313a20617070726f76616c20746f2063757272656e74206f776e6560008201527f7200000000000000000000000000000000000000000000000000000000000000602082015250565b6000613cd9602183612fd7565b9150613ce482613c7d565b604082019050919050565b60006020820190508181036000830152613d0881613ccc565b9050919050565b7f4552433732313a20617070726f76652063616c6c6572206973206e6f7420746f60008201527f6b656e206f776e6572206f7220617070726f76656420666f7220616c6c000000602082015250565b6000613d6b603d83612fd7565b9150613d7682613d0f565b604082019050919050565b60006020820190508181036000830152613d9a81613d5e565b9050919050565b7f74696d65206973206e6567617469766500000000000000000000000000000000600082015250565b6000613dd7601083612fd7565b9150613de282613da1565b602082019050919050565b60006020820190508181036000830152613e0681613dca565b9050919050565b7f4e487b7100000000000000000000000000000000000000000000000000000000600052601160045260246000fd5b6000613e478261307e565b9150613e528361307e565b9250828203905081811115613e6a57613e69613e0d565b5b92915050565b7f4552433732313a2063616c6c6572206973206e6f7420746f6b656e206f776e6560008201527f72206f7220617070726f76656400000000000000000000000000000000000000602082015250565b6000613ecc602d83612fd7565b9150613ed782613e70565b604082019050919050565b60006020820190508181036000830152613efb81613ebf565b9050919050565b7f6d61726b657420776974682074686973206164647265737320646f6573206e6f60008201527f7420657869737473000000000000000000000000000000000000000000000000602082015250565b6000613f5e602883612fd7565b9150613f6982613f02565b604082019050919050565b60006020820190508181036000830152613f8d81613f51565b9050919050565b60008160601b9050919050565b6000613fac82613f94565b9050919050565b6000613fbe82613fa1565b9050919050565b613fd6613fd182613101565b613fb3565b82525050565b6000613fe88285613fc5565b601482019150613ff88284613fc5565b6014820191508190509392505050565b7f72657075746174696f6e2077617320616c726561647920726563656976656400600082015250565b600061403e601f83612fd7565b915061404982614008565b602082019050919050565b6000602082019050818103600083015261406d81614031565b9050919050565b600082825260208201905092915050565b60006140918385614074565b935061409e8385846133f7565b6140a783613012565b840190509392505050565b60006040820190506140c760008301866137c1565b81810360208301526140da818486614085565b9050949350505050565b6000815190506140f381613088565b92915050565b60006020828403121561410f5761410e612d42565b5b600061411d848285016140e4565b91505092915050565b600060408201905061413b6000830185613113565b61414860208301846137c1565b9392505050565b600060608201905061416460008301866137c1565b61417160208301856137c1565b61417e60408301846137c1565b949350505050565b600060408201905061419b60008301856137c1565b6141a860208301846137c1565b9392505050565b6141b881613101565b82525050565b600082825260208201905092915050565b60006141da82612fcc565b6141e481856141be565b93506141f4818560208601612fe8565b6141fd81613012565b840191505092915050565b6142118161307e565b82525050565b61422081613476565b82525050565b60006101608201905061423c600083018e6141af565b818103602083015261424e818d6141cf565b905061425d604083018c614208565b61426a606083018b614208565b614277608083018a614208565b61428460a0830189614208565b61429160c08301886141af565b61429e60e0830187614217565b6142ac610100830186614208565b6142ba6101208301856141af565b6142c8610140830184614208565b9c9b505050505050505050505050565b6000815190506142e78161313d565b92915050565b60006020828403121561430357614302612d42565b5b6000614311848285016142d8565b91505092915050565b600060c08201905061432f60008301896137c1565b81810360208301526143418188613023565b905061435060408301876137c1565b61435d60608301866137c1565b61436a6080830185613113565b61437760a08301846137c1565b979650505050505050565b600060059050919050565b600081905092915050565b6000819050919050565b6143ab8161307e565b82525050565b60006143bd83836143a2565b60208301905092915050565b6000602082019050919050565b6143df81614382565b6143e9818461438d565b92506143f482614398565b8060005b8381101561442557815161440c87826143b1565b9650614417836143c9565b9250506001810190506143f8565b505050505050565b600061018082019050614443600083018b6141af565b8181036020830152614455818a6141cf565b905061446460408301896143d6565b61447160e0830188614208565b61447f610100830187614208565b61448d610120830186614208565b61449b6101408301856141af565b6144a96101608301846141af565b9998505050505050505050565b600081905092915050565b6144ca8161307e565b82525050565b60006144dc83836144c1565b60208301905092915050565b6144f181614382565b6144fb81846144b6565b925061450682614398565b8060005b8381101561453757815161451e87826144d0565b9650614529836143c9565b92505060018101905061450a565b505050505050565b600061016082019050614555600083018a6137c1565b81810360208301526145678189613023565b905061457660408301886144e8565b61458360e08301876137c1565b6145916101008301866137c1565b61459f6101208301856137c1565b6145ad610140830184613113565b98975050505050505050565b7f4552433732313a20696e76616c696420746f6b656e2049440000000000000000600082015250565b60006145ef601883612fd7565b91506145fa826145b9565b602082019050919050565b6000602082019050818103600083015261461e816145e2565b9050919050565b6000604082019050818103600083015261463f81856141cf565b9050818103602083015261465381846141cf565b90509392505050565b600060608201905081810360008301526146768186613023565b9050818103602083015261468a8185613023565b905061469960408301846137c1565b949350505050565b7f4552433732313a2061646472657373207a65726f206973206e6f74206120766160008201527f6c6964206f776e65720000000000000000000000000000000000000000000000602082015250565b60006146fd602983612fd7565b9150614708826146a1565b604082019050919050565b6000602082019050818103600083015261472c816146f0565b9050919050565b600081519050614742816137eb565b92915050565b60006020828403121561475e5761475d612d42565b5b600061476c84828501614733565b91505092915050565b7f6d61726b6574206973206e6f74207265736f6c76656400000000000000000000600082015250565b60006147ab601683612fd7565b91506147b682614775565b602082019050919050565b600060208201905081810360008301526147da8161479e565b9050919050565b600081905092915050565b60006147f782612fcc565b61480181856147e1565b9350614811818560208601612fe8565b80840191505092915050565b600061482982856147ec565b915061483582846147ec565b91508190509392505050565b61484a8161397b565b82525050565b60006040820190506148656000830185614841565b61487260208301846137c1565b9392505050565b7f4f776e61626c653a206e6577206f776e657220697320746865207a65726f206160008201527f6464726573730000000000000000000000000000000000000000000000000000602082015250565b60006148d5602683612fd7565b91506148e082614879565b604082019050919050565b60006020820190508181036000830152614904816148c8565b9050919050565b7f4552433732313a207472616e736665722066726f6d20696e636f72726563742060008201527f6f776e6572000000000000000000000000000000000000000000000000000000602082015250565b6000614967602583612fd7565b91506149728261490b565b604082019050919050565b600060208201905081810360008301526149968161495a565b9050919050565b7f4552433732313a207472616e7366657220746f20746865207a65726f2061646460008201527f7265737300000000000000000000000000000000000000000000000000000000602082015250565b60006149f9602483612fd7565b9150614a048261499d565b604082019050919050565b60006020820190508181036000830152614a28816149ec565b9050919050565b7f4f776e61626c653a2063616c6c6572206973206e6f7420746865206f776e6572600082015250565b6000614a65602083612fd7565b9150614a7082614a2f565b602082019050919050565b60006020820190508181036000830152614a9481614a58565b9050919050565b7f4552433732313a20617070726f766520746f2063616c6c657200000000000000600082015250565b6000614ad1601983612fd7565b9150614adc82614a9b565b602082019050919050565b60006020820190508181036000830152614b0081614ac4565b9050919050565b7f4552433732313a207472616e7366657220746f206e6f6e20455243373231526560008201527f63656976657220696d706c656d656e7465720000000000000000000000000000602082015250565b6000614b63603283612fd7565b9150614b6e82614b07565b604082019050919050565b60006020820190508181036000830152614b9281614b56565b9050919050565b7f4e487b7100000000000000000000000000000000000000000000000000000000600052601260045260246000fd5b7f7573657220616c72656164792065786973747300000000000000000000000000600082015250565b6000614bfe601383612fd7565b9150614c0982614bc8565b602082019050919050565b60006020820190508181036000830152614c2d81614bf1565b9050919050565b7f63616e2774207472616e736665722070726f66696c6500000000000000000000600082015250565b6000614c6a601683612fd7565b9150614c7582614c34565b602082019050919050565b60006020820190508181036000830152614c9981614c5d565b9050919050565b600081519050919050565b6000614cb682614ca0565b614cc08185614074565b9350614cd0818560208601612fe8565b614cd981613012565b840191505092915050565b6000608082019050614cf96000830187613113565b614d066020830186613113565b614d1360408301856137c1565b8181036060830152614d258184614cab565b905095945050505050565b600081519050614d3f81612f73565b92915050565b600060208284031215614d5b57614d5a612d42565b5b6000614d6984828501614d30565b91505092915050565b7f4552433732313a206d696e7420746f20746865207a65726f2061646472657373600082015250565b6000614da8602083612fd7565b9150614db382614d72565b602082019050919050565b60006020820190508181036000830152614dd781614d9b565b9050919050565b7f4552433732313a20746f6b656e20616c7265616479206d696e74656400000000600082015250565b6000614e14601c83612fd7565b9150614e1f82614dde565b602082019050919050565b60006020820190508181036000830152614e4381614e07565b905091905056fea2646970667358221220efa52e209073814f38b08b1223c443b03fa9309c165d083783c2ac01a6cc411964736f6c6343000812003360806040523480156200001157600080fd5b5060405162001395380380620013958339818101604052810190620000379190620001b0565b82600160006101000a81548173ffffffffffffffffffffffffffffffffffffffff021916908373ffffffffffffffffffffffffffffffffffffffff16021790555081600260006101000a81548173ffffffffffffffffffffffffffffffffffffffff021916908373ffffffffffffffffffffffffffffffffffffffff1602179055508060038190555083600460006101000a81548173ffffffffffffffffffffffffffffffffffffffff021916908373ffffffffffffffffffffffffffffffffffffffff1602179055505050505062000222565b600080fd5b600073ffffffffffffffffffffffffffffffffffffffff82169050919050565b60006200013d8262000110565b9050919050565b6200014f8162000130565b81146200015b57600080fd5b50565b6000815190506200016f8162000144565b92915050565b6000819050919050565b6200018a8162000175565b81146200019657600080fd5b50565b600081519050620001aa816200017f565b92915050565b60008060008060808587031215620001cd57620001cc6200010b565b5b6000620001dd878288016200015e565b9450506020620001f0878288016200015e565b935050604062000203878288016200015e565b9250506060620002168782880162000199565b91505092959194509250565b61116380620002326000396000f3fe608060405234801561001057600080fd5b50600436106100625760003560e01c806324e9edb014610067578063366f2d861461008557806338b34251146100b557806359b8ad65146100d1578063b92ae87c14610101578063f046395a14610131575b600080fd5b61006f610164565b60405161007c9190610abf565b60405180910390f35b61009f600480360381019061009a9190610b3d565b610239565b6040516100ac9190610abf565b60405180910390f35b6100cf60048036038101906100ca9190610ba0565b610372565b005b6100eb60048036038101906100e69190610b3d565b61086b565b6040516100f89190610abf565b60405180910390f35b61011b60048036038101906101169190610b3d565b610a0f565b6040516101289190610abf565b60405180910390f35b61014b60048036038101906101469190610b3d565b610a67565b60405161015b9493929190610bdc565b60405180910390f35b6000600115156000803373ffffffffffffffffffffffffffffffffffffffff1673ffffffffffffffffffffffffffffffffffffffff16815260200190815260200160002060030160009054906101000a900460ff161515146101c557600080fd5b6000803373ffffffffffffffffffffffffffffffffffffffff1673ffffffffffffffffffffffffffffffffffffffff168152602001908152602001600020600080820160009055600182016000905560028201600090556003820160006101000a81549060ff021916905550506001905090565b6000806000808473ffffffffffffffffffffffffffffffffffffffff1673ffffffffffffffffffffffffffffffffffffffff1681526020019081526020016000206040518060800160405290816000820154815260200160018201548152602001600282015481526020016003820160009054906101000a900460ff161515151581525050905060011515816060015115151461030b576040517f08c379a000000000000000000000000000000000000000000000000000000000815260040161030290610c7e565b60405180910390fd5b4281602001511115610352576040517f08c379a000000000000000000000000000000000000000000000000000000000815260040161034990610cea565b60405180910390fd5b4281604001511161036757600191505061036d565b60009150505b919050565b600015156000803373ffffffffffffffffffffffffffffffffffffffff1673ffffffffffffffffffffffffffffffffffffffff16815260200190815260200160002060030160009054906101000a900460ff16151514610407576040517f08c379a00000000000000000000000000000000000000000000000000000000081526004016103fe90610d56565b60405180910390fd5b600062278d0060035461041a9190610da5565b905080600160009054906101000a900473ffffffffffffffffffffffffffffffffffffffff1673ffffffffffffffffffffffffffffffffffffffff166370a08231336040518263ffffffff1660e01b81526004016104789190610df6565b602060405180830381865afa158015610495573d6000803e3d6000fd5b505050506040513d601f19601f820116820180604052508101906104b99190610e26565b10156104fa576040517f08c379a00000000000000000000000000000000000000000000000000000000081526004016104f190610ec5565b60405180910390fd5b80600160009054906101000a900473ffffffffffffffffffffffffffffffffffffffff1673ffffffffffffffffffffffffffffffffffffffff1663dd62ed3e33306040518363ffffffff1660e01b8152600401610558929190610ee5565b602060405180830381865afa158015610575573d6000803e3d6000fd5b505050506040513d601f19601f820116820180604052508101906105999190610e26565b10156105da576040517f08c379a00000000000000000000000000000000000000000000000000000000081526004016105d190610f80565b60405180910390fd5b816000803373ffffffffffffffffffffffffffffffffffffffff1673ffffffffffffffffffffffffffffffffffffffff16815260200190815260200160002060000181905550426000803373ffffffffffffffffffffffffffffffffffffffff1673ffffffffffffffffffffffffffffffffffffffff1681526020019081526020016000206001018190555060016000803373ffffffffffffffffffffffffffffffffffffffff1673ffffffffffffffffffffffffffffffffffffffff16815260200190815260200160002060030160006101000a81548160ff02191690831515021790555081426106cc9190610fa0565b6000803373ffffffffffffffffffffffffffffffffffffffff1673ffffffffffffffffffffffffffffffffffffffff16815260200190815260200160002060020181905550600160009054906101000a900473ffffffffffffffffffffffffffffffffffffffff1673ffffffffffffffffffffffffffffffffffffffff166323b872dd33600260009054906101000a900473ffffffffffffffffffffffffffffffffffffffff16846040518463ffffffff1660e01b815260040161079293929190610fd4565b6020604051808303816000875af11580156107b1573d6000803e3d6000fd5b505050506040513d601f19601f820116820180604052508101906107d59190611037565b50600460009054906101000a900473ffffffffffffffffffffffffffffffffffffffff1673ffffffffffffffffffffffffffffffffffffffff1663513450e53384426040518463ffffffff1660e01b815260040161083593929190611064565b600060405180830381600087803b15801561084f57600080fd5b505af1158015610863573d6000803e3d6000fd5b505050505050565b6000806000808473ffffffffffffffffffffffffffffffffffffffff1673ffffffffffffffffffffffffffffffffffffffff1681526020019081526020016000209050600060035482600001546108c29190610da5565b90506108cd84610239565b61090c576040517f08c379a00000000000000000000000000000000000000000000000000000000081526004016109039061110d565b60405180910390fd5b600160009054906101000a900473ffffffffffffffffffffffffffffffffffffffff1673ffffffffffffffffffffffffffffffffffffffff166323b872dd85600260009054906101000a900473ffffffffffffffffffffffffffffffffffffffff16846040518463ffffffff1660e01b815260040161098d93929190610fd4565b6020604051808303816000875af11580156109ac573d6000803e3d6000fd5b505050506040513d601f19601f820116820180604052508101906109d09190611037565b50600062278d0083600001546109e69190610da5565b9050808360020160008282546109fc9190610fa0565b9250508190555060019350505050919050565b60008060008373ffffffffffffffffffffffffffffffffffffffff1673ffffffffffffffffffffffffffffffffffffffff16815260200190815260200160002060030160009054906101000a900460ff169050919050565b60006020528060005260406000206000915090508060000154908060010154908060020154908060030160009054906101000a900460ff16905084565b60008115159050919050565b610ab981610aa4565b82525050565b6000602082019050610ad46000830184610ab0565b92915050565b600080fd5b600073ffffffffffffffffffffffffffffffffffffffff82169050919050565b6000610b0a82610adf565b9050919050565b610b1a81610aff565b8114610b2557600080fd5b50565b600081359050610b3781610b11565b92915050565b600060208284031215610b5357610b52610ada565b5b6000610b6184828501610b28565b91505092915050565b6000819050919050565b610b7d81610b6a565b8114610b8857600080fd5b50565b600081359050610b9a81610b74565b92915050565b600060208284031215610bb657610bb5610ada565b5b6000610bc484828501610b8b565b91505092915050565b610bd681610b6a565b82525050565b6000608082019050610bf16000830187610bcd565b610bfe6020830186610bcd565b610c0b6040830185610bcd565b610c186060830184610ab0565b95945050505050565b600082825260208201905092915050565b7f4e6f7420616e2061637469766520737562736372697074696f6e000000000000600082015250565b6000610c68601a83610c21565b9150610c7382610c32565b602082019050919050565b60006020820190508181036000830152610c9781610c5b565b9050919050565b7f537562736372697074696f6e20686173206e6f74207374617274656420796574600082015250565b6000610cd4602083610c21565b9150610cdf82610c9e565b602082019050919050565b60006020820190508181036000830152610d0381610cc7565b9050919050565b7f737562736372697074696f6e20616c7265616479206578697374730000000000600082015250565b6000610d40601b83610c21565b9150610d4b82610d0a565b602082019050919050565b60006020820190508181036000830152610d6f81610d33565b9050919050565b7f4e487b7100000000000000000000000000000000000000000000000000000000600052601160045260246000fd5b6000610db082610b6a565b9150610dbb83610b6a565b9250828202610dc981610b6a565b91508282048414831517610de057610ddf610d76565b5b5092915050565b610df081610aff565b82525050565b6000602082019050610e0b6000830184610de7565b92915050565b600081519050610e2081610b74565b92915050565b600060208284031215610e3c57610e3b610ada565b5b6000610e4a84828501610e11565b91505092915050565b7f496e73756666696369656e742062616c616e636520666f7220696e697469616c60008201527f202b20317820726563757272696e6720616d6f756e7400000000000000000000602082015250565b6000610eaf603683610c21565b9150610eba82610e53565b604082019050919050565b60006020820190508181036000830152610ede81610ea2565b9050919050565b6000604082019050610efa6000830185610de7565b610f076020830184610de7565b9392505050565b7f496e73756666696369656e7420617070726f76616c20666f7220696e6974696160008201527f6c202b20317820726563757272696e6720616d6f756e74000000000000000000602082015250565b6000610f6a603783610c21565b9150610f7582610f0e565b604082019050919050565b60006020820190508181036000830152610f9981610f5d565b9050919050565b6000610fab82610b6a565b9150610fb683610b6a565b9250828201905080821115610fce57610fcd610d76565b5b92915050565b6000606082019050610fe96000830186610de7565b610ff66020830185610de7565b6110036040830184610bcd565b949350505050565b61101481610aa4565b811461101f57600080fd5b50565b6000815190506110318161100b565b92915050565b60006020828403121561104d5761104c610ada565b5b600061105b84828501611022565b91505092915050565b60006060820190506110796000830186610de7565b6110866020830185610bcd565b6110936040830184610bcd565b949350505050565b7f41205061796d656e74206973206e6f742064756520666f72207468697320737560008201527f62736372697074696f6e00000000000000000000000000000000000000000000602082015250565b60006110f7602a83610c21565b91506111028261109b565b604082019050919050565b60006020820190508181036000830152611126816110ea565b905091905056fea264697066735822122083c157a55a71198d60b4877afa7b35f507f2c8526883c37722c42e8e05673b4064736f6c63430008120033",
  "linkReferences": {
    "contracts/libraries/MarketDeployer.sol": {
      "MarketDeployer": [
        {
          "length": 20,
          "start": 6349
        },
        {
          "length": 20,
          "start": 6823
        }
      ]
    },
    "contracts/libraries/ReputationTokenDeployer.sol": {
      "ReputationTokenDeployer": [
        {
          "length": 20,
          "start": 7416
        }
      ]
    }
  },
  "deployedLinkReferences": {
    "contracts/libraries/MarketDeployer.sol": {
      "MarketDeployer": [
        {
          "length": 20,
          "start": 4170
        },
        {
          "length": 20,
          "start": 4644
        }
      ]
    },
    "contracts/libraries/ReputationTokenDeployer.sol": {
      "ReputationTokenDeployer": [
        {
          "length": 20,
          "start": 5237
        }
      ]
    }
  }
}