{
  "_format": "hh-sol-artifact-1",
  "contractName": "PythiaFactory",
  "sourceName": "contracts/PythiaFactory.sol",
  "abi": [
    {
      "inputs": [
        {
          "internalType": "uint256",
          "name": "_trialPeriodDays",
          "type": "uint256"
        },
        {
          "internalType": "address",
          "name": "_subscriptionTokenAddress",
          "type": "address"
        },
        {
          "internalType": "address",
          "name": "_treasuryAddress",
          "type": "address"
        },
        {
          "internalType": "uint256",
          "name": "_baseAmountRecurring",
          "type": "uint256"
        }
      ],
      "stateMutability": "nonpayable",
      "type": "constructor"
    },
    {
      "anonymous": false,
      "inputs": [
        {
          "indexed": true,
          "internalType": "address",
          "name": "owner",
          "type": "address"
        },
        {
          "indexed": true,
          "internalType": "address",
          "name": "approved",
          "type": "address"
        },
        {
          "indexed": true,
          "internalType": "uint256",
          "name": "tokenId",
          "type": "uint256"
        }
      ],
      "name": "Approval",
      "type": "event"
    },
    {
      "anonymous": false,
      "inputs": [
        {
          "indexed": true,
          "internalType": "address",
          "name": "owner",
          "type": "address"
        },
        {
          "indexed": true,
          "internalType": "address",
          "name": "operator",
          "type": "address"
        },
        {
          "indexed": false,
          "internalType": "bool",
          "name": "approved",
          "type": "bool"
        }
      ],
      "name": "ApprovalForAll",
      "type": "event"
    },
    {
      "anonymous": false,
      "inputs": [
        {
          "indexed": false,
          "internalType": "address",
          "name": "_pythiaFactoryAddress",
          "type": "address"
        },
        {
          "indexed": false,
          "internalType": "address",
          "name": "_subscriptionTokenAddress",
          "type": "address"
        },
        {
          "indexed": false,
          "internalType": "address",
          "name": "_payeeAddress",
          "type": "address"
        },
        {
          "indexed": false,
          "internalType": "uint256",
          "name": "_baseAmountRecurring",
          "type": "uint256"
        },
        {
          "indexed": false,
          "internalType": "uint256",
          "name": "_creationDate",
          "type": "uint256"
        }
      ],
      "name": "ERC948Deployed",
      "type": "event"
    },
    {
      "anonymous": false,
      "inputs": [
        {
          "indexed": true,
          "internalType": "address",
          "name": "_address",
          "type": "address"
        },
        {
          "indexed": false,
          "internalType": "uint256",
          "name": "_answer",
          "type": "uint256"
        },
        {
          "indexed": false,
          "internalType": "uint256",
          "name": "_resolutionDate",
          "type": "uint256"
        }
      ],
      "name": "MarketResolved",
      "type": "event"
    },
    {
      "anonymous": false,
      "inputs": [
        {
          "indexed": true,
          "internalType": "address",
          "name": "previousOwner",
          "type": "address"
        },
        {
          "indexed": true,
          "internalType": "address",
          "name": "newOwner",
          "type": "address"
        }
      ],
      "name": "OwnershipTransferred",
      "type": "event"
    },
    {
      "anonymous": false,
      "inputs": [
        {
          "indexed": true,
          "internalType": "address",
          "name": "_user",
          "type": "address"
        },
        {
          "indexed": true,
          "internalType": "address",
          "name": "_market",
          "type": "address"
        },
        {
          "indexed": false,
          "internalType": "bytes32",
          "name": "_prediction",
          "type": "bytes32"
        },
        {
          "indexed": false,
          "internalType": "uint256",
          "name": "_predictionDate",
          "type": "uint256"
        }
      ],
      "name": "PredictionCreated",
      "type": "event"
    },
    {
      "anonymous": false,
      "inputs": [
        {
          "indexed": true,
          "internalType": "address",
          "name": "_address",
          "type": "address"
        },
        {
          "indexed": false,
          "internalType": "uint256",
          "name": "_creationTimestamp",
          "type": "uint256"
        },
        {
          "indexed": false,
          "internalType": "string",
          "name": "_question",
          "type": "string"
        },
        {
          "indexed": false,
          "internalType": "uint256[5]",
          "name": "_options",
          "type": "uint256[5]"
        },
        {
          "indexed": false,
          "internalType": "uint256",
          "name": "_numberOfOutcomes",
          "type": "uint256"
        },
        {
          "indexed": false,
          "internalType": "uint256",
          "name": "_wageDeadline",
          "type": "uint256"
        },
        {
          "indexed": false,
          "internalType": "uint256",
          "name": "_resolutionDate",
          "type": "uint256"
        },
        {
          "indexed": false,
          "internalType": "address",
          "name": "_reputationTokenAddress",
          "type": "address"
        }
      ],
      "name": "PriceFeedsMarketCreated",
      "type": "event"
    },
    {
      "anonymous": false,
      "inputs": [
        {
          "indexed": true,
          "internalType": "address",
          "name": "_address",
          "type": "address"
        },
        {
          "indexed": false,
          "internalType": "uint256",
          "name": "_creationDate",
          "type": "uint256"
        },
        {
          "indexed": false,
          "internalType": "string",
          "name": "_question",
          "type": "string"
        },
        {
          "indexed": false,
          "internalType": "uint256",
          "name": "_wageDeadline",
          "type": "uint256"
        },
        {
          "indexed": false,
          "internalType": "uint256",
          "name": "_resolutionDate",
          "type": "uint256"
        },
        {
          "indexed": false,
          "internalType": "address",
          "name": "_reputationTokenAddress",
          "type": "address"
        },
        {
          "indexed": false,
          "internalType": "uint256",
          "name": "_template",
          "type": "uint256"
        }
      ],
      "name": "RealityETHMarketCreated",
      "type": "event"
    },
    {
      "anonymous": false,
      "inputs": [
        {
          "indexed": true,
          "internalType": "address",
          "name": "_address",
          "type": "address"
        },
        {
          "indexed": false,
          "internalType": "string",
          "name": "_topic",
          "type": "string"
        },
        {
          "indexed": false,
          "internalType": "string",
          "name": "_symbol",
          "type": "string"
        },
        {
          "indexed": false,
          "internalType": "uint256",
          "name": "_creationDate",
          "type": "uint256"
        }
      ],
      "name": "ReputationTokenCreated",
      "type": "event"
    },
    {
      "anonymous": false,
      "inputs": [
        {
          "indexed": true,
          "internalType": "address",
          "name": "_user",
          "type": "address"
        },
        {
          "indexed": true,
          "internalType": "address",
          "name": "_market",
          "type": "address"
        },
        {
          "indexed": false,
          "internalType": "uint256",
          "name": "_reputation",
          "type": "uint256"
        },
        {
          "indexed": false,
          "internalType": "uint256",
          "name": "_decodedPrediction",
          "type": "uint256"
        },
        {
          "indexed": false,
          "internalType": "uint256",
          "name": "_reputationCollectionDate",
          "type": "uint256"
        }
      ],
      "name": "ReputationTransactionSent",
      "type": "event"
    },
    {
      "anonymous": false,
      "inputs": [
        {
          "indexed": true,
          "internalType": "address",
          "name": "_user",
          "type": "address"
        },
        {
          "indexed": false,
          "internalType": "uint256",
          "name": "_periodMultiplier",
          "type": "uint256"
        },
        {
          "indexed": false,
          "internalType": "uint256",
          "name": "_startDate",
          "type": "uint256"
        }
      ],
      "name": "SubscriptionCreated",
      "type": "event"
    },
    {
      "anonymous": false,
      "inputs": [
        {
          "indexed": true,
          "internalType": "address",
          "name": "from",
          "type": "address"
        },
        {
          "indexed": true,
          "internalType": "address",
          "name": "to",
          "type": "address"
        },
        {
          "indexed": true,
          "internalType": "uint256",
          "name": "tokenId",
          "type": "uint256"
        }
      ],
      "name": "Transfer",
      "type": "event"
    },
    {
      "anonymous": false,
      "inputs": [
        {
          "indexed": true,
          "internalType": "address",
          "name": "_address",
          "type": "address"
        },
        {
          "indexed": false,
          "internalType": "uint256",
          "name": "_registrationDate",
          "type": "uint256"
        }
      ],
      "name": "UserCreated",
      "type": "event"
    },
    {
      "inputs": [
        {
          "internalType": "address",
          "name": "to",
          "type": "address"
        },
        {
          "internalType": "uint256",
          "name": "tokenId",
          "type": "uint256"
        }
      ],
      "name": "approve",
      "outputs": [],
      "stateMutability": "nonpayable",
      "type": "function"
    },
    {
      "inputs": [
        {
          "internalType": "address",
          "name": "owner",
          "type": "address"
        }
      ],
      "name": "balanceOf",
      "outputs": [
        {
          "internalType": "uint256",
          "name": "",
          "type": "uint256"
        }
      ],
      "stateMutability": "view",
      "type": "function"
    },
    {
      "inputs": [],
      "name": "createAccount",
      "outputs": [],
      "stateMutability": "nonpayable",
      "type": "function"
    },
    {
      "inputs": [
        {
          "internalType": "string",
          "name": "_question",
          "type": "string"
        },
        {
          "internalType": "uint256[5]",
          "name": "_outcomes",
          "type": "uint256[5]"
        },
        {
          "internalType": "uint256",
          "name": "_numberOfOutcomes",
          "type": "uint256"
        },
        {
          "internalType": "uint256",
          "name": "_wageDeadline",
          "type": "uint256"
        },
        {
          "internalType": "uint256",
          "name": "_resolutionDate",
          "type": "uint256"
        },
        {
          "internalType": "address",
          "name": "_priceFeedAddress",
          "type": "address"
        },
        {
          "internalType": "address",
          "name": "_priceFeederAddress",
          "type": "address"
        },
        {
          "internalType": "address",
          "name": "_reputationTokenAddress",
          "type": "address"
        }
      ],
      "name": "createPriceFeedsMarket",
      "outputs": [],
      "stateMutability": "nonpayable",
      "type": "function"
    },
    {
      "inputs": [
        {
          "internalType": "string",
          "name": "_question",
          "type": "string"
        },
        {
          "internalType": "uint256",
          "name": "_numberOfOutcomes",
          "type": "uint256"
        },
        {
          "internalType": "uint256",
          "name": "_wageDeadline",
          "type": "uint256"
        },
        {
          "internalType": "uint256",
          "name": "_resolutionDate",
          "type": "uint256"
        },
        {
          "internalType": "uint256",
          "name": "_template_id",
          "type": "uint256"
        },
        {
          "internalType": "address",
          "name": "_arbitrator",
          "type": "address"
        },
        {
          "internalType": "uint32",
          "name": "_timeout",
          "type": "uint32"
        },
        {
          "internalType": "uint256",
          "name": "_nonce",
          "type": "uint256"
        },
        {
          "internalType": "address",
          "name": "_realityEthAddress",
          "type": "address"
        },
        {
          "internalType": "uint256",
          "name": "_min_bond",
          "type": "uint256"
        },
        {
          "internalType": "address",
          "name": "_reputationTokenAddress",
          "type": "address"
        }
      ],
      "name": "createRealityEthMarket",
      "outputs": [],
      "stateMutability": "nonpayable",
      "type": "function"
    },
    {
      "inputs": [
        {
          "internalType": "string",
          "name": "_topic",
          "type": "string"
        },
        {
          "internalType": "string",
          "name": "_symbol",
          "type": "string"
        }
      ],
      "name": "deployReputationToken",
      "outputs": [],
      "stateMutability": "nonpayable",
      "type": "function"
    },
    {
      "inputs": [
        {
          "internalType": "uint256",
          "name": "tokenId",
          "type": "uint256"
        }
      ],
      "name": "getApproved",
      "outputs": [
        {
          "internalType": "address",
          "name": "",
          "type": "address"
        }
      ],
      "stateMutability": "view",
      "type": "function"
    },
    {
      "inputs": [
        {
          "internalType": "address",
          "name": "owner",
          "type": "address"
        },
        {
          "internalType": "address",
          "name": "operator",
          "type": "address"
        }
      ],
      "name": "isApprovedForAll",
      "outputs": [
        {
          "internalType": "bool",
          "name": "",
          "type": "bool"
        }
      ],
      "stateMutability": "view",
      "type": "function"
    },
    {
      "inputs": [
        {
          "internalType": "address",
          "name": "_user",
          "type": "address"
        }
      ],
      "name": "isInTrial",
      "outputs": [
        {
          "internalType": "bool",
          "name": "",
          "type": "bool"
        }
      ],
      "stateMutability": "view",
      "type": "function"
    },
    {
      "inputs": [
        {
          "internalType": "address",
          "name": "_user",
          "type": "address"
        }
      ],
      "name": "isSubscribed",
      "outputs": [
        {
          "internalType": "bool",
          "name": "",
          "type": "bool"
        }
      ],
      "stateMutability": "view",
      "type": "function"
    },
    {
      "inputs": [
        {
          "internalType": "address",
          "name": "_user",
          "type": "address"
        }
      ],
      "name": "isUser",
      "outputs": [
        {
          "internalType": "bool",
          "name": "",
          "type": "bool"
        }
      ],
      "stateMutability": "view",
      "type": "function"
    },
    {
      "inputs": [
        {
          "internalType": "address",
          "name": "_market",
          "type": "address"
        }
      ],
      "name": "logMarketResolved",
      "outputs": [],
      "stateMutability": "nonpayable",
      "type": "function"
    },
    {
      "inputs": [
        {
          "internalType": "address",
          "name": "_user",
          "type": "address"
        },
        {
          "internalType": "address",
          "name": "_market",
          "type": "address"
        },
        {
          "internalType": "bytes32",
          "name": "_prediction",
          "type": "bytes32"
        },
        {
          "internalType": "uint256",
          "name": "_predictionTimestamp",
          "type": "uint256"
        }
      ],
      "name": "logNewPrediction",
      "outputs": [],
      "stateMutability": "nonpayable",
      "type": "function"
    },
    {
      "inputs": [
        {
          "internalType": "address",
          "name": "_ownerAddress",
          "type": "address"
        },
        {
          "internalType": "uint256",
          "name": "_periodMultiplier",
          "type": "uint256"
        },
        {
          "internalType": "uint256",
          "name": "_startTime",
          "type": "uint256"
        }
      ],
      "name": "logNewSubscription",
      "outputs": [],
      "stateMutability": "nonpayable",
      "type": "function"
    },
    {
      "inputs": [],
      "name": "name",
      "outputs": [
        {
          "internalType": "string",
          "name": "",
          "type": "string"
        }
      ],
      "stateMutability": "view",
      "type": "function"
    },
    {
      "inputs": [],
      "name": "owner",
      "outputs": [
        {
          "internalType": "address",
          "name": "",
          "type": "address"
        }
      ],
      "stateMutability": "view",
      "type": "function"
    },
    {
      "inputs": [
        {
          "internalType": "uint256",
          "name": "tokenId",
          "type": "uint256"
        }
      ],
      "name": "ownerOf",
      "outputs": [
        {
          "internalType": "address",
          "name": "",
          "type": "address"
        }
      ],
      "stateMutability": "view",
      "type": "function"
    },
    {
      "inputs": [
        {
          "internalType": "address[]",
          "name": "marketAdresses",
          "type": "address[]"
        },
        {
          "internalType": "uint256[]",
          "name": "decodedPredictions",
          "type": "uint256[]"
        },
        {
          "internalType": "bytes[]",
          "name": "signatures",
          "type": "bytes[]"
        }
      ],
      "name": "receiveReputationMultipleMarkets",
      "outputs": [
        {
          "internalType": "bool",
          "name": "",
          "type": "bool"
        }
      ],
      "stateMutability": "nonpayable",
      "type": "function"
    },
    {
      "inputs": [],
      "name": "renounceOwnership",
      "outputs": [],
      "stateMutability": "nonpayable",
      "type": "function"
    },
    {
      "inputs": [
        {
          "internalType": "address",
          "name": "from",
          "type": "address"
        },
        {
          "internalType": "address",
          "name": "to",
          "type": "address"
        },
        {
          "internalType": "uint256",
          "name": "tokenId",
          "type": "uint256"
        }
      ],
      "name": "safeTransferFrom",
      "outputs": [],
      "stateMutability": "nonpayable",
      "type": "function"
    },
    {
      "inputs": [
        {
          "internalType": "address",
          "name": "from",
          "type": "address"
        },
        {
          "internalType": "address",
          "name": "to",
          "type": "address"
        },
        {
          "internalType": "uint256",
          "name": "tokenId",
          "type": "uint256"
        },
        {
          "internalType": "bytes",
          "name": "data",
          "type": "bytes"
        }
      ],
      "name": "safeTransferFrom",
      "outputs": [],
      "stateMutability": "nonpayable",
      "type": "function"
    },
    {
      "inputs": [
        {
          "internalType": "address",
          "name": "operator",
          "type": "address"
        },
        {
          "internalType": "bool",
          "name": "approved",
          "type": "bool"
        }
      ],
      "name": "setApprovalForAll",
      "outputs": [],
      "stateMutability": "nonpayable",
      "type": "function"
    },
    {
      "inputs": [
        {
          "internalType": "bytes4",
          "name": "interfaceId",
          "type": "bytes4"
        }
      ],
      "name": "supportsInterface",
      "outputs": [
        {
          "internalType": "bool",
          "name": "",
          "type": "bool"
        }
      ],
      "stateMutability": "view",
      "type": "function"
    },
    {
      "inputs": [],
      "name": "symbol",
      "outputs": [
        {
          "internalType": "string",
          "name": "",
          "type": "string"
        }
      ],
      "stateMutability": "view",
      "type": "function"
    },
    {
      "inputs": [
        {
          "internalType": "uint256",
          "name": "tokenId",
          "type": "uint256"
        }
      ],
      "name": "tokenURI",
      "outputs": [
        {
          "internalType": "string",
          "name": "",
          "type": "string"
        }
      ],
      "stateMutability": "view",
      "type": "function"
    },
    {
      "inputs": [
        {
          "internalType": "address",
          "name": "from",
          "type": "address"
        },
        {
          "internalType": "address",
          "name": "to",
          "type": "address"
        },
        {
          "internalType": "uint256",
          "name": "tokenId",
          "type": "uint256"
        }
      ],
      "name": "transferFrom",
      "outputs": [],
      "stateMutability": "nonpayable",
      "type": "function"
    },
    {
      "inputs": [
        {
          "internalType": "address",
          "name": "newOwner",
          "type": "address"
        }
      ],
      "name": "transferOwnership",
      "outputs": [],
      "stateMutability": "nonpayable",
      "type": "function"
    },
    {
      "inputs": [],
      "name": "trialPeriod",
      "outputs": [
        {
          "internalType": "uint256",
          "name": "",
          "type": "uint256"
        }
      ],
      "stateMutability": "view",
      "type": "function"
    },
    {
      "inputs": [
        {
          "internalType": "uint256",
          "name": "_newtrialPeriod",
          "type": "uint256"
        }
      ],
      "name": "updateTrialPeriod",
      "outputs": [],
      "stateMutability": "nonpayable",
      "type": "function"
    }
  ],
  "bytecode": "0x60806040523480156200001157600080fd5b50604051620069a9380380620069a9833981810160405281019062000037919062000364565b6040518060400160405280600d81526020017f507974686961466163746f7279000000000000000000000000000000000000008152506040518060400160405280600481526020017f50594146000000000000000000000000000000000000000000000000000000008152508160009081620000b4919062000646565b508060019081620000c6919062000646565b505050620000e9620000dd620001e360201b60201c565b620001eb60201b60201c565b603c80601886620000fb91906200075c565b6200010791906200075c565b6200011391906200075c565b600b81905550308383836040516200012b90620002b1565b6200013a9493929190620007c9565b604051809103906000f08015801562000157573d6000803e3d6000fd5b50600c60006101000a81548173ffffffffffffffffffffffffffffffffffffffff021916908373ffffffffffffffffffffffffffffffffffffffff1602179055507f6a3a881122940a13d6a1f9e93d335e431540ee6a24addde19aa00a61f73f88bf3084848442604051620001d195949392919062000816565b60405180910390a15050505062000873565b600033905090565b6000600660009054906101000a900473ffffffffffffffffffffffffffffffffffffffff16905081600660006101000a81548173ffffffffffffffffffffffffffffffffffffffff021916908373ffffffffffffffffffffffffffffffffffffffff1602179055508173ffffffffffffffffffffffffffffffffffffffff168173ffffffffffffffffffffffffffffffffffffffff167f8be0079c531659141344cd1fd0a4f28419497f9722a3daafe3b4186f6b6457e060405160405180910390a35050565b611395806200561483390190565b600080fd5b6000819050919050565b620002d981620002c4565b8114620002e557600080fd5b50565b600081519050620002f981620002ce565b92915050565b600073ffffffffffffffffffffffffffffffffffffffff82169050919050565b60006200032c82620002ff565b9050919050565b6200033e816200031f565b81146200034a57600080fd5b50565b6000815190506200035e8162000333565b92915050565b60008060008060808587031215620003815762000380620002bf565b5b60006200039187828801620002e8565b9450506020620003a4878288016200034d565b9350506040620003b7878288016200034d565b9250506060620003ca87828801620002e8565b91505092959194509250565b600081519050919050565b7f4e487b7100000000000000000000000000000000000000000000000000000000600052604160045260246000fd5b7f4e487b7100000000000000000000000000000000000000000000000000000000600052602260045260246000fd5b600060028204905060018216806200045857607f821691505b6020821081036200046e576200046d62000410565b5b50919050565b60008190508160005260206000209050919050565b60006020601f8301049050919050565b600082821b905092915050565b600060088302620004d87fffffffffffffffffffffffffffffffffffffffffffffffffffffffffffffffff8262000499565b620004e4868362000499565b95508019841693508086168417925050509392505050565b6000819050919050565b600062000527620005216200051b84620002c4565b620004fc565b620002c4565b9050919050565b6000819050919050565b620005438362000506565b6200055b62000552826200052e565b848454620004a6565b825550505050565b600090565b6200057262000563565b6200057f81848462000538565b505050565b5b81811015620005a7576200059b60008262000568565b60018101905062000585565b5050565b601f821115620005f657620005c08162000474565b620005cb8462000489565b81016020851015620005db578190505b620005f3620005ea8562000489565b83018262000584565b50505b505050565b600082821c905092915050565b60006200061b60001984600802620005fb565b1980831691505092915050565b600062000636838362000608565b9150826002028217905092915050565b6200065182620003d6565b67ffffffffffffffff8111156200066d576200066c620003e1565b5b6200067982546200043f565b62000686828285620005ab565b600060209050601f831160018114620006be5760008415620006a9578287015190505b620006b5858262000628565b86555062000725565b601f198416620006ce8662000474565b60005b82811015620006f857848901518255600182019150602085019450602081019050620006d1565b8683101562000718578489015162000714601f89168262000608565b8355505b6001600288020188555050505b505050505050565b7f4e487b7100000000000000000000000000000000000000000000000000000000600052601160045260246000fd5b60006200076982620002c4565b91506200077683620002c4565b92508282026200078681620002c4565b91508282048414831517620007a0576200079f6200072d565b5b5092915050565b620007b2816200031f565b82525050565b620007c381620002c4565b82525050565b6000608082019050620007e06000830187620007a7565b620007ef6020830186620007a7565b620007fe6040830185620007a7565b6200080d6060830184620007b8565b95945050505050565b600060a0820190506200082d6000830188620007a7565b6200083c6020830187620007a7565b6200084b6040830186620007a7565b6200085a6060830185620007b8565b620008696080830184620007b8565b9695505050505050565b614d9180620008836000396000f3fe608060405234801561001057600080fd5b50600436106101ce5760003560e01c806370a0823111610104578063ad36725e116100a2578063d548a39a11610071578063d548a39a14610527578063e985e9c514610543578063f2fde38b14610573578063f492bb941461058f576101ce565b8063ad36725e1461048d578063b88d4fde146104ab578063b92ae87c146104c7578063c87b56dd146104f7576101ce565b806395d89b41116100de57806395d89b411461042d5780639c8809c31461044b5780639dca362f14610467578063a22cb46514610471576101ce565b806370a08231146103d5578063715018a6146104055780638da5cb5b1461040f576101ce565b80634209fff11161017157806354453e741161014b57806354453e7414610351578063582e865f1461036d5780636352211e146103895780636a14f084146103b9576101ce565b80634209fff1146102e957806342842e0e14610319578063513450e514610335576101ce565b8063081812fc116101ad578063081812fc14610251578063095ea7b3146102815780630f7e31b11461029d57806323b872dd146102cd576101ce565b8062fd90bb146101d357806301ffc9a71461020357806306fdde0314610233575b600080fd5b6101ed60048036038101906101e89190612e38565b6105ab565b6040516101fa9190612f07565b60405180910390f35b61021d60048036038101906102189190612f7a565b6106d9565b60405161022a9190612f07565b60405180910390f35b61023b6107bb565b6040516102489190613037565b60405180910390f35b61026b6004803603810190610266919061308f565b61084d565b60405161027891906130fd565b60405180910390f35b61029b60048036038101906102969190613144565b610893565b005b6102b760048036038101906102b29190613184565b6109aa565b6040516102c49190612f07565b60405180910390f35b6102e760048036038101906102e291906131b1565b610a91565b005b61030360048036038101906102fe9190613184565b610af1565b6040516103109190612f07565b60405180910390f35b610333600480360381019061032e91906131b1565b610b4a565b005b61034f600480360381019061034a9190613204565b610b6a565b005b61036b600480360381019061036691906133c3565b610bbf565b005b61038760048036038101906103829190613584565b610d99565b005b6103a3600480360381019061039e919061308f565b610f6c565b6040516103b091906130fd565b60405180910390f35b6103d360048036038101906103ce919061365a565b610ff2565b005b6103ef60048036038101906103ea9190613184565b6110c7565b6040516103fc91906136e1565b60405180910390f35b61040d61117e565b005b610417611192565b60405161042491906130fd565b60405180910390f35b6104356111bc565b6040516104429190613037565b60405180910390f35b61046560048036038101906104609190613184565b61124e565b005b61046f6113ca565b005b61048b60048036038101906104869190613728565b6114cb565b005b6104956114e1565b6040516104a291906136e1565b60405180910390f35b6104c560048036038101906104c09190613809565b6114e7565b005b6104e160048036038101906104dc9190613184565b611549565b6040516104ee9190612f07565b60405180910390f35b610511600480360381019061050c919061308f565b6115ee565b60405161051e9190613037565b60405180910390f35b610541600480360381019061053c91906138c2565b611656565b005b61055d60048036038101906105589190613929565b6116c3565b60405161056a9190612f07565b60405180910390f35b61058d60048036038101906105889190613184565b611757565b005b6105a960048036038101906105a4919061308f565b6117da565b005b60008087879050905060008686905090506000858590509050818314610606576040517f08c379a00000000000000000000000000000000000000000000000000000000081526004016105fd906139db565b60405180910390fd5b808314610648576040517f08c379a000000000000000000000000000000000000000000000000000000000815260040161063f90613a6d565b60405180910390fd5b60005b838110156106c7576106c28b8b8381811061066957610668613a8d565b5b905060200201602081019061067e9190613184565b8a8a8481811061069157610690613a8d565b5b905060200201358989858181106106ab576106aa613a8d565b5b90506020028101906106bd9190613acb565b6117ec565b61064b565b50600193505050509695505050505050565b60007f80ac58cd000000000000000000000000000000000000000000000000000000007bffffffffffffffffffffffffffffffffffffffffffffffffffffffff1916827bffffffffffffffffffffffffffffffffffffffffffffffffffffffff191614806107a457507f5b5e139f000000000000000000000000000000000000000000000000000000007bffffffffffffffffffffffffffffffffffffffffffffffffffffffff1916827bffffffffffffffffffffffffffffffffffffffffffffffffffffffff1916145b806107b457506107b382611c46565b5b9050919050565b6060600080546107ca90613b5d565b80601f01602080910402602001604051908101604052809291908181526020018280546107f690613b5d565b80156108435780601f1061081857610100808354040283529160200191610843565b820191906000526020600020905b81548152906001019060200180831161082657829003601f168201915b5050505050905090565b600061085882611cb0565b6004600083815260200190815260200160002060009054906101000a900473ffffffffffffffffffffffffffffffffffffffff169050919050565b600061089e82610f6c565b90508073ffffffffffffffffffffffffffffffffffffffff168373ffffffffffffffffffffffffffffffffffffffff160361090e576040517f08c379a000000000000000000000000000000000000000000000000000000000815260040161090590613c00565b60405180910390fd5b8073ffffffffffffffffffffffffffffffffffffffff1661092d611cfb565b73ffffffffffffffffffffffffffffffffffffffff16148061095c575061095b81610956611cfb565b6116c3565b5b61099b576040517f08c379a000000000000000000000000000000000000000000000000000000000815260040161099290613c92565b60405180910390fd5b6109a58383611d03565b505050565b6000600760008373ffffffffffffffffffffffffffffffffffffffff1673ffffffffffffffffffffffffffffffffffffffff16815260200190815260200160002060000154421015610a31576040517f08c379a0000000000000000000000000000000000000000000000000000000008152600401610a2890613cfe565b60405180910390fd5b6000600760008473ffffffffffffffffffffffffffffffffffffffff1673ffffffffffffffffffffffffffffffffffffffff1681526020019081526020016000206000015442610a819190613d4d565b9050600b54811115915050919050565b610aa2610a9c611cfb565b82611dbc565b610ae1576040517f08c379a0000000000000000000000000000000000000000000000000000000008152600401610ad890613df3565b60405180910390fd5b610aec838383611e51565b505050565b6000600760008373ffffffffffffffffffffffffffffffffffffffff1673ffffffffffffffffffffffffffffffffffffffff16815260200190815260200160002060010160009054906101000a900460ff169050919050565b610b65838383604051806020016040528060008152506114e7565b505050565b8273ffffffffffffffffffffffffffffffffffffffff167feec977e786e7248a658b0474ccf8f57f37ead019014ec4d5ba1542ddabeff1b48383604051610bb2929190613e13565b60405180910390a2505050565b610bc761214a565b600073__$3df2ca9254ecbb55f109d9ad824fec3c00$__6342554eb0308e8e8e8e8e8e8e8e8e8e6040518c63ffffffff1660e01b8152600401610c149b9a99989796959493929190613eb3565b602060405180830381865af4158015610c31573d6000803e3d6000fd5b505050506040513d601f19601f82011682018060405250810190610c559190613f7a565b90506001600860008373ffffffffffffffffffffffffffffffffffffffff1673ffffffffffffffffffffffffffffffffffffffff16815260200190815260200160002060000160006101000a81548160ff02191690831515021790555081600860008373ffffffffffffffffffffffffffffffffffffffff1673ffffffffffffffffffffffffffffffffffffffff16815260200190815260200160002060000160016101000a81548173ffffffffffffffffffffffffffffffffffffffff021916908373ffffffffffffffffffffffffffffffffffffffff1602179055508073ffffffffffffffffffffffffffffffffffffffff167fbe289da69f191f0ee858560469625b39bbfec4fa2d414a2906ccf1f1f3ba9d4c428e8d8d878e604051610d8396959493929190613fa7565b60405180910390a2505050505050505050505050565b610da161214a565b600073__$3df2ca9254ecbb55f109d9ad824fec3c00$__637353f954308b8b8b8b8b8b8b6040518963ffffffff1660e01b8152600401610de89897969594939291906140ba565b602060405180830381865af4158015610e05573d6000803e3d6000fd5b505050506040513d601f19601f82011682018060405250810190610e299190613f7a565b90506001600860008373ffffffffffffffffffffffffffffffffffffffff1673ffffffffffffffffffffffffffffffffffffffff16815260200190815260200160002060000160006101000a81548160ff02191690831515021790555081600860008373ffffffffffffffffffffffffffffffffffffffff1673ffffffffffffffffffffffffffffffffffffffff16815260200190815260200160002060000160016101000a81548173ffffffffffffffffffffffffffffffffffffffff021916908373ffffffffffffffffffffffffffffffffffffffff1602179055508073ffffffffffffffffffffffffffffffffffffffff167f9c21205d8f5e6e55ddf47a5e1bee6e5acb25a2bd4d786d5c011493f75e901865428b8b8b8b8b89604051610f5997969594939291906141cc565b60405180910390a2505050505050505050565b600080610f78836121c8565b9050600073ffffffffffffffffffffffffffffffffffffffff168173ffffffffffffffffffffffffffffffffffffffff1603610fe9576040517f08c379a0000000000000000000000000000000000000000000000000000000008152600401610fe090614292565b60405180910390fd5b80915050919050565b600073__$47182815ebf7e31c4d44e090b1a748d68a$__63b548848784846040518363ffffffff1660e01b815260040161102d9291906142b2565b602060405180830381865af415801561104a573d6000803e3d6000fd5b505050506040513d601f19601f8201168201806040525081019061106e9190613f7a565b90508073ffffffffffffffffffffffffffffffffffffffff167f8193bc37eb6686833fca5383f8da5ed2a891ffffd7e58163b697ef00e35815e88484426040516110ba939291906142e9565b60405180910390a2505050565b60008073ffffffffffffffffffffffffffffffffffffffff168273ffffffffffffffffffffffffffffffffffffffff1603611137576040517f08c379a000000000000000000000000000000000000000000000000000000000815260040161112e906143a0565b60405180910390fd5b600360008373ffffffffffffffffffffffffffffffffffffffff1673ffffffffffffffffffffffffffffffffffffffff168152602001908152602001600020549050919050565b61118661214a565b6111906000612205565b565b6000600660009054906101000a900473ffffffffffffffffffffffffffffffffffffffff16905090565b6060600180546111cb90613b5d565b80601f01602080910402602001604051908101604052809291908181526020018280546111f790613b5d565b80156112445780601f1061121957610100808354040283529160200191611244565b820191906000526020600020905b81548152906001019060200180831161122757829003601f168201915b5050505050905090565b6000819050600115158173ffffffffffffffffffffffffffffffffffffffff16633f6fa6556040518163ffffffff1660e01b8152600401602060405180830381865afa1580156112a2573d6000803e3d6000fd5b505050506040513d601f19601f820116820180604052508101906112c691906143d5565b151514611308576040517f08c379a00000000000000000000000000000000000000000000000000000000081526004016112ff9061444e565b60405180910390fd5b8173ffffffffffffffffffffffffffffffffffffffff167fae3b4647cde4464880f9f327eb779e36d78c30f835aec6b95b754031729dcfb38273ffffffffffffffffffffffffffffffffffffffff166385bb7d696040518163ffffffff1660e01b8152600401602060405180830381865afa15801561138b573d6000803e3d6000fd5b505050506040513d601f19601f820116820180604052508101906113af9190614483565b426040516113be929190613e13565b60405180910390a25050565b60006113d6600d6122cb565b90506113e2600d6122d9565b6113ec33826122ef565b6000604051806040016040528042815260200160011515815250905080600760003373ffffffffffffffffffffffffffffffffffffffff1673ffffffffffffffffffffffffffffffffffffffff1681526020019081526020016000206000820151816000015560208201518160010160006101000a81548160ff0219169083151502179055509050503373ffffffffffffffffffffffffffffffffffffffff167fa27642fccf9a9a0a8a8e31188dfec60a6565c30a20ef3ed1eb3a779a79a36b2e82600001516040516114bf91906136e1565b60405180910390a25050565b6114dd6114d6611cfb565b838361230d565b5050565b600b5481565b6114f86114f2611cfb565b83611dbc565b611537576040517f08c379a000000000000000000000000000000000000000000000000000000000815260040161152e90613df3565b60405180910390fd5b61154384848484612479565b50505050565b6000600c60009054906101000a900473ffffffffffffffffffffffffffffffffffffffff1673ffffffffffffffffffffffffffffffffffffffff1663b92ae87c836040518263ffffffff1660e01b81526004016115a691906130fd565b602060405180830381865afa1580156115c3573d6000803e3d6000fd5b505050506040513d601f19601f820116820180604052508101906115e791906143d5565b9050919050565b60606115f982611cb0565b60006116036124d5565b90506000815111611623576040518060200160405280600081525061164e565b8061162d846124ec565b60405160200161163e9291906144ec565b6040516020818303038152906040525b915050919050565b8273ffffffffffffffffffffffffffffffffffffffff168473ffffffffffffffffffffffffffffffffffffffff167f2e48c1de81c9e22e88140cffd126783793f2b5dc5c6404afa219d647b6b271f984846040516116b592919061451f565b60405180910390a350505050565b6000600560008473ffffffffffffffffffffffffffffffffffffffff1673ffffffffffffffffffffffffffffffffffffffff16815260200190815260200160002060008373ffffffffffffffffffffffffffffffffffffffff1673ffffffffffffffffffffffffffffffffffffffff16815260200190815260200160002060009054906101000a900460ff16905092915050565b61175f61214a565b600073ffffffffffffffffffffffffffffffffffffffff168173ffffffffffffffffffffffffffffffffffffffff16036117ce576040517f08c379a00000000000000000000000000000000000000000000000000000000081526004016117c5906145ba565b60405180910390fd5b6117d781612205565b50565b6117e261214a565b80600b8190555050565b60011515600860008673ffffffffffffffffffffffffffffffffffffffff1673ffffffffffffffffffffffffffffffffffffffff16815260200190815260200160002060000160009054906101000a900460ff16151514611882576040517f08c379a00000000000000000000000000000000000000000000000000000000081526004016118799061464c565b60405180910390fd5b600033856040516020016118979291906146b4565b6040516020818303038152906040528051906020012060001c9050600015156009600083815260200190815260200160002060030160009054906101000a900460ff1615151461191c576040517f08c379a00000000000000000000000000000000000000000000000000000000081526004016119139061472c565b60405180910390fd5b60008590508073ffffffffffffffffffffffffffffffffffffffff1663dc5326498686866040518463ffffffff1660e01b815260040161195e9392919061478a565b600060405180830381600087803b15801561197857600080fd5b505af115801561198c573d6000803e3d6000fd5b5050505060008173ffffffffffffffffffffffffffffffffffffffff1663fc1bfb906040518163ffffffff1660e01b81526004016020604051808303816000875af11580156119df573d6000803e3d6000fd5b505050506040513d601f19601f82011682018060405250810190611a039190614483565b90506000600860008973ffffffffffffffffffffffffffffffffffffffff1673ffffffffffffffffffffffffffffffffffffffff16815260200190815260200160002060000160019054906101000a900473ffffffffffffffffffffffffffffffffffffffff1690506000819050336009600087815260200190815260200160002060000160006101000a81548173ffffffffffffffffffffffffffffffffffffffff021916908373ffffffffffffffffffffffffffffffffffffffff160217905550886009600087815260200190815260200160002060010160006101000a81548173ffffffffffffffffffffffffffffffffffffffff021916908373ffffffffffffffffffffffffffffffffffffffff16021790555082600960008781526020019081526020016000206002018190555060016009600087815260200190815260200160002060030160006101000a81548160ff0219169083151502179055508073ffffffffffffffffffffffffffffffffffffffff1663b624633c33856040518363ffffffff1660e01b8152600401611ba09291906147bc565b600060405180830381600087803b158015611bba57600080fd5b505af1158015611bce573d6000803e3d6000fd5b505050508873ffffffffffffffffffffffffffffffffffffffff163373ffffffffffffffffffffffffffffffffffffffff167fc57d81449bf95ee893a78c61c7990762b7d90602761ad9f7d8d051d562f9abf9858b42604051611c33939291906147e5565b60405180910390a3505050505050505050565b60007f01ffc9a7000000000000000000000000000000000000000000000000000000007bffffffffffffffffffffffffffffffffffffffffffffffffffffffff1916827bffffffffffffffffffffffffffffffffffffffffffffffffffffffff1916149050919050565b611cb9816125ba565b611cf8576040517f08c379a0000000000000000000000000000000000000000000000000000000008152600401611cef90614292565b60405180910390fd5b50565b600033905090565b816004600083815260200190815260200160002060006101000a81548173ffffffffffffffffffffffffffffffffffffffff021916908373ffffffffffffffffffffffffffffffffffffffff160217905550808273ffffffffffffffffffffffffffffffffffffffff16611d7683610f6c565b73ffffffffffffffffffffffffffffffffffffffff167f8c5be1e5ebec7d5bd14f71427d1e84f3dd0314c0f7b2291e5b200ac8c7c3b92560405160405180910390a45050565b600080611dc883610f6c565b90508073ffffffffffffffffffffffffffffffffffffffff168473ffffffffffffffffffffffffffffffffffffffff161480611e0a5750611e0981856116c3565b5b80611e4857508373ffffffffffffffffffffffffffffffffffffffff16611e308461084d565b73ffffffffffffffffffffffffffffffffffffffff16145b91505092915050565b8273ffffffffffffffffffffffffffffffffffffffff16611e7182610f6c565b73ffffffffffffffffffffffffffffffffffffffff1614611ec7576040517f08c379a0000000000000000000000000000000000000000000000000000000008152600401611ebe9061488e565b60405180910390fd5b600073ffffffffffffffffffffffffffffffffffffffff168273ffffffffffffffffffffffffffffffffffffffff1603611f36576040517f08c379a0000000000000000000000000000000000000000000000000000000008152600401611f2d90614920565b60405180910390fd5b611f4383838360016125fb565b8273ffffffffffffffffffffffffffffffffffffffff16611f6382610f6c565b73ffffffffffffffffffffffffffffffffffffffff1614611fb9576040517f08c379a0000000000000000000000000000000000000000000000000000000008152600401611fb09061488e565b60405180910390fd5b6004600082815260200190815260200160002060006101000a81549073ffffffffffffffffffffffffffffffffffffffff02191690556001600360008573ffffffffffffffffffffffffffffffffffffffff1673ffffffffffffffffffffffffffffffffffffffff168152602001908152602001600020600082825403925050819055506001600360008473ffffffffffffffffffffffffffffffffffffffff1673ffffffffffffffffffffffffffffffffffffffff16815260200190815260200160002060008282540192505081905550816002600083815260200190815260200160002060006101000a81548173ffffffffffffffffffffffffffffffffffffffff021916908373ffffffffffffffffffffffffffffffffffffffff160217905550808273ffffffffffffffffffffffffffffffffffffffff168473ffffffffffffffffffffffffffffffffffffffff167fddf252ad1be2c89b69c2b068fc378daa952ba7f163c4a11628f55a4df523b3ef60405160405180910390a4612145838383600161273d565b505050565b612152611cfb565b73ffffffffffffffffffffffffffffffffffffffff16612170611192565b73ffffffffffffffffffffffffffffffffffffffff16146121c6576040517f08c379a00000000000000000000000000000000000000000000000000000000081526004016121bd9061498c565b60405180910390fd5b565b60006002600083815260200190815260200160002060009054906101000a900473ffffffffffffffffffffffffffffffffffffffff169050919050565b6000600660009054906101000a900473ffffffffffffffffffffffffffffffffffffffff16905081600660006101000a81548173ffffffffffffffffffffffffffffffffffffffff021916908373ffffffffffffffffffffffffffffffffffffffff1602179055508173ffffffffffffffffffffffffffffffffffffffff168173ffffffffffffffffffffffffffffffffffffffff167f8be0079c531659141344cd1fd0a4f28419497f9722a3daafe3b4186f6b6457e060405160405180910390a35050565b600081600001549050919050565b6001816000016000828254019250508190555050565b61230982826040518060200160405280600081525061279e565b5050565b8173ffffffffffffffffffffffffffffffffffffffff168373ffffffffffffffffffffffffffffffffffffffff160361237b576040517f08c379a0000000000000000000000000000000000000000000000000000000008152600401612372906149f8565b60405180910390fd5b80600560008573ffffffffffffffffffffffffffffffffffffffff1673ffffffffffffffffffffffffffffffffffffffff16815260200190815260200160002060008473ffffffffffffffffffffffffffffffffffffffff1673ffffffffffffffffffffffffffffffffffffffff16815260200190815260200160002060006101000a81548160ff0219169083151502179055508173ffffffffffffffffffffffffffffffffffffffff168373ffffffffffffffffffffffffffffffffffffffff167f17307eab39ab6107e8899845ad3d59bd9653f200f220920489ca2b5937696c318360405161246c9190612f07565b60405180910390a3505050565b612484848484611e51565b612490848484846127f9565b6124cf576040517f08c379a00000000000000000000000000000000000000000000000000000000081526004016124c690614a8a565b60405180910390fd5b50505050565b606060405180602001604052806000815250905090565b6060600060016124fb84612980565b01905060008167ffffffffffffffff81111561251a5761251961325c565b5b6040519080825280601f01601f19166020018201604052801561254c5781602001600182028036833780820191505090505b509050600082602001820190505b6001156125af578080600190039150507f3031323334353637383961626364656600000000000000000000000000000000600a86061a8153600a85816125a3576125a2614aaa565b5b0494506000850361255a575b819350505050919050565b60008073ffffffffffffffffffffffffffffffffffffffff166125dc836121c8565b73ffffffffffffffffffffffffffffffffffffffff1614159050919050565b60001515600760008573ffffffffffffffffffffffffffffffffffffffff1673ffffffffffffffffffffffffffffffffffffffff16815260200190815260200160002060010160009054906101000a900460ff16151514612691576040517f08c379a000000000000000000000000000000000000000000000000000000000815260040161268890614b25565b60405180910390fd5b600073ffffffffffffffffffffffffffffffffffffffff168473ffffffffffffffffffffffffffffffffffffffff1614806126f85750600073ffffffffffffffffffffffffffffffffffffffff168373ffffffffffffffffffffffffffffffffffffffff16145b612737576040517f08c379a000000000000000000000000000000000000000000000000000000000815260040161272e90614b91565b60405180910390fd5b50505050565b818473ffffffffffffffffffffffffffffffffffffffff168473ffffffffffffffffffffffffffffffffffffffff167fddf252ad1be2c89b69c2b068fc378daa952ba7f163c4a11628f55a4df523b3ef60405160405180910390a450505050565b6127a88383612ad3565b6127b560008484846127f9565b6127f4576040517f08c379a00000000000000000000000000000000000000000000000000000000081526004016127eb90614a8a565b60405180910390fd5b505050565b600061281a8473ffffffffffffffffffffffffffffffffffffffff16612cf0565b15612973578373ffffffffffffffffffffffffffffffffffffffff1663150b7a02612843611cfb565b8786866040518563ffffffff1660e01b81526004016128659493929190614bf5565b6020604051808303816000875af19250505080156128a157506040513d601f19601f8201168201806040525081019061289e9190614c56565b60015b612923573d80600081146128d1576040519150601f19603f3d011682016040523d82523d6000602084013e6128d6565b606091505b50600081510361291b576040517f08c379a000000000000000000000000000000000000000000000000000000000815260040161291290614a8a565b60405180910390fd5b805181602001fd5b63150b7a0260e01b7bffffffffffffffffffffffffffffffffffffffffffffffffffffffff1916817bffffffffffffffffffffffffffffffffffffffffffffffffffffffff191614915050612978565b600190505b949350505050565b600080600090507a184f03e93ff9f4daa797ed6e38ed64bf6a1f01000000000000000083106129de577a184f03e93ff9f4daa797ed6e38ed64bf6a1f01000000000000000083816129d4576129d3614aaa565b5b0492506040810190505b6d04ee2d6d415b85acef81000000008310612a1b576d04ee2d6d415b85acef81000000008381612a1157612a10614aaa565b5b0492506020810190505b662386f26fc100008310612a4a57662386f26fc100008381612a4057612a3f614aaa565b5b0492506010810190505b6305f5e1008310612a73576305f5e1008381612a6957612a68614aaa565b5b0492506008810190505b6127108310612a98576127108381612a8e57612a8d614aaa565b5b0492506004810190505b60648310612abb5760648381612ab157612ab0614aaa565b5b0492506002810190505b600a8310612aca576001810190505b80915050919050565b600073ffffffffffffffffffffffffffffffffffffffff168273ffffffffffffffffffffffffffffffffffffffff1603612b42576040517f08c379a0000000000000000000000000000000000000000000000000000000008152600401612b3990614ccf565b60405180910390fd5b612b4b816125ba565b15612b8b576040517f08c379a0000000000000000000000000000000000000000000000000000000008152600401612b8290614d3b565b60405180910390fd5b612b996000838360016125fb565b612ba2816125ba565b15612be2576040517f08c379a0000000000000000000000000000000000000000000000000000000008152600401612bd990614d3b565b60405180910390fd5b6001600360008473ffffffffffffffffffffffffffffffffffffffff1673ffffffffffffffffffffffffffffffffffffffff16815260200190815260200160002060008282540192505081905550816002600083815260200190815260200160002060006101000a81548173ffffffffffffffffffffffffffffffffffffffff021916908373ffffffffffffffffffffffffffffffffffffffff160217905550808273ffffffffffffffffffffffffffffffffffffffff16600073ffffffffffffffffffffffffffffffffffffffff167fddf252ad1be2c89b69c2b068fc378daa952ba7f163c4a11628f55a4df523b3ef60405160405180910390a4612cec60008383600161273d565b5050565b6000808273ffffffffffffffffffffffffffffffffffffffff163b119050919050565b6000604051905090565b600080fd5b600080fd5b600080fd5b600080fd5b600080fd5b60008083601f840112612d4c57612d4b612d27565b5b8235905067ffffffffffffffff811115612d6957612d68612d2c565b5b602083019150836020820283011115612d8557612d84612d31565b5b9250929050565b60008083601f840112612da257612da1612d27565b5b8235905067ffffffffffffffff811115612dbf57612dbe612d2c565b5b602083019150836020820283011115612ddb57612dda612d31565b5b9250929050565b60008083601f840112612df857612df7612d27565b5b8235905067ffffffffffffffff811115612e1557612e14612d2c565b5b602083019150836020820283011115612e3157612e30612d31565b5b9250929050565b60008060008060008060608789031215612e5557612e54612d1d565b5b600087013567ffffffffffffffff811115612e7357612e72612d22565b5b612e7f89828a01612d36565b9650965050602087013567ffffffffffffffff811115612ea257612ea1612d22565b5b612eae89828a01612d8c565b9450945050604087013567ffffffffffffffff811115612ed157612ed0612d22565b5b612edd89828a01612de2565b92509250509295509295509295565b60008115159050919050565b612f0181612eec565b82525050565b6000602082019050612f1c6000830184612ef8565b92915050565b60007fffffffff0000000000000000000000000000000000000000000000000000000082169050919050565b612f5781612f22565b8114612f6257600080fd5b50565b600081359050612f7481612f4e565b92915050565b600060208284031215612f9057612f8f612d1d565b5b6000612f9e84828501612f65565b91505092915050565b600081519050919050565b600082825260208201905092915050565b60005b83811015612fe1578082015181840152602081019050612fc6565b60008484015250505050565b6000601f19601f8301169050919050565b600061300982612fa7565b6130138185612fb2565b9350613023818560208601612fc3565b61302c81612fed565b840191505092915050565b600060208201905081810360008301526130518184612ffe565b905092915050565b6000819050919050565b61306c81613059565b811461307757600080fd5b50565b60008135905061308981613063565b92915050565b6000602082840312156130a5576130a4612d1d565b5b60006130b38482850161307a565b91505092915050565b600073ffffffffffffffffffffffffffffffffffffffff82169050919050565b60006130e7826130bc565b9050919050565b6130f7816130dc565b82525050565b600060208201905061311260008301846130ee565b92915050565b613121816130dc565b811461312c57600080fd5b50565b60008135905061313e81613118565b92915050565b6000806040838503121561315b5761315a612d1d565b5b60006131698582860161312f565b925050602061317a8582860161307a565b9150509250929050565b60006020828403121561319a57613199612d1d565b5b60006131a88482850161312f565b91505092915050565b6000806000606084860312156131ca576131c9612d1d565b5b60006131d88682870161312f565b93505060206131e98682870161312f565b92505060406131fa8682870161307a565b9150509250925092565b60008060006060848603121561321d5761321c612d1d565b5b600061322b8682870161312f565b935050602061323c8682870161307a565b925050604061324d8682870161307a565b9150509250925092565b600080fd5b7f4e487b7100000000000000000000000000000000000000000000000000000000600052604160045260246000fd5b61329482612fed565b810181811067ffffffffffffffff821117156132b3576132b261325c565b5b80604052505050565b60006132c6612d13565b90506132d2828261328b565b919050565b600067ffffffffffffffff8211156132f2576132f161325c565b5b6132fb82612fed565b9050602081019050919050565b82818337600083830152505050565b600061332a613325846132d7565b6132bc565b90508281526020810184848401111561334657613345613257565b5b613351848285613308565b509392505050565b600082601f83011261336e5761336d612d27565b5b813561337e848260208601613317565b91505092915050565b600063ffffffff82169050919050565b6133a081613387565b81146133ab57600080fd5b50565b6000813590506133bd81613397565b92915050565b60008060008060008060008060008060006101608c8e0312156133e9576133e8612d1d565b5b60008c013567ffffffffffffffff81111561340757613406612d22565b5b6134138e828f01613359565b9b505060206134248e828f0161307a565b9a505060406134358e828f0161307a565b99505060606134468e828f0161307a565b98505060806134578e828f0161307a565b97505060a06134688e828f0161312f565b96505060c06134798e828f016133ae565b95505060e061348a8e828f0161307a565b94505061010061349c8e828f0161312f565b9350506101206134ae8e828f0161307a565b9250506101406134c08e828f0161312f565b9150509295989b509295989b9093969950565b600067ffffffffffffffff8211156134ee576134ed61325c565b5b602082029050919050565b600061350c613507846134d3565b6132bc565b9050806020840283018581111561352657613525612d31565b5b835b8181101561354f578061353b888261307a565b845260208401935050602081019050613528565b5050509392505050565b600082601f83011261356e5761356d612d27565b5b600561357b8482856134f9565b91505092915050565b600080600080600080600080610180898b0312156135a5576135a4612d1d565b5b600089013567ffffffffffffffff8111156135c3576135c2612d22565b5b6135cf8b828c01613359565b98505060206135e08b828c01613559565b97505060c06135f18b828c0161307a565b96505060e06136028b828c0161307a565b9550506101006136148b828c0161307a565b9450506101206136268b828c0161312f565b9350506101406136388b828c0161312f565b92505061016061364a8b828c0161312f565b9150509295985092959890939650565b6000806040838503121561367157613670612d1d565b5b600083013567ffffffffffffffff81111561368f5761368e612d22565b5b61369b85828601613359565b925050602083013567ffffffffffffffff8111156136bc576136bb612d22565b5b6136c885828601613359565b9150509250929050565b6136db81613059565b82525050565b60006020820190506136f660008301846136d2565b92915050565b61370581612eec565b811461371057600080fd5b50565b600081359050613722816136fc565b92915050565b6000806040838503121561373f5761373e612d1d565b5b600061374d8582860161312f565b925050602061375e85828601613713565b9150509250929050565b600067ffffffffffffffff8211156137835761378261325c565b5b61378c82612fed565b9050602081019050919050565b60006137ac6137a784613768565b6132bc565b9050828152602081018484840111156137c8576137c7613257565b5b6137d3848285613308565b509392505050565b600082601f8301126137f0576137ef612d27565b5b8135613800848260208601613799565b91505092915050565b6000806000806080858703121561382357613822612d1d565b5b60006138318782880161312f565b94505060206138428782880161312f565b93505060406138538782880161307a565b925050606085013567ffffffffffffffff81111561387457613873612d22565b5b613880878288016137db565b91505092959194509250565b6000819050919050565b61389f8161388c565b81146138aa57600080fd5b50565b6000813590506138bc81613896565b92915050565b600080600080608085870312156138dc576138db612d1d565b5b60006138ea8782880161312f565b94505060206138fb8782880161312f565b935050604061390c878288016138ad565b925050606061391d8782880161307a565b91505092959194509250565b600080604083850312156139405761393f612d1d565b5b600061394e8582860161312f565b925050602061395f8582860161312f565b9150509250929050565b7f6e756d626572206f662070726564696374696f6e73207061737365642069732060008201527f6e6f7420657175616c20746f206e756d626572206f66206d61726b6574647300602082015250565b60006139c5603f83612fb2565b91506139d082613969565b604082019050919050565b600060208201905081810360008301526139f4816139b8565b9050919050565b7f6e756d626572206f66207369676e61747572657320706173736564206973206e60008201527f6f7420657175616c20746f206e756d626572206f66206d61726b657464730000602082015250565b6000613a57603e83612fb2565b9150613a62826139fb565b604082019050919050565b60006020820190508181036000830152613a8681613a4a565b9050919050565b7f4e487b7100000000000000000000000000000000000000000000000000000000600052603260045260246000fd5b600080fd5b600080fd5b600080fd5b60008083356001602003843603038112613ae857613ae7613abc565b5b80840192508235915067ffffffffffffffff821115613b0a57613b09613ac1565b5b602083019250600182023603831315613b2657613b25613ac6565b5b509250929050565b7f4e487b7100000000000000000000000000000000000000000000000000000000600052602260045260246000fd5b60006002820490506001821680613b7557607f821691505b602082108103613b8857613b87613b2e565b5b50919050565b7f4552433732313a20617070726f76616c20746f2063757272656e74206f776e6560008201527f7200000000000000000000000000000000000000000000000000000000000000602082015250565b6000613bea602183612fb2565b9150613bf582613b8e565b604082019050919050565b60006020820190508181036000830152613c1981613bdd565b9050919050565b7f4552433732313a20617070726f76652063616c6c6572206973206e6f7420746f60008201527f6b656e206f776e6572206f7220617070726f76656420666f7220616c6c000000602082015250565b6000613c7c603d83612fb2565b9150613c8782613c20565b604082019050919050565b60006020820190508181036000830152613cab81613c6f565b9050919050565b7f74696d65206973206e6567617469766500000000000000000000000000000000600082015250565b6000613ce8601083612fb2565b9150613cf382613cb2565b602082019050919050565b60006020820190508181036000830152613d1781613cdb565b9050919050565b7f4e487b7100000000000000000000000000000000000000000000000000000000600052601160045260246000fd5b6000613d5882613059565b9150613d6383613059565b9250828203905081811115613d7b57613d7a613d1e565b5b92915050565b7f4552433732313a2063616c6c6572206973206e6f7420746f6b656e206f776e6560008201527f72206f7220617070726f76656400000000000000000000000000000000000000602082015250565b6000613ddd602d83612fb2565b9150613de882613d81565b604082019050919050565b60006020820190508181036000830152613e0c81613dd0565b9050919050565b6000604082019050613e2860008301856136d2565b613e3560208301846136d2565b9392505050565b613e45816130dc565b82525050565b600082825260208201905092915050565b6000613e6782612fa7565b613e718185613e4b565b9350613e81818560208601612fc3565b613e8a81612fed565b840191505092915050565b613e9e81613059565b82525050565b613ead81613387565b82525050565b600061016082019050613ec9600083018e613e3c565b8181036020830152613edb818d613e5c565b9050613eea604083018c613e95565b613ef7606083018b613e95565b613f04608083018a613e95565b613f1160a0830189613e95565b613f1e60c0830188613e3c565b613f2b60e0830187613ea4565b613f39610100830186613e95565b613f47610120830185613e3c565b613f55610140830184613e95565b9c9b505050505050505050505050565b600081519050613f7481613118565b92915050565b600060208284031215613f9057613f8f612d1d565b5b6000613f9e84828501613f65565b91505092915050565b600060c082019050613fbc60008301896136d2565b8181036020830152613fce8188612ffe565b9050613fdd60408301876136d2565b613fea60608301866136d2565b613ff760808301856130ee565b61400460a08301846136d2565b979650505050505050565b600060059050919050565b600081905092915050565b6000819050919050565b61403881613059565b82525050565b600061404a838361402f565b60208301905092915050565b6000602082019050919050565b61406c8161400f565b614076818461401a565b925061408182614025565b8060005b838110156140b2578151614099878261403e565b96506140a483614056565b925050600181019050614085565b505050505050565b6000610180820190506140d0600083018b613e3c565b81810360208301526140e2818a613e5c565b90506140f16040830189614063565b6140fe60e0830188613e95565b61410c610100830187613e95565b61411a610120830186613e95565b614128610140830185613e3c565b614136610160830184613e3c565b9998505050505050505050565b600081905092915050565b61415781613059565b82525050565b6000614169838361414e565b60208301905092915050565b61417e8161400f565b6141888184614143565b925061419382614025565b8060005b838110156141c45781516141ab878261415d565b96506141b683614056565b925050600181019050614197565b505050505050565b6000610160820190506141e2600083018a6136d2565b81810360208301526141f48189612ffe565b90506142036040830188614175565b61421060e08301876136d2565b61421e6101008301866136d2565b61422c6101208301856136d2565b61423a6101408301846130ee565b98975050505050505050565b7f4552433732313a20696e76616c696420746f6b656e2049440000000000000000600082015250565b600061427c601883612fb2565b915061428782614246565b602082019050919050565b600060208201905081810360008301526142ab8161426f565b9050919050565b600060408201905081810360008301526142cc8185613e5c565b905081810360208301526142e08184613e5c565b90509392505050565b600060608201905081810360008301526143038186612ffe565b905081810360208301526143178185612ffe565b905061432660408301846136d2565b949350505050565b7f4552433732313a2061646472657373207a65726f206973206e6f74206120766160008201527f6c6964206f776e65720000000000000000000000000000000000000000000000602082015250565b600061438a602983612fb2565b91506143958261432e565b604082019050919050565b600060208201905081810360008301526143b98161437d565b9050919050565b6000815190506143cf816136fc565b92915050565b6000602082840312156143eb576143ea612d1d565b5b60006143f9848285016143c0565b91505092915050565b7f6d61726b6574206973206e6f74207265736f6c76656400000000000000000000600082015250565b6000614438601683612fb2565b915061444382614402565b602082019050919050565b600060208201905081810360008301526144678161442b565b9050919050565b60008151905061447d81613063565b92915050565b60006020828403121561449957614498612d1d565b5b60006144a78482850161446e565b91505092915050565b600081905092915050565b60006144c682612fa7565b6144d081856144b0565b93506144e0818560208601612fc3565b80840191505092915050565b60006144f882856144bb565b915061450482846144bb565b91508190509392505050565b6145198161388c565b82525050565b60006040820190506145346000830185614510565b61454160208301846136d2565b9392505050565b7f4f776e61626c653a206e6577206f776e657220697320746865207a65726f206160008201527f6464726573730000000000000000000000000000000000000000000000000000602082015250565b60006145a4602683612fb2565b91506145af82614548565b604082019050919050565b600060208201905081810360008301526145d381614597565b9050919050565b7f6d61726b657420776974682074686973206164647265737320646f6573206e6f60008201527f7420657869737473000000000000000000000000000000000000000000000000602082015250565b6000614636602883612fb2565b9150614641826145da565b604082019050919050565b6000602082019050818103600083015261466581614629565b9050919050565b60008160601b9050919050565b60006146848261466c565b9050919050565b600061469682614679565b9050919050565b6146ae6146a9826130dc565b61468b565b82525050565b60006146c0828561469d565b6014820191506146d0828461469d565b6014820191508190509392505050565b7f72657075746174696f6e2077617320616c726561647920726563656976656400600082015250565b6000614716601f83612fb2565b9150614721826146e0565b602082019050919050565b6000602082019050818103600083015261474581614709565b9050919050565b600082825260208201905092915050565b6000614769838561474c565b9350614776838584613308565b61477f83612fed565b840190509392505050565b600060408201905061479f60008301866136d2565b81810360208301526147b281848661475d565b9050949350505050565b60006040820190506147d160008301856130ee565b6147de60208301846136d2565b9392505050565b60006060820190506147fa60008301866136d2565b61480760208301856136d2565b61481460408301846136d2565b949350505050565b7f4552433732313a207472616e736665722066726f6d20696e636f72726563742060008201527f6f776e6572000000000000000000000000000000000000000000000000000000602082015250565b6000614878602583612fb2565b91506148838261481c565b604082019050919050565b600060208201905081810360008301526148a78161486b565b9050919050565b7f4552433732313a207472616e7366657220746f20746865207a65726f2061646460008201527f7265737300000000000000000000000000000000000000000000000000000000602082015250565b600061490a602483612fb2565b9150614915826148ae565b604082019050919050565b60006020820190508181036000830152614939816148fd565b9050919050565b7f4f776e61626c653a2063616c6c6572206973206e6f7420746865206f776e6572600082015250565b6000614976602083612fb2565b915061498182614940565b602082019050919050565b600060208201905081810360008301526149a581614969565b9050919050565b7f4552433732313a20617070726f766520746f2063616c6c657200000000000000600082015250565b60006149e2601983612fb2565b91506149ed826149ac565b602082019050919050565b60006020820190508181036000830152614a11816149d5565b9050919050565b7f4552433732313a207472616e7366657220746f206e6f6e20455243373231526560008201527f63656976657220696d706c656d656e7465720000000000000000000000000000602082015250565b6000614a74603283612fb2565b9150614a7f82614a18565b604082019050919050565b60006020820190508181036000830152614aa381614a67565b9050919050565b7f4e487b7100000000000000000000000000000000000000000000000000000000600052601260045260246000fd5b7f7573657220616c72656164792065786973747300000000000000000000000000600082015250565b6000614b0f601383612fb2565b9150614b1a82614ad9565b602082019050919050565b60006020820190508181036000830152614b3e81614b02565b9050919050565b7f63616e2774207472616e736665722070726f66696c6500000000000000000000600082015250565b6000614b7b601683612fb2565b9150614b8682614b45565b602082019050919050565b60006020820190508181036000830152614baa81614b6e565b9050919050565b600081519050919050565b6000614bc782614bb1565b614bd1818561474c565b9350614be1818560208601612fc3565b614bea81612fed565b840191505092915050565b6000608082019050614c0a60008301876130ee565b614c1760208301866130ee565b614c2460408301856136d2565b8181036060830152614c368184614bbc565b905095945050505050565b600081519050614c5081612f4e565b92915050565b600060208284031215614c6c57614c6b612d1d565b5b6000614c7a84828501614c41565b91505092915050565b7f4552433732313a206d696e7420746f20746865207a65726f2061646472657373600082015250565b6000614cb9602083612fb2565b9150614cc482614c83565b602082019050919050565b60006020820190508181036000830152614ce881614cac565b9050919050565b7f4552433732313a20746f6b656e20616c7265616479206d696e74656400000000600082015250565b6000614d25601c83612fb2565b9150614d3082614cef565b602082019050919050565b60006020820190508181036000830152614d5481614d18565b905091905056fea2646970667358221220cd444c8041ee3828fd417ad443455cde42f9322b3cd8cced613b03d36a6febb164736f6c6343000812003360806040523480156200001157600080fd5b5060405162001395380380620013958339818101604052810190620000379190620001b0565b82600160006101000a81548173ffffffffffffffffffffffffffffffffffffffff021916908373ffffffffffffffffffffffffffffffffffffffff16021790555081600260006101000a81548173ffffffffffffffffffffffffffffffffffffffff021916908373ffffffffffffffffffffffffffffffffffffffff1602179055508060038190555083600460006101000a81548173ffffffffffffffffffffffffffffffffffffffff021916908373ffffffffffffffffffffffffffffffffffffffff1602179055505050505062000222565b600080fd5b600073ffffffffffffffffffffffffffffffffffffffff82169050919050565b60006200013d8262000110565b9050919050565b6200014f8162000130565b81146200015b57600080fd5b50565b6000815190506200016f8162000144565b92915050565b6000819050919050565b6200018a8162000175565b81146200019657600080fd5b50565b600081519050620001aa816200017f565b92915050565b60008060008060808587031215620001cd57620001cc6200010b565b5b6000620001dd878288016200015e565b9450506020620001f0878288016200015e565b935050604062000203878288016200015e565b9250506060620002168782880162000199565b91505092959194509250565b61116380620002326000396000f3fe608060405234801561001057600080fd5b50600436106100625760003560e01c806324e9edb014610067578063366f2d861461008557806338b34251146100b557806359b8ad65146100d1578063b92ae87c14610101578063f046395a14610131575b600080fd5b61006f610164565b60405161007c9190610abf565b60405180910390f35b61009f600480360381019061009a9190610b3d565b610239565b6040516100ac9190610abf565b60405180910390f35b6100cf60048036038101906100ca9190610ba0565b610372565b005b6100eb60048036038101906100e69190610b3d565b61086b565b6040516100f89190610abf565b60405180910390f35b61011b60048036038101906101169190610b3d565b610a0f565b6040516101289190610abf565b60405180910390f35b61014b60048036038101906101469190610b3d565b610a67565b60405161015b9493929190610bdc565b60405180910390f35b6000600115156000803373ffffffffffffffffffffffffffffffffffffffff1673ffffffffffffffffffffffffffffffffffffffff16815260200190815260200160002060030160009054906101000a900460ff161515146101c557600080fd5b6000803373ffffffffffffffffffffffffffffffffffffffff1673ffffffffffffffffffffffffffffffffffffffff168152602001908152602001600020600080820160009055600182016000905560028201600090556003820160006101000a81549060ff021916905550506001905090565b6000806000808473ffffffffffffffffffffffffffffffffffffffff1673ffffffffffffffffffffffffffffffffffffffff1681526020019081526020016000206040518060800160405290816000820154815260200160018201548152602001600282015481526020016003820160009054906101000a900460ff161515151581525050905060011515816060015115151461030b576040517f08c379a000000000000000000000000000000000000000000000000000000000815260040161030290610c7e565b60405180910390fd5b4281602001511115610352576040517f08c379a000000000000000000000000000000000000000000000000000000000815260040161034990610cea565b60405180910390fd5b4281604001511161036757600191505061036d565b60009150505b919050565b600015156000803373ffffffffffffffffffffffffffffffffffffffff1673ffffffffffffffffffffffffffffffffffffffff16815260200190815260200160002060030160009054906101000a900460ff16151514610407576040517f08c379a00000000000000000000000000000000000000000000000000000000081526004016103fe90610d56565b60405180910390fd5b600062278d0060035461041a9190610da5565b905080600160009054906101000a900473ffffffffffffffffffffffffffffffffffffffff1673ffffffffffffffffffffffffffffffffffffffff166370a08231336040518263ffffffff1660e01b81526004016104789190610df6565b602060405180830381865afa158015610495573d6000803e3d6000fd5b505050506040513d601f19601f820116820180604052508101906104b99190610e26565b10156104fa576040517f08c379a00000000000000000000000000000000000000000000000000000000081526004016104f190610ec5565b60405180910390fd5b80600160009054906101000a900473ffffffffffffffffffffffffffffffffffffffff1673ffffffffffffffffffffffffffffffffffffffff1663dd62ed3e33306040518363ffffffff1660e01b8152600401610558929190610ee5565b602060405180830381865afa158015610575573d6000803e3d6000fd5b505050506040513d601f19601f820116820180604052508101906105999190610e26565b10156105da576040517f08c379a00000000000000000000000000000000000000000000000000000000081526004016105d190610f80565b60405180910390fd5b816000803373ffffffffffffffffffffffffffffffffffffffff1673ffffffffffffffffffffffffffffffffffffffff16815260200190815260200160002060000181905550426000803373ffffffffffffffffffffffffffffffffffffffff1673ffffffffffffffffffffffffffffffffffffffff1681526020019081526020016000206001018190555060016000803373ffffffffffffffffffffffffffffffffffffffff1673ffffffffffffffffffffffffffffffffffffffff16815260200190815260200160002060030160006101000a81548160ff02191690831515021790555081426106cc9190610fa0565b6000803373ffffffffffffffffffffffffffffffffffffffff1673ffffffffffffffffffffffffffffffffffffffff16815260200190815260200160002060020181905550600160009054906101000a900473ffffffffffffffffffffffffffffffffffffffff1673ffffffffffffffffffffffffffffffffffffffff166323b872dd33600260009054906101000a900473ffffffffffffffffffffffffffffffffffffffff16846040518463ffffffff1660e01b815260040161079293929190610fd4565b6020604051808303816000875af11580156107b1573d6000803e3d6000fd5b505050506040513d601f19601f820116820180604052508101906107d59190611037565b50600460009054906101000a900473ffffffffffffffffffffffffffffffffffffffff1673ffffffffffffffffffffffffffffffffffffffff1663513450e53384426040518463ffffffff1660e01b815260040161083593929190611064565b600060405180830381600087803b15801561084f57600080fd5b505af1158015610863573d6000803e3d6000fd5b505050505050565b6000806000808473ffffffffffffffffffffffffffffffffffffffff1673ffffffffffffffffffffffffffffffffffffffff1681526020019081526020016000209050600060035482600001546108c29190610da5565b90506108cd84610239565b61090c576040517f08c379a00000000000000000000000000000000000000000000000000000000081526004016109039061110d565b60405180910390fd5b600160009054906101000a900473ffffffffffffffffffffffffffffffffffffffff1673ffffffffffffffffffffffffffffffffffffffff166323b872dd85600260009054906101000a900473ffffffffffffffffffffffffffffffffffffffff16846040518463ffffffff1660e01b815260040161098d93929190610fd4565b6020604051808303816000875af11580156109ac573d6000803e3d6000fd5b505050506040513d601f19601f820116820180604052508101906109d09190611037565b50600062278d0083600001546109e69190610da5565b9050808360020160008282546109fc9190610fa0565b9250508190555060019350505050919050565b60008060008373ffffffffffffffffffffffffffffffffffffffff1673ffffffffffffffffffffffffffffffffffffffff16815260200190815260200160002060030160009054906101000a900460ff169050919050565b60006020528060005260406000206000915090508060000154908060010154908060020154908060030160009054906101000a900460ff16905084565b60008115159050919050565b610ab981610aa4565b82525050565b6000602082019050610ad46000830184610ab0565b92915050565b600080fd5b600073ffffffffffffffffffffffffffffffffffffffff82169050919050565b6000610b0a82610adf565b9050919050565b610b1a81610aff565b8114610b2557600080fd5b50565b600081359050610b3781610b11565b92915050565b600060208284031215610b5357610b52610ada565b5b6000610b6184828501610b28565b91505092915050565b6000819050919050565b610b7d81610b6a565b8114610b8857600080fd5b50565b600081359050610b9a81610b74565b92915050565b600060208284031215610bb657610bb5610ada565b5b6000610bc484828501610b8b565b91505092915050565b610bd681610b6a565b82525050565b6000608082019050610bf16000830187610bcd565b610bfe6020830186610bcd565b610c0b6040830185610bcd565b610c186060830184610ab0565b95945050505050565b600082825260208201905092915050565b7f4e6f7420616e2061637469766520737562736372697074696f6e000000000000600082015250565b6000610c68601a83610c21565b9150610c7382610c32565b602082019050919050565b60006020820190508181036000830152610c9781610c5b565b9050919050565b7f537562736372697074696f6e20686173206e6f74207374617274656420796574600082015250565b6000610cd4602083610c21565b9150610cdf82610c9e565b602082019050919050565b60006020820190508181036000830152610d0381610cc7565b9050919050565b7f737562736372697074696f6e20616c7265616479206578697374730000000000600082015250565b6000610d40601b83610c21565b9150610d4b82610d0a565b602082019050919050565b60006020820190508181036000830152610d6f81610d33565b9050919050565b7f4e487b7100000000000000000000000000000000000000000000000000000000600052601160045260246000fd5b6000610db082610b6a565b9150610dbb83610b6a565b9250828202610dc981610b6a565b91508282048414831517610de057610ddf610d76565b5b5092915050565b610df081610aff565b82525050565b6000602082019050610e0b6000830184610de7565b92915050565b600081519050610e2081610b74565b92915050565b600060208284031215610e3c57610e3b610ada565b5b6000610e4a84828501610e11565b91505092915050565b7f496e73756666696369656e742062616c616e636520666f7220696e697469616c60008201527f202b20317820726563757272696e6720616d6f756e7400000000000000000000602082015250565b6000610eaf603683610c21565b9150610eba82610e53565b604082019050919050565b60006020820190508181036000830152610ede81610ea2565b9050919050565b6000604082019050610efa6000830185610de7565b610f076020830184610de7565b9392505050565b7f496e73756666696369656e7420617070726f76616c20666f7220696e6974696160008201527f6c202b20317820726563757272696e6720616d6f756e74000000000000000000602082015250565b6000610f6a603783610c21565b9150610f7582610f0e565b604082019050919050565b60006020820190508181036000830152610f9981610f5d565b9050919050565b6000610fab82610b6a565b9150610fb683610b6a565b9250828201905080821115610fce57610fcd610d76565b5b92915050565b6000606082019050610fe96000830186610de7565b610ff66020830185610de7565b6110036040830184610bcd565b949350505050565b61101481610aa4565b811461101f57600080fd5b50565b6000815190506110318161100b565b92915050565b60006020828403121561104d5761104c610ada565b5b600061105b84828501611022565b91505092915050565b60006060820190506110796000830186610de7565b6110866020830185610bcd565b6110936040830184610bcd565b949350505050565b7f41205061796d656e74206973206e6f742064756520666f72207468697320737560008201527f62736372697074696f6e00000000000000000000000000000000000000000000602082015250565b60006110f7602a83610c21565b91506111028261109b565b604082019050919050565b60006020820190508181036000830152611126816110ea565b905091905056fea26469706673582212202b13fa273b3e1ebe1298360e5d4e00acaa19cbd1841dbd47652638f1915cd37664736f6c63430008120033",
  "linkReferences": {
    "contracts/libraries/MarketDeployer.sol": {
      "MarketDeployer": [
        {
          "length": 20,
          "start": 5198
        },
        {
          "length": 20,
          "start": 5672
        }
      ]
    },
    "contracts/libraries/ReputationTokenDeployer.sol": {
      "ReputationTokenDeployer": [
        {
          "length": 20,
          "start": 6265
        }
      ]
    }
  },
  "deployedLinkReferences": {
    "contracts/libraries/MarketDeployer.sol": {
      "MarketDeployer": [
        {
          "length": 20,
          "start": 3019
        },
        {
          "length": 20,
          "start": 3493
        }
      ]
    },
    "contracts/libraries/ReputationTokenDeployer.sol": {
      "ReputationTokenDeployer": [
        {
          "length": 20,
          "start": 4086
        }
      ]
    }
  }
}