{
  "_format": "hh-sol-artifact-1",
  "contractName": "PythiaFactory",
  "sourceName": "contracts/PythiaFactory.sol",
  "abi": [
    {
      "inputs": [
        {
          "internalType": "uint256",
          "name": "_trialPeriodDays",
          "type": "uint256"
        },
        {
          "internalType": "address",
          "name": "_subscriptionTokenAddress",
          "type": "address"
        },
        {
          "internalType": "address",
          "name": "_treasuryAddress",
          "type": "address"
        },
        {
          "internalType": "uint256",
          "name": "_baseAmountRecurring",
          "type": "uint256"
        }
      ],
      "stateMutability": "nonpayable",
      "type": "constructor"
    },
    {
      "anonymous": false,
      "inputs": [
        {
          "indexed": true,
          "internalType": "address",
          "name": "owner",
          "type": "address"
        },
        {
          "indexed": true,
          "internalType": "address",
          "name": "approved",
          "type": "address"
        },
        {
          "indexed": true,
          "internalType": "uint256",
          "name": "tokenId",
          "type": "uint256"
        }
      ],
      "name": "Approval",
      "type": "event"
    },
    {
      "anonymous": false,
      "inputs": [
        {
          "indexed": true,
          "internalType": "address",
          "name": "owner",
          "type": "address"
        },
        {
          "indexed": true,
          "internalType": "address",
          "name": "operator",
          "type": "address"
        },
        {
          "indexed": false,
          "internalType": "bool",
          "name": "approved",
          "type": "bool"
        }
      ],
      "name": "ApprovalForAll",
      "type": "event"
    },
    {
      "anonymous": false,
      "inputs": [
        {
          "indexed": false,
          "internalType": "address",
          "name": "_pythiaFactoryAddress",
          "type": "address"
        },
        {
          "indexed": false,
          "internalType": "address",
          "name": "_subscriptionTokenAddress",
          "type": "address"
        },
        {
          "indexed": false,
          "internalType": "address",
          "name": "_payeeAddress",
          "type": "address"
        },
        {
          "indexed": false,
          "internalType": "uint256",
          "name": "_baseAmountRecurring",
          "type": "uint256"
        },
        {
          "indexed": false,
          "internalType": "uint256",
          "name": "_timestamp",
          "type": "uint256"
        }
      ],
      "name": "ERC948Deployed",
      "type": "event"
    },
    {
      "anonymous": false,
      "inputs": [
        {
          "indexed": true,
          "internalType": "address",
          "name": "_address",
          "type": "address"
        },
        {
          "indexed": false,
          "internalType": "uint256",
          "name": "_answer",
          "type": "uint256"
        },
        {
          "indexed": false,
          "internalType": "uint256",
          "name": "_resolutionTimestamp",
          "type": "uint256"
        }
      ],
      "name": "MarketResolved",
      "type": "event"
    },
    {
      "anonymous": false,
      "inputs": [
        {
          "indexed": true,
          "internalType": "address",
          "name": "previousOwner",
          "type": "address"
        },
        {
          "indexed": true,
          "internalType": "address",
          "name": "newOwner",
          "type": "address"
        }
      ],
      "name": "OwnershipTransferred",
      "type": "event"
    },
    {
      "anonymous": false,
      "inputs": [
        {
          "indexed": true,
          "internalType": "address",
          "name": "_user",
          "type": "address"
        },
        {
          "indexed": true,
          "internalType": "address",
          "name": "_market",
          "type": "address"
        },
        {
          "indexed": false,
          "internalType": "bytes32",
          "name": "_prediction",
          "type": "bytes32"
        },
        {
          "indexed": false,
          "internalType": "uint256",
          "name": "_predictionTimestamp",
          "type": "uint256"
        }
      ],
      "name": "PredictionCreated",
      "type": "event"
    },
    {
      "anonymous": false,
      "inputs": [
        {
          "indexed": true,
          "internalType": "address",
          "name": "_address",
          "type": "address"
        },
        {
          "indexed": false,
          "internalType": "uint256",
          "name": "_creationTimestamp",
          "type": "uint256"
        },
        {
          "indexed": false,
          "internalType": "string",
          "name": "_question",
          "type": "string"
        },
        {
          "indexed": false,
          "internalType": "uint256[5]",
          "name": "_options",
          "type": "uint256[5]"
        },
        {
          "indexed": false,
          "internalType": "uint256",
          "name": "_numberOfOutcomes",
          "type": "uint256"
        },
        {
          "indexed": false,
          "internalType": "uint256",
          "name": "_wageDeadline",
          "type": "uint256"
        },
        {
          "indexed": false,
          "internalType": "uint256",
          "name": "_resolutionDate",
          "type": "uint256"
        },
        {
          "indexed": false,
          "internalType": "address",
          "name": "_reputationTokenAddress",
          "type": "address"
        }
      ],
      "name": "PriceFeedsMarketCreated",
      "type": "event"
    },
    {
      "anonymous": false,
      "inputs": [
        {
          "indexed": true,
          "internalType": "address",
          "name": "_address",
          "type": "address"
        },
        {
          "indexed": false,
          "internalType": "uint256",
          "name": "_creationTimestamp",
          "type": "uint256"
        },
        {
          "indexed": false,
          "internalType": "string",
          "name": "_question",
          "type": "string"
        },
        {
          "indexed": false,
          "internalType": "uint256",
          "name": "_wageDeadline",
          "type": "uint256"
        },
        {
          "indexed": false,
          "internalType": "uint256",
          "name": "_resolutionDate",
          "type": "uint256"
        },
        {
          "indexed": false,
          "internalType": "address",
          "name": "_reputationTokenAddress",
          "type": "address"
        },
        {
          "indexed": false,
          "internalType": "uint256",
          "name": "_template",
          "type": "uint256"
        }
      ],
      "name": "RealityETHMarketCreated",
      "type": "event"
    },
    {
      "anonymous": false,
      "inputs": [
        {
          "indexed": true,
          "internalType": "address",
          "name": "_address",
          "type": "address"
        },
        {
          "indexed": true,
          "internalType": "address",
          "name": "_topic",
          "type": "address"
        },
        {
          "indexed": false,
          "internalType": "uint256",
          "name": "_creationTimestamp",
          "type": "uint256"
        }
      ],
      "name": "ReputationTokenCreated",
      "type": "event"
    },
    {
      "anonymous": false,
      "inputs": [
        {
          "indexed": true,
          "internalType": "address",
          "name": "_user",
          "type": "address"
        },
        {
          "indexed": true,
          "internalType": "address",
          "name": "_market",
          "type": "address"
        },
        {
          "indexed": false,
          "internalType": "uint256",
          "name": "_reputation",
          "type": "uint256"
        },
        {
          "indexed": false,
          "internalType": "uint256",
          "name": "_decodedPrediction",
          "type": "uint256"
        },
        {
          "indexed": false,
          "internalType": "uint256",
          "name": "_reputationCollectionDatetime",
          "type": "uint256"
        }
      ],
      "name": "ReputationTransactionSent",
      "type": "event"
    },
    {
      "anonymous": false,
      "inputs": [
        {
          "indexed": true,
          "internalType": "address",
          "name": "_user",
          "type": "address"
        },
        {
          "indexed": false,
          "internalType": "uint256",
          "name": "_periodMultiplier",
          "type": "uint256"
        },
        {
          "indexed": false,
          "internalType": "uint256",
          "name": "_startTimestamp",
          "type": "uint256"
        }
      ],
      "name": "SubscriptionCreated",
      "type": "event"
    },
    {
      "anonymous": false,
      "inputs": [
        {
          "indexed": true,
          "internalType": "address",
          "name": "from",
          "type": "address"
        },
        {
          "indexed": true,
          "internalType": "address",
          "name": "to",
          "type": "address"
        },
        {
          "indexed": true,
          "internalType": "uint256",
          "name": "tokenId",
          "type": "uint256"
        }
      ],
      "name": "Transfer",
      "type": "event"
    },
    {
      "anonymous": false,
      "inputs": [
        {
          "indexed": true,
          "internalType": "address",
          "name": "_address",
          "type": "address"
        },
        {
          "indexed": false,
          "internalType": "uint256",
          "name": "_blocktimestamp",
          "type": "uint256"
        }
      ],
      "name": "UserCreated",
      "type": "event"
    },
    {
      "inputs": [
        {
          "internalType": "address",
          "name": "to",
          "type": "address"
        },
        {
          "internalType": "uint256",
          "name": "tokenId",
          "type": "uint256"
        }
      ],
      "name": "approve",
      "outputs": [],
      "stateMutability": "nonpayable",
      "type": "function"
    },
    {
      "inputs": [
        {
          "internalType": "address",
          "name": "owner",
          "type": "address"
        }
      ],
      "name": "balanceOf",
      "outputs": [
        {
          "internalType": "uint256",
          "name": "",
          "type": "uint256"
        }
      ],
      "stateMutability": "view",
      "type": "function"
    },
    {
      "inputs": [],
      "name": "createAccount",
      "outputs": [],
      "stateMutability": "nonpayable",
      "type": "function"
    },
    {
      "inputs": [
        {
          "internalType": "string",
          "name": "_question",
          "type": "string"
        },
        {
          "internalType": "uint256[5]",
          "name": "_outcomes",
          "type": "uint256[5]"
        },
        {
          "internalType": "uint256",
          "name": "_numberOfOutcomes",
          "type": "uint256"
        },
        {
          "internalType": "uint256",
          "name": "_wageDeadline",
          "type": "uint256"
        },
        {
          "internalType": "uint256",
          "name": "_resolutionDate",
          "type": "uint256"
        },
        {
          "internalType": "address",
          "name": "_priceFeedAddress",
          "type": "address"
        },
        {
          "internalType": "address",
          "name": "_priceFeederAddress",
          "type": "address"
        },
        {
          "internalType": "address",
          "name": "_reputationTokenAddress",
          "type": "address"
        }
      ],
      "name": "createPriceFeedsMarket",
      "outputs": [],
      "stateMutability": "nonpayable",
      "type": "function"
    },
    {
      "inputs": [
        {
          "internalType": "string",
          "name": "_question",
          "type": "string"
        },
        {
          "internalType": "uint256",
          "name": "_numberOfOutcomes",
          "type": "uint256"
        },
        {
          "internalType": "uint256",
          "name": "_wageDeadline",
          "type": "uint256"
        },
        {
          "internalType": "uint256",
          "name": "_resolutionDate",
          "type": "uint256"
        },
        {
          "internalType": "uint256",
          "name": "_template_id",
          "type": "uint256"
        },
        {
          "internalType": "address",
          "name": "_arbitrator",
          "type": "address"
        },
        {
          "internalType": "uint32",
          "name": "_timeout",
          "type": "uint32"
        },
        {
          "internalType": "uint256",
          "name": "_nonce",
          "type": "uint256"
        },
        {
          "internalType": "address",
          "name": "_realityEthAddress",
          "type": "address"
        },
        {
          "internalType": "uint256",
          "name": "_min_bond",
          "type": "uint256"
        },
        {
          "internalType": "address",
          "name": "_reputationTokenAddress",
          "type": "address"
        }
      ],
      "name": "createRealityEthMarket",
      "outputs": [],
      "stateMutability": "nonpayable",
      "type": "function"
    },
    {
      "inputs": [
        {
          "internalType": "uint256",
          "name": "tokenId",
          "type": "uint256"
        }
      ],
      "name": "getApproved",
      "outputs": [
        {
          "internalType": "address",
          "name": "",
          "type": "address"
        }
      ],
      "stateMutability": "view",
      "type": "function"
    },
    {
      "inputs": [
        {
          "internalType": "address",
          "name": "owner",
          "type": "address"
        },
        {
          "internalType": "address",
          "name": "operator",
          "type": "address"
        }
      ],
      "name": "isApprovedForAll",
      "outputs": [
        {
          "internalType": "bool",
          "name": "",
          "type": "bool"
        }
      ],
      "stateMutability": "view",
      "type": "function"
    },
    {
      "inputs": [
        {
          "internalType": "address",
          "name": "_user",
          "type": "address"
        }
      ],
      "name": "isInTrial",
      "outputs": [
        {
          "internalType": "bool",
          "name": "",
          "type": "bool"
        }
      ],
      "stateMutability": "view",
      "type": "function"
    },
    {
      "inputs": [
        {
          "internalType": "address",
          "name": "_user",
          "type": "address"
        }
      ],
      "name": "isSubscribed",
      "outputs": [
        {
          "internalType": "bool",
          "name": "",
          "type": "bool"
        }
      ],
      "stateMutability": "view",
      "type": "function"
    },
    {
      "inputs": [
        {
          "internalType": "address",
          "name": "_user",
          "type": "address"
        }
      ],
      "name": "isUser",
      "outputs": [
        {
          "internalType": "bool",
          "name": "",
          "type": "bool"
        }
      ],
      "stateMutability": "view",
      "type": "function"
    },
    {
      "inputs": [
        {
          "internalType": "address",
          "name": "_market",
          "type": "address"
        }
      ],
      "name": "logMarketResolved",
      "outputs": [],
      "stateMutability": "nonpayable",
      "type": "function"
    },
    {
      "inputs": [
        {
          "internalType": "address",
          "name": "_user",
          "type": "address"
        },
        {
          "internalType": "address",
          "name": "_market",
          "type": "address"
        },
        {
          "internalType": "bytes32",
          "name": "_prediction",
          "type": "bytes32"
        },
        {
          "internalType": "uint256",
          "name": "_predictionTimestamp",
          "type": "uint256"
        }
      ],
      "name": "logNewPrediction",
      "outputs": [],
      "stateMutability": "nonpayable",
      "type": "function"
    },
    {
      "inputs": [
        {
          "internalType": "address",
          "name": "_ownerAddress",
          "type": "address"
        },
        {
          "internalType": "uint256",
          "name": "_periodMultiplier",
          "type": "uint256"
        },
        {
          "internalType": "uint256",
          "name": "_startTime",
          "type": "uint256"
        }
      ],
      "name": "logNewSubscription",
      "outputs": [],
      "stateMutability": "nonpayable",
      "type": "function"
    },
    {
      "inputs": [],
      "name": "name",
      "outputs": [
        {
          "internalType": "string",
          "name": "",
          "type": "string"
        }
      ],
      "stateMutability": "view",
      "type": "function"
    },
    {
      "inputs": [],
      "name": "owner",
      "outputs": [
        {
          "internalType": "address",
          "name": "",
          "type": "address"
        }
      ],
      "stateMutability": "view",
      "type": "function"
    },
    {
      "inputs": [
        {
          "internalType": "uint256",
          "name": "tokenId",
          "type": "uint256"
        }
      ],
      "name": "ownerOf",
      "outputs": [
        {
          "internalType": "address",
          "name": "",
          "type": "address"
        }
      ],
      "stateMutability": "view",
      "type": "function"
    },
    {
      "inputs": [
        {
          "internalType": "address[]",
          "name": "marketAdresses",
          "type": "address[]"
        },
        {
          "internalType": "uint256[]",
          "name": "decodedPredictions",
          "type": "uint256[]"
        },
        {
          "internalType": "bytes[]",
          "name": "signatures",
          "type": "bytes[]"
        }
      ],
      "name": "receiveReputationMultipleMarkets",
      "outputs": [
        {
          "internalType": "bool",
          "name": "",
          "type": "bool"
        }
      ],
      "stateMutability": "nonpayable",
      "type": "function"
    },
    {
      "inputs": [],
      "name": "renounceOwnership",
      "outputs": [],
      "stateMutability": "nonpayable",
      "type": "function"
    },
    {
      "inputs": [
        {
          "internalType": "address",
          "name": "from",
          "type": "address"
        },
        {
          "internalType": "address",
          "name": "to",
          "type": "address"
        },
        {
          "internalType": "uint256",
          "name": "tokenId",
          "type": "uint256"
        }
      ],
      "name": "safeTransferFrom",
      "outputs": [],
      "stateMutability": "nonpayable",
      "type": "function"
    },
    {
      "inputs": [
        {
          "internalType": "address",
          "name": "from",
          "type": "address"
        },
        {
          "internalType": "address",
          "name": "to",
          "type": "address"
        },
        {
          "internalType": "uint256",
          "name": "tokenId",
          "type": "uint256"
        },
        {
          "internalType": "bytes",
          "name": "data",
          "type": "bytes"
        }
      ],
      "name": "safeTransferFrom",
      "outputs": [],
      "stateMutability": "nonpayable",
      "type": "function"
    },
    {
      "inputs": [
        {
          "internalType": "address",
          "name": "operator",
          "type": "address"
        },
        {
          "internalType": "bool",
          "name": "approved",
          "type": "bool"
        }
      ],
      "name": "setApprovalForAll",
      "outputs": [],
      "stateMutability": "nonpayable",
      "type": "function"
    },
    {
      "inputs": [
        {
          "internalType": "bytes4",
          "name": "interfaceId",
          "type": "bytes4"
        }
      ],
      "name": "supportsInterface",
      "outputs": [
        {
          "internalType": "bool",
          "name": "",
          "type": "bool"
        }
      ],
      "stateMutability": "view",
      "type": "function"
    },
    {
      "inputs": [],
      "name": "symbol",
      "outputs": [
        {
          "internalType": "string",
          "name": "",
          "type": "string"
        }
      ],
      "stateMutability": "view",
      "type": "function"
    },
    {
      "inputs": [
        {
          "internalType": "uint256",
          "name": "tokenId",
          "type": "uint256"
        }
      ],
      "name": "tokenURI",
      "outputs": [
        {
          "internalType": "string",
          "name": "",
          "type": "string"
        }
      ],
      "stateMutability": "view",
      "type": "function"
    },
    {
      "inputs": [
        {
          "internalType": "address",
          "name": "from",
          "type": "address"
        },
        {
          "internalType": "address",
          "name": "to",
          "type": "address"
        },
        {
          "internalType": "uint256",
          "name": "tokenId",
          "type": "uint256"
        }
      ],
      "name": "transferFrom",
      "outputs": [],
      "stateMutability": "nonpayable",
      "type": "function"
    },
    {
      "inputs": [
        {
          "internalType": "address",
          "name": "newOwner",
          "type": "address"
        }
      ],
      "name": "transferOwnership",
      "outputs": [],
      "stateMutability": "nonpayable",
      "type": "function"
    },
    {
      "inputs": [],
      "name": "trialPeriod",
      "outputs": [
        {
          "internalType": "uint256",
          "name": "",
          "type": "uint256"
        }
      ],
      "stateMutability": "view",
      "type": "function"
    },
    {
      "inputs": [
        {
          "internalType": "uint256",
          "name": "_newtrialPeriod",
          "type": "uint256"
        }
      ],
      "name": "updateTrialPeriod",
      "outputs": [],
      "stateMutability": "nonpayable",
      "type": "function"
    }
  ],
  "bytecode": "0x60806040523480156200001157600080fd5b50604051620067c8380380620067c8833981810160405281019062000037919062000373565b6040518060400160405280600d81526020017f507974686961466163746f7279000000000000000000000000000000000000008152506040518060400160405280600481526020017f50594146000000000000000000000000000000000000000000000000000000008152508160009081620000b4919062000655565b508060019081620000c6919062000655565b505050620000e9620000dd620001f260201b60201c565b620001fa60201b60201c565b6103e8603c80601887620000fe91906200076b565b6200010a91906200076b565b6200011691906200076b565b6200012291906200076b565b600a81905550308383836040516200013a90620002c0565b620001499493929190620007d8565b604051809103906000f08015801562000166573d6000803e3d6000fd5b50600b60006101000a81548173ffffffffffffffffffffffffffffffffffffffff021916908373ffffffffffffffffffffffffffffffffffffffff1602179055507f6a3a881122940a13d6a1f9e93d335e431540ee6a24addde19aa00a61f73f88bf3084848442604051620001e095949392919062000825565b60405180910390a15050505062000882565b600033905090565b6000600660009054906101000a900473ffffffffffffffffffffffffffffffffffffffff16905081600660006101000a81548173ffffffffffffffffffffffffffffffffffffffff021916908373ffffffffffffffffffffffffffffffffffffffff1602179055508173ffffffffffffffffffffffffffffffffffffffff168173ffffffffffffffffffffffffffffffffffffffff167f8be0079c531659141344cd1fd0a4f28419497f9722a3daafe3b4186f6b6457e060405160405180910390a35050565b611395806200543383390190565b600080fd5b6000819050919050565b620002e881620002d3565b8114620002f457600080fd5b50565b6000815190506200030881620002dd565b92915050565b600073ffffffffffffffffffffffffffffffffffffffff82169050919050565b60006200033b826200030e565b9050919050565b6200034d816200032e565b81146200035957600080fd5b50565b6000815190506200036d8162000342565b92915050565b6000806000806080858703121562000390576200038f620002ce565b5b6000620003a087828801620002f7565b9450506020620003b3878288016200035c565b9350506040620003c6878288016200035c565b9250506060620003d987828801620002f7565b91505092959194509250565b600081519050919050565b7f4e487b7100000000000000000000000000000000000000000000000000000000600052604160045260246000fd5b7f4e487b7100000000000000000000000000000000000000000000000000000000600052602260045260246000fd5b600060028204905060018216806200046757607f821691505b6020821081036200047d576200047c6200041f565b5b50919050565b60008190508160005260206000209050919050565b60006020601f8301049050919050565b600082821b905092915050565b600060088302620004e77fffffffffffffffffffffffffffffffffffffffffffffffffffffffffffffffff82620004a8565b620004f38683620004a8565b95508019841693508086168417925050509392505050565b6000819050919050565b600062000536620005306200052a84620002d3565b6200050b565b620002d3565b9050919050565b6000819050919050565b620005528362000515565b6200056a62000561826200053d565b848454620004b5565b825550505050565b600090565b6200058162000572565b6200058e81848462000547565b505050565b5b81811015620005b657620005aa60008262000577565b60018101905062000594565b5050565b601f8211156200060557620005cf8162000483565b620005da8462000498565b81016020851015620005ea578190505b62000602620005f98562000498565b83018262000593565b50505b505050565b600082821c905092915050565b60006200062a600019846008026200060a565b1980831691505092915050565b600062000645838362000617565b9150826002028217905092915050565b6200066082620003e5565b67ffffffffffffffff8111156200067c576200067b620003f0565b5b6200068882546200044e565b62000695828285620005ba565b600060209050601f831160018114620006cd5760008415620006b8578287015190505b620006c4858262000637565b86555062000734565b601f198416620006dd8662000483565b60005b828110156200070757848901518255600182019150602085019450602081019050620006e0565b8683101562000727578489015162000723601f89168262000617565b8355505b6001600288020188555050505b505050505050565b7f4e487b7100000000000000000000000000000000000000000000000000000000600052601160045260246000fd5b60006200077882620002d3565b91506200078583620002d3565b92508282026200079581620002d3565b91508282048414831517620007af57620007ae6200073c565b5b5092915050565b620007c1816200032e565b82525050565b620007d281620002d3565b82525050565b6000608082019050620007ef6000830187620007b6565b620007fe6020830186620007b6565b6200080d6040830185620007b6565b6200081c6060830184620007c7565b95945050505050565b600060a0820190506200083c6000830188620007b6565b6200084b6020830187620007b6565b6200085a6040830186620007b6565b620008696060830185620007c7565b620008786080830184620007c7565b9695505050505050565b614ba180620008926000396000f3fe608060405234801561001057600080fd5b50600436106101c35760003560e01c8063715018a6116100f9578063b88d4fde11610097578063d548a39a11610071578063d548a39a14610500578063e985e9c51461051c578063f2fde38b1461054c578063f492bb9414610568576101c3565b8063b88d4fde14610484578063b92ae87c146104a0578063c87b56dd146104d0576101c3565b80639c8809c3116100d35780639c8809c3146104245780639dca362f14610440578063a22cb4651461044a578063ad36725e14610466576101c3565b8063715018a6146103de5780638da5cb5b146103e857806395d89b4114610406576101c3565b80634209fff11161016657806354453e741161014057806354453e7414610346578063582e865f146103625780636352211e1461037e57806370a08231146103ae576101c3565b80634209fff1146102de57806342842e0e1461030e578063513450e51461032a576101c3565b8063081812fc116101a2578063081812fc14610246578063095ea7b3146102765780630f7e31b11461029257806323b872dd146102c2576101c3565b8062fd90bb146101c857806301ffc9a7146101f857806306fdde0314610228575b600080fd5b6101e260048036038101906101dd9190612d3c565b610584565b6040516101ef9190612e0b565b60405180910390f35b610212600480360381019061020d9190612e7e565b6106b2565b60405161021f9190612e0b565b60405180910390f35b610230610794565b60405161023d9190612f3b565b60405180910390f35b610260600480360381019061025b9190612f93565b610826565b60405161026d9190613001565b60405180910390f35b610290600480360381019061028b9190613048565b61086c565b005b6102ac60048036038101906102a79190613088565b610983565b6040516102b99190612e0b565b60405180910390f35b6102dc60048036038101906102d791906130b5565b610a6a565b005b6102f860048036038101906102f39190613088565b610aca565b6040516103059190612e0b565b60405180910390f35b610328600480360381019061032391906130b5565b610b23565b005b610344600480360381019061033f9190613108565b610b43565b005b610360600480360381019061035b91906132c7565b610b98565b005b61037c60048036038101906103779190613488565b610d72565b005b61039860048036038101906103939190612f93565b610f45565b6040516103a59190613001565b60405180910390f35b6103c860048036038101906103c39190613088565b610fcb565b6040516103d5919061356d565b60405180910390f35b6103e6611082565b005b6103f0611096565b6040516103fd9190613001565b60405180910390f35b61040e6110c0565b60405161041b9190612f3b565b60405180910390f35b61043e60048036038101906104399190613088565b611152565b005b6104486112ce565b005b610464600480360381019061045f91906135b4565b6113cf565b005b61046e6113e5565b60405161047b919061356d565b60405180910390f35b61049e60048036038101906104999190613695565b6113eb565b005b6104ba60048036038101906104b59190613088565b61144d565b6040516104c79190612e0b565b60405180910390f35b6104ea60048036038101906104e59190612f93565b6114f2565b6040516104f79190612f3b565b60405180910390f35b61051a6004803603810190610515919061374e565b61155a565b005b610536600480360381019061053191906137b5565b6115c7565b6040516105439190612e0b565b60405180910390f35b61056660048036038101906105619190613088565b61165b565b005b610582600480360381019061057d9190612f93565b6116de565b005b600080878790509050600086869050905060008585905090508183146105df576040517f08c379a00000000000000000000000000000000000000000000000000000000081526004016105d690613867565b60405180910390fd5b808314610621576040517f08c379a0000000000000000000000000000000000000000000000000000000008152600401610618906138f9565b60405180910390fd5b60005b838110156106a05761069b8b8b8381811061064257610641613919565b5b90506020020160208101906106579190613088565b8a8a8481811061066a57610669613919565b5b9050602002013589898581811061068457610683613919565b5b90506020028101906106969190613957565b6116f0565b610624565b50600193505050509695505050505050565b60007f80ac58cd000000000000000000000000000000000000000000000000000000007bffffffffffffffffffffffffffffffffffffffffffffffffffffffff1916827bffffffffffffffffffffffffffffffffffffffffffffffffffffffff1916148061077d57507f5b5e139f000000000000000000000000000000000000000000000000000000007bffffffffffffffffffffffffffffffffffffffffffffffffffffffff1916827bffffffffffffffffffffffffffffffffffffffffffffffffffffffff1916145b8061078d575061078c82611b4a565b5b9050919050565b6060600080546107a3906139e9565b80601f01602080910402602001604051908101604052809291908181526020018280546107cf906139e9565b801561081c5780601f106107f15761010080835404028352916020019161081c565b820191906000526020600020905b8154815290600101906020018083116107ff57829003601f168201915b5050505050905090565b600061083182611bb4565b6004600083815260200190815260200160002060009054906101000a900473ffffffffffffffffffffffffffffffffffffffff169050919050565b600061087782610f45565b90508073ffffffffffffffffffffffffffffffffffffffff168373ffffffffffffffffffffffffffffffffffffffff16036108e7576040517f08c379a00000000000000000000000000000000000000000000000000000000081526004016108de90613a8c565b60405180910390fd5b8073ffffffffffffffffffffffffffffffffffffffff16610906611bff565b73ffffffffffffffffffffffffffffffffffffffff16148061093557506109348161092f611bff565b6115c7565b5b610974576040517f08c379a000000000000000000000000000000000000000000000000000000000815260040161096b90613b1e565b60405180910390fd5b61097e8383611c07565b505050565b6000600760008373ffffffffffffffffffffffffffffffffffffffff1673ffffffffffffffffffffffffffffffffffffffff16815260200190815260200160002060000154421015610a0a576040517f08c379a0000000000000000000000000000000000000000000000000000000008152600401610a0190613b8a565b60405180910390fd5b6000600760008473ffffffffffffffffffffffffffffffffffffffff1673ffffffffffffffffffffffffffffffffffffffff1681526020019081526020016000206000015442610a5a9190613bd9565b9050600a54811115915050919050565b610a7b610a75611bff565b82611cc0565b610aba576040517f08c379a0000000000000000000000000000000000000000000000000000000008152600401610ab190613c7f565b60405180910390fd5b610ac5838383611d55565b505050565b6000600760008373ffffffffffffffffffffffffffffffffffffffff1673ffffffffffffffffffffffffffffffffffffffff16815260200190815260200160002060010160009054906101000a900460ff169050919050565b610b3e838383604051806020016040528060008152506113eb565b505050565b8273ffffffffffffffffffffffffffffffffffffffff167feec977e786e7248a658b0474ccf8f57f37ead019014ec4d5ba1542ddabeff1b48383604051610b8b929190613c9f565b60405180910390a2505050565b610ba061204e565b600073__$3df2ca9254ecbb55f109d9ad824fec3c00$__6342554eb0308e8e8e8e8e8e8e8e8e8e6040518c63ffffffff1660e01b8152600401610bed9b9a99989796959493929190613d3f565b602060405180830381865af4158015610c0a573d6000803e3d6000fd5b505050506040513d601f19601f82011682018060405250810190610c2e9190613e06565b90506001600860008373ffffffffffffffffffffffffffffffffffffffff1673ffffffffffffffffffffffffffffffffffffffff16815260200190815260200160002060000160006101000a81548160ff02191690831515021790555081600860008373ffffffffffffffffffffffffffffffffffffffff1673ffffffffffffffffffffffffffffffffffffffff16815260200190815260200160002060000160016101000a81548173ffffffffffffffffffffffffffffffffffffffff021916908373ffffffffffffffffffffffffffffffffffffffff1602179055508073ffffffffffffffffffffffffffffffffffffffff167fbe289da69f191f0ee858560469625b39bbfec4fa2d414a2906ccf1f1f3ba9d4c428e8d8d878e604051610d5c96959493929190613e33565b60405180910390a2505050505050505050505050565b610d7a61204e565b600073__$3df2ca9254ecbb55f109d9ad824fec3c00$__637353f954308b8b8b8b8b8b8b6040518963ffffffff1660e01b8152600401610dc1989796959493929190613f46565b602060405180830381865af4158015610dde573d6000803e3d6000fd5b505050506040513d601f19601f82011682018060405250810190610e029190613e06565b90506001600860008373ffffffffffffffffffffffffffffffffffffffff1673ffffffffffffffffffffffffffffffffffffffff16815260200190815260200160002060000160006101000a81548160ff02191690831515021790555081600860008373ffffffffffffffffffffffffffffffffffffffff1673ffffffffffffffffffffffffffffffffffffffff16815260200190815260200160002060000160016101000a81548173ffffffffffffffffffffffffffffffffffffffff021916908373ffffffffffffffffffffffffffffffffffffffff1602179055508073ffffffffffffffffffffffffffffffffffffffff167f9c21205d8f5e6e55ddf47a5e1bee6e5acb25a2bd4d786d5c011493f75e901865428b8b8b8b8b89604051610f329796959493929190614058565b60405180910390a2505050505050505050565b600080610f51836120cc565b9050600073ffffffffffffffffffffffffffffffffffffffff168173ffffffffffffffffffffffffffffffffffffffff1603610fc2576040517f08c379a0000000000000000000000000000000000000000000000000000000008152600401610fb99061411e565b60405180910390fd5b80915050919050565b60008073ffffffffffffffffffffffffffffffffffffffff168273ffffffffffffffffffffffffffffffffffffffff160361103b576040517f08c379a0000000000000000000000000000000000000000000000000000000008152600401611032906141b0565b60405180910390fd5b600360008373ffffffffffffffffffffffffffffffffffffffff1673ffffffffffffffffffffffffffffffffffffffff168152602001908152602001600020549050919050565b61108a61204e565b6110946000612109565b565b6000600660009054906101000a900473ffffffffffffffffffffffffffffffffffffffff16905090565b6060600180546110cf906139e9565b80601f01602080910402602001604051908101604052809291908181526020018280546110fb906139e9565b80156111485780601f1061111d57610100808354040283529160200191611148565b820191906000526020600020905b81548152906001019060200180831161112b57829003601f168201915b5050505050905090565b6000819050600115158173ffffffffffffffffffffffffffffffffffffffff16633f6fa6556040518163ffffffff1660e01b8152600401602060405180830381865afa1580156111a6573d6000803e3d6000fd5b505050506040513d601f19601f820116820180604052508101906111ca91906141e5565b15151461120c576040517f08c379a00000000000000000000000000000000000000000000000000000000081526004016112039061425e565b60405180910390fd5b8173ffffffffffffffffffffffffffffffffffffffff167fae3b4647cde4464880f9f327eb779e36d78c30f835aec6b95b754031729dcfb38273ffffffffffffffffffffffffffffffffffffffff166385bb7d696040518163ffffffff1660e01b8152600401602060405180830381865afa15801561128f573d6000803e3d6000fd5b505050506040513d601f19601f820116820180604052508101906112b39190614293565b426040516112c2929190613c9f565b60405180910390a25050565b60006112da600c6121cf565b90506112e6600c6121dd565b6112f033826121f3565b6000604051806040016040528042815260200160011515815250905080600760003373ffffffffffffffffffffffffffffffffffffffff1673ffffffffffffffffffffffffffffffffffffffff1681526020019081526020016000206000820151816000015560208201518160010160006101000a81548160ff0219169083151502179055509050503373ffffffffffffffffffffffffffffffffffffffff167fa27642fccf9a9a0a8a8e31188dfec60a6565c30a20ef3ed1eb3a779a79a36b2e82600001516040516113c3919061356d565b60405180910390a25050565b6113e16113da611bff565b8383612211565b5050565b600a5481565b6113fc6113f6611bff565b83611cc0565b61143b576040517f08c379a000000000000000000000000000000000000000000000000000000000815260040161143290613c7f565b60405180910390fd5b6114478484848461237d565b50505050565b6000600b60009054906101000a900473ffffffffffffffffffffffffffffffffffffffff1673ffffffffffffffffffffffffffffffffffffffff1663b92ae87c836040518263ffffffff1660e01b81526004016114aa9190613001565b602060405180830381865afa1580156114c7573d6000803e3d6000fd5b505050506040513d601f19601f820116820180604052508101906114eb91906141e5565b9050919050565b60606114fd82611bb4565b60006115076123d9565b905060008151116115275760405180602001604052806000815250611552565b80611531846123f0565b6040516020016115429291906142fc565b6040516020818303038152906040525b915050919050565b8273ffffffffffffffffffffffffffffffffffffffff168473ffffffffffffffffffffffffffffffffffffffff167f2e48c1de81c9e22e88140cffd126783793f2b5dc5c6404afa219d647b6b271f984846040516115b992919061432f565b60405180910390a350505050565b6000600560008473ffffffffffffffffffffffffffffffffffffffff1673ffffffffffffffffffffffffffffffffffffffff16815260200190815260200160002060008373ffffffffffffffffffffffffffffffffffffffff1673ffffffffffffffffffffffffffffffffffffffff16815260200190815260200160002060009054906101000a900460ff16905092915050565b61166361204e565b600073ffffffffffffffffffffffffffffffffffffffff168173ffffffffffffffffffffffffffffffffffffffff16036116d2576040517f08c379a00000000000000000000000000000000000000000000000000000000081526004016116c9906143ca565b60405180910390fd5b6116db81612109565b50565b6116e661204e565b80600a8190555050565b60011515600860008673ffffffffffffffffffffffffffffffffffffffff1673ffffffffffffffffffffffffffffffffffffffff16815260200190815260200160002060000160009054906101000a900460ff16151514611786576040517f08c379a000000000000000000000000000000000000000000000000000000000815260040161177d9061445c565b60405180910390fd5b6000338560405160200161179b9291906144c4565b6040516020818303038152906040528051906020012060001c9050600015156009600083815260200190815260200160002060030160009054906101000a900460ff16151514611820576040517f08c379a00000000000000000000000000000000000000000000000000000000081526004016118179061453c565b60405180910390fd5b60008590508073ffffffffffffffffffffffffffffffffffffffff1663dc5326498686866040518463ffffffff1660e01b81526004016118629392919061459a565b600060405180830381600087803b15801561187c57600080fd5b505af1158015611890573d6000803e3d6000fd5b5050505060008173ffffffffffffffffffffffffffffffffffffffff1663fc1bfb906040518163ffffffff1660e01b81526004016020604051808303816000875af11580156118e3573d6000803e3d6000fd5b505050506040513d601f19601f820116820180604052508101906119079190614293565b90506000600860008973ffffffffffffffffffffffffffffffffffffffff1673ffffffffffffffffffffffffffffffffffffffff16815260200190815260200160002060000160019054906101000a900473ffffffffffffffffffffffffffffffffffffffff1690506000819050336009600087815260200190815260200160002060000160006101000a81548173ffffffffffffffffffffffffffffffffffffffff021916908373ffffffffffffffffffffffffffffffffffffffff160217905550886009600087815260200190815260200160002060010160006101000a81548173ffffffffffffffffffffffffffffffffffffffff021916908373ffffffffffffffffffffffffffffffffffffffff16021790555082600960008781526020019081526020016000206002018190555060016009600087815260200190815260200160002060030160006101000a81548160ff0219169083151502179055508073ffffffffffffffffffffffffffffffffffffffff1663b624633c33856040518363ffffffff1660e01b8152600401611aa49291906145cc565b600060405180830381600087803b158015611abe57600080fd5b505af1158015611ad2573d6000803e3d6000fd5b505050508873ffffffffffffffffffffffffffffffffffffffff163373ffffffffffffffffffffffffffffffffffffffff167fc57d81449bf95ee893a78c61c7990762b7d90602761ad9f7d8d051d562f9abf9858b42604051611b37939291906145f5565b60405180910390a3505050505050505050565b60007f01ffc9a7000000000000000000000000000000000000000000000000000000007bffffffffffffffffffffffffffffffffffffffffffffffffffffffff1916827bffffffffffffffffffffffffffffffffffffffffffffffffffffffff1916149050919050565b611bbd816124be565b611bfc576040517f08c379a0000000000000000000000000000000000000000000000000000000008152600401611bf39061411e565b60405180910390fd5b50565b600033905090565b816004600083815260200190815260200160002060006101000a81548173ffffffffffffffffffffffffffffffffffffffff021916908373ffffffffffffffffffffffffffffffffffffffff160217905550808273ffffffffffffffffffffffffffffffffffffffff16611c7a83610f45565b73ffffffffffffffffffffffffffffffffffffffff167f8c5be1e5ebec7d5bd14f71427d1e84f3dd0314c0f7b2291e5b200ac8c7c3b92560405160405180910390a45050565b600080611ccc83610f45565b90508073ffffffffffffffffffffffffffffffffffffffff168473ffffffffffffffffffffffffffffffffffffffff161480611d0e5750611d0d81856115c7565b5b80611d4c57508373ffffffffffffffffffffffffffffffffffffffff16611d3484610826565b73ffffffffffffffffffffffffffffffffffffffff16145b91505092915050565b8273ffffffffffffffffffffffffffffffffffffffff16611d7582610f45565b73ffffffffffffffffffffffffffffffffffffffff1614611dcb576040517f08c379a0000000000000000000000000000000000000000000000000000000008152600401611dc29061469e565b60405180910390fd5b600073ffffffffffffffffffffffffffffffffffffffff168273ffffffffffffffffffffffffffffffffffffffff1603611e3a576040517f08c379a0000000000000000000000000000000000000000000000000000000008152600401611e3190614730565b60405180910390fd5b611e4783838360016124ff565b8273ffffffffffffffffffffffffffffffffffffffff16611e6782610f45565b73ffffffffffffffffffffffffffffffffffffffff1614611ebd576040517f08c379a0000000000000000000000000000000000000000000000000000000008152600401611eb49061469e565b60405180910390fd5b6004600082815260200190815260200160002060006101000a81549073ffffffffffffffffffffffffffffffffffffffff02191690556001600360008573ffffffffffffffffffffffffffffffffffffffff1673ffffffffffffffffffffffffffffffffffffffff168152602001908152602001600020600082825403925050819055506001600360008473ffffffffffffffffffffffffffffffffffffffff1673ffffffffffffffffffffffffffffffffffffffff16815260200190815260200160002060008282540192505081905550816002600083815260200190815260200160002060006101000a81548173ffffffffffffffffffffffffffffffffffffffff021916908373ffffffffffffffffffffffffffffffffffffffff160217905550808273ffffffffffffffffffffffffffffffffffffffff168473ffffffffffffffffffffffffffffffffffffffff167fddf252ad1be2c89b69c2b068fc378daa952ba7f163c4a11628f55a4df523b3ef60405160405180910390a46120498383836001612641565b505050565b612056611bff565b73ffffffffffffffffffffffffffffffffffffffff16612074611096565b73ffffffffffffffffffffffffffffffffffffffff16146120ca576040517f08c379a00000000000000000000000000000000000000000000000000000000081526004016120c19061479c565b60405180910390fd5b565b60006002600083815260200190815260200160002060009054906101000a900473ffffffffffffffffffffffffffffffffffffffff169050919050565b6000600660009054906101000a900473ffffffffffffffffffffffffffffffffffffffff16905081600660006101000a81548173ffffffffffffffffffffffffffffffffffffffff021916908373ffffffffffffffffffffffffffffffffffffffff1602179055508173ffffffffffffffffffffffffffffffffffffffff168173ffffffffffffffffffffffffffffffffffffffff167f8be0079c531659141344cd1fd0a4f28419497f9722a3daafe3b4186f6b6457e060405160405180910390a35050565b600081600001549050919050565b6001816000016000828254019250508190555050565b61220d8282604051806020016040528060008152506126a2565b5050565b8173ffffffffffffffffffffffffffffffffffffffff168373ffffffffffffffffffffffffffffffffffffffff160361227f576040517f08c379a000000000000000000000000000000000000000000000000000000000815260040161227690614808565b60405180910390fd5b80600560008573ffffffffffffffffffffffffffffffffffffffff1673ffffffffffffffffffffffffffffffffffffffff16815260200190815260200160002060008473ffffffffffffffffffffffffffffffffffffffff1673ffffffffffffffffffffffffffffffffffffffff16815260200190815260200160002060006101000a81548160ff0219169083151502179055508173ffffffffffffffffffffffffffffffffffffffff168373ffffffffffffffffffffffffffffffffffffffff167f17307eab39ab6107e8899845ad3d59bd9653f200f220920489ca2b5937696c31836040516123709190612e0b565b60405180910390a3505050565b612388848484611d55565b612394848484846126fd565b6123d3576040517f08c379a00000000000000000000000000000000000000000000000000000000081526004016123ca9061489a565b60405180910390fd5b50505050565b606060405180602001604052806000815250905090565b6060600060016123ff84612884565b01905060008167ffffffffffffffff81111561241e5761241d613160565b5b6040519080825280601f01601f1916602001820160405280156124505781602001600182028036833780820191505090505b509050600082602001820190505b6001156124b3578080600190039150507f3031323334353637383961626364656600000000000000000000000000000000600a86061a8153600a85816124a7576124a66148ba565b5b0494506000850361245e575b819350505050919050565b60008073ffffffffffffffffffffffffffffffffffffffff166124e0836120cc565b73ffffffffffffffffffffffffffffffffffffffff1614159050919050565b60001515600760008573ffffffffffffffffffffffffffffffffffffffff1673ffffffffffffffffffffffffffffffffffffffff16815260200190815260200160002060010160009054906101000a900460ff16151514612595576040517f08c379a000000000000000000000000000000000000000000000000000000000815260040161258c90614935565b60405180910390fd5b600073ffffffffffffffffffffffffffffffffffffffff168473ffffffffffffffffffffffffffffffffffffffff1614806125fc5750600073ffffffffffffffffffffffffffffffffffffffff168373ffffffffffffffffffffffffffffffffffffffff16145b61263b576040517f08c379a0000000000000000000000000000000000000000000000000000000008152600401612632906149a1565b60405180910390fd5b50505050565b818473ffffffffffffffffffffffffffffffffffffffff168473ffffffffffffffffffffffffffffffffffffffff167fddf252ad1be2c89b69c2b068fc378daa952ba7f163c4a11628f55a4df523b3ef60405160405180910390a450505050565b6126ac83836129d7565b6126b960008484846126fd565b6126f8576040517f08c379a00000000000000000000000000000000000000000000000000000000081526004016126ef9061489a565b60405180910390fd5b505050565b600061271e8473ffffffffffffffffffffffffffffffffffffffff16612bf4565b15612877578373ffffffffffffffffffffffffffffffffffffffff1663150b7a02612747611bff565b8786866040518563ffffffff1660e01b81526004016127699493929190614a05565b6020604051808303816000875af19250505080156127a557506040513d601f19601f820116820180604052508101906127a29190614a66565b60015b612827573d80600081146127d5576040519150601f19603f3d011682016040523d82523d6000602084013e6127da565b606091505b50600081510361281f576040517f08c379a00000000000000000000000000000000000000000000000000000000081526004016128169061489a565b60405180910390fd5b805181602001fd5b63150b7a0260e01b7bffffffffffffffffffffffffffffffffffffffffffffffffffffffff1916817bffffffffffffffffffffffffffffffffffffffffffffffffffffffff19161491505061287c565b600190505b949350505050565b600080600090507a184f03e93ff9f4daa797ed6e38ed64bf6a1f01000000000000000083106128e2577a184f03e93ff9f4daa797ed6e38ed64bf6a1f01000000000000000083816128d8576128d76148ba565b5b0492506040810190505b6d04ee2d6d415b85acef8100000000831061291f576d04ee2d6d415b85acef81000000008381612915576129146148ba565b5b0492506020810190505b662386f26fc10000831061294e57662386f26fc100008381612944576129436148ba565b5b0492506010810190505b6305f5e1008310612977576305f5e100838161296d5761296c6148ba565b5b0492506008810190505b612710831061299c576127108381612992576129916148ba565b5b0492506004810190505b606483106129bf57606483816129b5576129b46148ba565b5b0492506002810190505b600a83106129ce576001810190505b80915050919050565b600073ffffffffffffffffffffffffffffffffffffffff168273ffffffffffffffffffffffffffffffffffffffff1603612a46576040517f08c379a0000000000000000000000000000000000000000000000000000000008152600401612a3d90614adf565b60405180910390fd5b612a4f816124be565b15612a8f576040517f08c379a0000000000000000000000000000000000000000000000000000000008152600401612a8690614b4b565b60405180910390fd5b612a9d6000838360016124ff565b612aa6816124be565b15612ae6576040517f08c379a0000000000000000000000000000000000000000000000000000000008152600401612add90614b4b565b60405180910390fd5b6001600360008473ffffffffffffffffffffffffffffffffffffffff1673ffffffffffffffffffffffffffffffffffffffff16815260200190815260200160002060008282540192505081905550816002600083815260200190815260200160002060006101000a81548173ffffffffffffffffffffffffffffffffffffffff021916908373ffffffffffffffffffffffffffffffffffffffff160217905550808273ffffffffffffffffffffffffffffffffffffffff16600073ffffffffffffffffffffffffffffffffffffffff167fddf252ad1be2c89b69c2b068fc378daa952ba7f163c4a11628f55a4df523b3ef60405160405180910390a4612bf0600083836001612641565b5050565b6000808273ffffffffffffffffffffffffffffffffffffffff163b119050919050565b6000604051905090565b600080fd5b600080fd5b600080fd5b600080fd5b600080fd5b60008083601f840112612c5057612c4f612c2b565b5b8235905067ffffffffffffffff811115612c6d57612c6c612c30565b5b602083019150836020820283011115612c8957612c88612c35565b5b9250929050565b60008083601f840112612ca657612ca5612c2b565b5b8235905067ffffffffffffffff811115612cc357612cc2612c30565b5b602083019150836020820283011115612cdf57612cde612c35565b5b9250929050565b60008083601f840112612cfc57612cfb612c2b565b5b8235905067ffffffffffffffff811115612d1957612d18612c30565b5b602083019150836020820283011115612d3557612d34612c35565b5b9250929050565b60008060008060008060608789031215612d5957612d58612c21565b5b600087013567ffffffffffffffff811115612d7757612d76612c26565b5b612d8389828a01612c3a565b9650965050602087013567ffffffffffffffff811115612da657612da5612c26565b5b612db289828a01612c90565b9450945050604087013567ffffffffffffffff811115612dd557612dd4612c26565b5b612de189828a01612ce6565b92509250509295509295509295565b60008115159050919050565b612e0581612df0565b82525050565b6000602082019050612e206000830184612dfc565b92915050565b60007fffffffff0000000000000000000000000000000000000000000000000000000082169050919050565b612e5b81612e26565b8114612e6657600080fd5b50565b600081359050612e7881612e52565b92915050565b600060208284031215612e9457612e93612c21565b5b6000612ea284828501612e69565b91505092915050565b600081519050919050565b600082825260208201905092915050565b60005b83811015612ee5578082015181840152602081019050612eca565b60008484015250505050565b6000601f19601f8301169050919050565b6000612f0d82612eab565b612f178185612eb6565b9350612f27818560208601612ec7565b612f3081612ef1565b840191505092915050565b60006020820190508181036000830152612f558184612f02565b905092915050565b6000819050919050565b612f7081612f5d565b8114612f7b57600080fd5b50565b600081359050612f8d81612f67565b92915050565b600060208284031215612fa957612fa8612c21565b5b6000612fb784828501612f7e565b91505092915050565b600073ffffffffffffffffffffffffffffffffffffffff82169050919050565b6000612feb82612fc0565b9050919050565b612ffb81612fe0565b82525050565b60006020820190506130166000830184612ff2565b92915050565b61302581612fe0565b811461303057600080fd5b50565b6000813590506130428161301c565b92915050565b6000806040838503121561305f5761305e612c21565b5b600061306d85828601613033565b925050602061307e85828601612f7e565b9150509250929050565b60006020828403121561309e5761309d612c21565b5b60006130ac84828501613033565b91505092915050565b6000806000606084860312156130ce576130cd612c21565b5b60006130dc86828701613033565b93505060206130ed86828701613033565b92505060406130fe86828701612f7e565b9150509250925092565b60008060006060848603121561312157613120612c21565b5b600061312f86828701613033565b935050602061314086828701612f7e565b925050604061315186828701612f7e565b9150509250925092565b600080fd5b7f4e487b7100000000000000000000000000000000000000000000000000000000600052604160045260246000fd5b61319882612ef1565b810181811067ffffffffffffffff821117156131b7576131b6613160565b5b80604052505050565b60006131ca612c17565b90506131d6828261318f565b919050565b600067ffffffffffffffff8211156131f6576131f5613160565b5b6131ff82612ef1565b9050602081019050919050565b82818337600083830152505050565b600061322e613229846131db565b6131c0565b90508281526020810184848401111561324a5761324961315b565b5b61325584828561320c565b509392505050565b600082601f83011261327257613271612c2b565b5b813561328284826020860161321b565b91505092915050565b600063ffffffff82169050919050565b6132a48161328b565b81146132af57600080fd5b50565b6000813590506132c18161329b565b92915050565b60008060008060008060008060008060006101608c8e0312156132ed576132ec612c21565b5b60008c013567ffffffffffffffff81111561330b5761330a612c26565b5b6133178e828f0161325d565b9b505060206133288e828f01612f7e565b9a505060406133398e828f01612f7e565b995050606061334a8e828f01612f7e565b985050608061335b8e828f01612f7e565b97505060a061336c8e828f01613033565b96505060c061337d8e828f016132b2565b95505060e061338e8e828f01612f7e565b9450506101006133a08e828f01613033565b9350506101206133b28e828f01612f7e565b9250506101406133c48e828f01613033565b9150509295989b509295989b9093969950565b600067ffffffffffffffff8211156133f2576133f1613160565b5b602082029050919050565b600061341061340b846133d7565b6131c0565b9050806020840283018581111561342a57613429612c35565b5b835b81811015613453578061343f8882612f7e565b84526020840193505060208101905061342c565b5050509392505050565b600082601f83011261347257613471612c2b565b5b600561347f8482856133fd565b91505092915050565b600080600080600080600080610180898b0312156134a9576134a8612c21565b5b600089013567ffffffffffffffff8111156134c7576134c6612c26565b5b6134d38b828c0161325d565b98505060206134e48b828c0161345d565b97505060c06134f58b828c01612f7e565b96505060e06135068b828c01612f7e565b9550506101006135188b828c01612f7e565b94505061012061352a8b828c01613033565b93505061014061353c8b828c01613033565b92505061016061354e8b828c01613033565b9150509295985092959890939650565b61356781612f5d565b82525050565b6000602082019050613582600083018461355e565b92915050565b61359181612df0565b811461359c57600080fd5b50565b6000813590506135ae81613588565b92915050565b600080604083850312156135cb576135ca612c21565b5b60006135d985828601613033565b92505060206135ea8582860161359f565b9150509250929050565b600067ffffffffffffffff82111561360f5761360e613160565b5b61361882612ef1565b9050602081019050919050565b6000613638613633846135f4565b6131c0565b9050828152602081018484840111156136545761365361315b565b5b61365f84828561320c565b509392505050565b600082601f83011261367c5761367b612c2b565b5b813561368c848260208601613625565b91505092915050565b600080600080608085870312156136af576136ae612c21565b5b60006136bd87828801613033565b94505060206136ce87828801613033565b93505060406136df87828801612f7e565b925050606085013567ffffffffffffffff811115613700576136ff612c26565b5b61370c87828801613667565b91505092959194509250565b6000819050919050565b61372b81613718565b811461373657600080fd5b50565b60008135905061374881613722565b92915050565b6000806000806080858703121561376857613767612c21565b5b600061377687828801613033565b945050602061378787828801613033565b935050604061379887828801613739565b92505060606137a987828801612f7e565b91505092959194509250565b600080604083850312156137cc576137cb612c21565b5b60006137da85828601613033565b92505060206137eb85828601613033565b9150509250929050565b7f6e756d626572206f662070726564696374696f6e73207061737365642069732060008201527f6e6f7420657175616c20746f206e756d626572206f66206d61726b6574647300602082015250565b6000613851603f83612eb6565b915061385c826137f5565b604082019050919050565b6000602082019050818103600083015261388081613844565b9050919050565b7f6e756d626572206f66207369676e61747572657320706173736564206973206e60008201527f6f7420657175616c20746f206e756d626572206f66206d61726b657464730000602082015250565b60006138e3603e83612eb6565b91506138ee82613887565b604082019050919050565b60006020820190508181036000830152613912816138d6565b9050919050565b7f4e487b7100000000000000000000000000000000000000000000000000000000600052603260045260246000fd5b600080fd5b600080fd5b600080fd5b6000808335600160200384360303811261397457613973613948565b5b80840192508235915067ffffffffffffffff8211156139965761399561394d565b5b6020830192506001820236038313156139b2576139b1613952565b5b509250929050565b7f4e487b7100000000000000000000000000000000000000000000000000000000600052602260045260246000fd5b60006002820490506001821680613a0157607f821691505b602082108103613a1457613a136139ba565b5b50919050565b7f4552433732313a20617070726f76616c20746f2063757272656e74206f776e6560008201527f7200000000000000000000000000000000000000000000000000000000000000602082015250565b6000613a76602183612eb6565b9150613a8182613a1a565b604082019050919050565b60006020820190508181036000830152613aa581613a69565b9050919050565b7f4552433732313a20617070726f76652063616c6c6572206973206e6f7420746f60008201527f6b656e206f776e6572206f7220617070726f76656420666f7220616c6c000000602082015250565b6000613b08603d83612eb6565b9150613b1382613aac565b604082019050919050565b60006020820190508181036000830152613b3781613afb565b9050919050565b7f74696d65206973206e6567617469766500000000000000000000000000000000600082015250565b6000613b74601083612eb6565b9150613b7f82613b3e565b602082019050919050565b60006020820190508181036000830152613ba381613b67565b9050919050565b7f4e487b7100000000000000000000000000000000000000000000000000000000600052601160045260246000fd5b6000613be482612f5d565b9150613bef83612f5d565b9250828203905081811115613c0757613c06613baa565b5b92915050565b7f4552433732313a2063616c6c6572206973206e6f7420746f6b656e206f776e6560008201527f72206f7220617070726f76656400000000000000000000000000000000000000602082015250565b6000613c69602d83612eb6565b9150613c7482613c0d565b604082019050919050565b60006020820190508181036000830152613c9881613c5c565b9050919050565b6000604082019050613cb4600083018561355e565b613cc1602083018461355e565b9392505050565b613cd181612fe0565b82525050565b600082825260208201905092915050565b6000613cf382612eab565b613cfd8185613cd7565b9350613d0d818560208601612ec7565b613d1681612ef1565b840191505092915050565b613d2a81612f5d565b82525050565b613d398161328b565b82525050565b600061016082019050613d55600083018e613cc8565b8181036020830152613d67818d613ce8565b9050613d76604083018c613d21565b613d83606083018b613d21565b613d90608083018a613d21565b613d9d60a0830189613d21565b613daa60c0830188613cc8565b613db760e0830187613d30565b613dc5610100830186613d21565b613dd3610120830185613cc8565b613de1610140830184613d21565b9c9b505050505050505050505050565b600081519050613e008161301c565b92915050565b600060208284031215613e1c57613e1b612c21565b5b6000613e2a84828501613df1565b91505092915050565b600060c082019050613e48600083018961355e565b8181036020830152613e5a8188612f02565b9050613e69604083018761355e565b613e76606083018661355e565b613e836080830185612ff2565b613e9060a083018461355e565b979650505050505050565b600060059050919050565b600081905092915050565b6000819050919050565b613ec481612f5d565b82525050565b6000613ed68383613ebb565b60208301905092915050565b6000602082019050919050565b613ef881613e9b565b613f028184613ea6565b9250613f0d82613eb1565b8060005b83811015613f3e578151613f258782613eca565b9650613f3083613ee2565b925050600181019050613f11565b505050505050565b600061018082019050613f5c600083018b613cc8565b8181036020830152613f6e818a613ce8565b9050613f7d6040830189613eef565b613f8a60e0830188613d21565b613f98610100830187613d21565b613fa6610120830186613d21565b613fb4610140830185613cc8565b613fc2610160830184613cc8565b9998505050505050505050565b600081905092915050565b613fe381612f5d565b82525050565b6000613ff58383613fda565b60208301905092915050565b61400a81613e9b565b6140148184613fcf565b925061401f82613eb1565b8060005b838110156140505781516140378782613fe9565b965061404283613ee2565b925050600181019050614023565b505050505050565b60006101608201905061406e600083018a61355e565b81810360208301526140808189612f02565b905061408f6040830188614001565b61409c60e083018761355e565b6140aa61010083018661355e565b6140b861012083018561355e565b6140c6610140830184612ff2565b98975050505050505050565b7f4552433732313a20696e76616c696420746f6b656e2049440000000000000000600082015250565b6000614108601883612eb6565b9150614113826140d2565b602082019050919050565b60006020820190508181036000830152614137816140fb565b9050919050565b7f4552433732313a2061646472657373207a65726f206973206e6f74206120766160008201527f6c6964206f776e65720000000000000000000000000000000000000000000000602082015250565b600061419a602983612eb6565b91506141a58261413e565b604082019050919050565b600060208201905081810360008301526141c98161418d565b9050919050565b6000815190506141df81613588565b92915050565b6000602082840312156141fb576141fa612c21565b5b6000614209848285016141d0565b91505092915050565b7f6d61726b6574206973206e6f74207265736f6c76656400000000000000000000600082015250565b6000614248601683612eb6565b915061425382614212565b602082019050919050565b600060208201905081810360008301526142778161423b565b9050919050565b60008151905061428d81612f67565b92915050565b6000602082840312156142a9576142a8612c21565b5b60006142b78482850161427e565b91505092915050565b600081905092915050565b60006142d682612eab565b6142e081856142c0565b93506142f0818560208601612ec7565b80840191505092915050565b600061430882856142cb565b915061431482846142cb565b91508190509392505050565b61432981613718565b82525050565b60006040820190506143446000830185614320565b614351602083018461355e565b9392505050565b7f4f776e61626c653a206e6577206f776e657220697320746865207a65726f206160008201527f6464726573730000000000000000000000000000000000000000000000000000602082015250565b60006143b4602683612eb6565b91506143bf82614358565b604082019050919050565b600060208201905081810360008301526143e3816143a7565b9050919050565b7f6d61726b657420776974682074686973206164647265737320646f6573206e6f60008201527f7420657869737473000000000000000000000000000000000000000000000000602082015250565b6000614446602883612eb6565b9150614451826143ea565b604082019050919050565b6000602082019050818103600083015261447581614439565b9050919050565b60008160601b9050919050565b60006144948261447c565b9050919050565b60006144a682614489565b9050919050565b6144be6144b982612fe0565b61449b565b82525050565b60006144d082856144ad565b6014820191506144e082846144ad565b6014820191508190509392505050565b7f72657075746174696f6e2077617320616c726561647920726563656976656400600082015250565b6000614526601f83612eb6565b9150614531826144f0565b602082019050919050565b6000602082019050818103600083015261455581614519565b9050919050565b600082825260208201905092915050565b6000614579838561455c565b935061458683858461320c565b61458f83612ef1565b840190509392505050565b60006040820190506145af600083018661355e565b81810360208301526145c281848661456d565b9050949350505050565b60006040820190506145e16000830185612ff2565b6145ee602083018461355e565b9392505050565b600060608201905061460a600083018661355e565b614617602083018561355e565b614624604083018461355e565b949350505050565b7f4552433732313a207472616e736665722066726f6d20696e636f72726563742060008201527f6f776e6572000000000000000000000000000000000000000000000000000000602082015250565b6000614688602583612eb6565b91506146938261462c565b604082019050919050565b600060208201905081810360008301526146b78161467b565b9050919050565b7f4552433732313a207472616e7366657220746f20746865207a65726f2061646460008201527f7265737300000000000000000000000000000000000000000000000000000000602082015250565b600061471a602483612eb6565b9150614725826146be565b604082019050919050565b600060208201905081810360008301526147498161470d565b9050919050565b7f4f776e61626c653a2063616c6c6572206973206e6f7420746865206f776e6572600082015250565b6000614786602083612eb6565b915061479182614750565b602082019050919050565b600060208201905081810360008301526147b581614779565b9050919050565b7f4552433732313a20617070726f766520746f2063616c6c657200000000000000600082015250565b60006147f2601983612eb6565b91506147fd826147bc565b602082019050919050565b60006020820190508181036000830152614821816147e5565b9050919050565b7f4552433732313a207472616e7366657220746f206e6f6e20455243373231526560008201527f63656976657220696d706c656d656e7465720000000000000000000000000000602082015250565b6000614884603283612eb6565b915061488f82614828565b604082019050919050565b600060208201905081810360008301526148b381614877565b9050919050565b7f4e487b7100000000000000000000000000000000000000000000000000000000600052601260045260246000fd5b7f7573657220616c72656164792065786973747300000000000000000000000000600082015250565b600061491f601383612eb6565b915061492a826148e9565b602082019050919050565b6000602082019050818103600083015261494e81614912565b9050919050565b7f63616e2774207472616e736665722070726f66696c6500000000000000000000600082015250565b600061498b601683612eb6565b915061499682614955565b602082019050919050565b600060208201905081810360008301526149ba8161497e565b9050919050565b600081519050919050565b60006149d7826149c1565b6149e1818561455c565b93506149f1818560208601612ec7565b6149fa81612ef1565b840191505092915050565b6000608082019050614a1a6000830187612ff2565b614a276020830186612ff2565b614a34604083018561355e565b8181036060830152614a4681846149cc565b905095945050505050565b600081519050614a6081612e52565b92915050565b600060208284031215614a7c57614a7b612c21565b5b6000614a8a84828501614a51565b91505092915050565b7f4552433732313a206d696e7420746f20746865207a65726f2061646472657373600082015250565b6000614ac9602083612eb6565b9150614ad482614a93565b602082019050919050565b60006020820190508181036000830152614af881614abc565b9050919050565b7f4552433732313a20746f6b656e20616c7265616479206d696e74656400000000600082015250565b6000614b35601c83612eb6565b9150614b4082614aff565b602082019050919050565b60006020820190508181036000830152614b6481614b28565b905091905056fea264697066735822122013a4d5b7293bbfa8e0133b5537afcdab5d02c8b6429e5b0ac5566324b1ea423964736f6c6343000812003360806040523480156200001157600080fd5b5060405162001395380380620013958339818101604052810190620000379190620001b0565b82600160006101000a81548173ffffffffffffffffffffffffffffffffffffffff021916908373ffffffffffffffffffffffffffffffffffffffff16021790555081600260006101000a81548173ffffffffffffffffffffffffffffffffffffffff021916908373ffffffffffffffffffffffffffffffffffffffff1602179055508060038190555083600460006101000a81548173ffffffffffffffffffffffffffffffffffffffff021916908373ffffffffffffffffffffffffffffffffffffffff1602179055505050505062000222565b600080fd5b600073ffffffffffffffffffffffffffffffffffffffff82169050919050565b60006200013d8262000110565b9050919050565b6200014f8162000130565b81146200015b57600080fd5b50565b6000815190506200016f8162000144565b92915050565b6000819050919050565b6200018a8162000175565b81146200019657600080fd5b50565b600081519050620001aa816200017f565b92915050565b60008060008060808587031215620001cd57620001cc6200010b565b5b6000620001dd878288016200015e565b9450506020620001f0878288016200015e565b935050604062000203878288016200015e565b9250506060620002168782880162000199565b91505092959194509250565b61116380620002326000396000f3fe608060405234801561001057600080fd5b50600436106100625760003560e01c806324e9edb014610067578063366f2d861461008557806338b34251146100b557806359b8ad65146100d1578063b92ae87c14610101578063f046395a14610131575b600080fd5b61006f610164565b60405161007c9190610abf565b60405180910390f35b61009f600480360381019061009a9190610b3d565b610239565b6040516100ac9190610abf565b60405180910390f35b6100cf60048036038101906100ca9190610ba0565b610372565b005b6100eb60048036038101906100e69190610b3d565b61086b565b6040516100f89190610abf565b60405180910390f35b61011b60048036038101906101169190610b3d565b610a0f565b6040516101289190610abf565b60405180910390f35b61014b60048036038101906101469190610b3d565b610a67565b60405161015b9493929190610bdc565b60405180910390f35b6000600115156000803373ffffffffffffffffffffffffffffffffffffffff1673ffffffffffffffffffffffffffffffffffffffff16815260200190815260200160002060030160009054906101000a900460ff161515146101c557600080fd5b6000803373ffffffffffffffffffffffffffffffffffffffff1673ffffffffffffffffffffffffffffffffffffffff168152602001908152602001600020600080820160009055600182016000905560028201600090556003820160006101000a81549060ff021916905550506001905090565b6000806000808473ffffffffffffffffffffffffffffffffffffffff1673ffffffffffffffffffffffffffffffffffffffff1681526020019081526020016000206040518060800160405290816000820154815260200160018201548152602001600282015481526020016003820160009054906101000a900460ff161515151581525050905060011515816060015115151461030b576040517f08c379a000000000000000000000000000000000000000000000000000000000815260040161030290610c7e565b60405180910390fd5b4281602001511115610352576040517f08c379a000000000000000000000000000000000000000000000000000000000815260040161034990610cea565b60405180910390fd5b4281604001511161036757600191505061036d565b60009150505b919050565b600015156000803373ffffffffffffffffffffffffffffffffffffffff1673ffffffffffffffffffffffffffffffffffffffff16815260200190815260200160002060030160009054906101000a900460ff16151514610407576040517f08c379a00000000000000000000000000000000000000000000000000000000081526004016103fe90610d56565b60405180910390fd5b600062278d0060035461041a9190610da5565b905080600160009054906101000a900473ffffffffffffffffffffffffffffffffffffffff1673ffffffffffffffffffffffffffffffffffffffff166370a08231336040518263ffffffff1660e01b81526004016104789190610df6565b602060405180830381865afa158015610495573d6000803e3d6000fd5b505050506040513d601f19601f820116820180604052508101906104b99190610e26565b10156104fa576040517f08c379a00000000000000000000000000000000000000000000000000000000081526004016104f190610ec5565b60405180910390fd5b80600160009054906101000a900473ffffffffffffffffffffffffffffffffffffffff1673ffffffffffffffffffffffffffffffffffffffff1663dd62ed3e33306040518363ffffffff1660e01b8152600401610558929190610ee5565b602060405180830381865afa158015610575573d6000803e3d6000fd5b505050506040513d601f19601f820116820180604052508101906105999190610e26565b10156105da576040517f08c379a00000000000000000000000000000000000000000000000000000000081526004016105d190610f80565b60405180910390fd5b816000803373ffffffffffffffffffffffffffffffffffffffff1673ffffffffffffffffffffffffffffffffffffffff16815260200190815260200160002060000181905550426000803373ffffffffffffffffffffffffffffffffffffffff1673ffffffffffffffffffffffffffffffffffffffff1681526020019081526020016000206001018190555060016000803373ffffffffffffffffffffffffffffffffffffffff1673ffffffffffffffffffffffffffffffffffffffff16815260200190815260200160002060030160006101000a81548160ff02191690831515021790555081426106cc9190610fa0565b6000803373ffffffffffffffffffffffffffffffffffffffff1673ffffffffffffffffffffffffffffffffffffffff16815260200190815260200160002060020181905550600160009054906101000a900473ffffffffffffffffffffffffffffffffffffffff1673ffffffffffffffffffffffffffffffffffffffff166323b872dd33600260009054906101000a900473ffffffffffffffffffffffffffffffffffffffff16846040518463ffffffff1660e01b815260040161079293929190610fd4565b6020604051808303816000875af11580156107b1573d6000803e3d6000fd5b505050506040513d601f19601f820116820180604052508101906107d59190611037565b50600460009054906101000a900473ffffffffffffffffffffffffffffffffffffffff1673ffffffffffffffffffffffffffffffffffffffff1663513450e53384426040518463ffffffff1660e01b815260040161083593929190611064565b600060405180830381600087803b15801561084f57600080fd5b505af1158015610863573d6000803e3d6000fd5b505050505050565b6000806000808473ffffffffffffffffffffffffffffffffffffffff1673ffffffffffffffffffffffffffffffffffffffff1681526020019081526020016000209050600060035482600001546108c29190610da5565b90506108cd84610239565b61090c576040517f08c379a00000000000000000000000000000000000000000000000000000000081526004016109039061110d565b60405180910390fd5b600160009054906101000a900473ffffffffffffffffffffffffffffffffffffffff1673ffffffffffffffffffffffffffffffffffffffff166323b872dd85600260009054906101000a900473ffffffffffffffffffffffffffffffffffffffff16846040518463ffffffff1660e01b815260040161098d93929190610fd4565b6020604051808303816000875af11580156109ac573d6000803e3d6000fd5b505050506040513d601f19601f820116820180604052508101906109d09190611037565b50600062278d0083600001546109e69190610da5565b9050808360020160008282546109fc9190610fa0565b9250508190555060019350505050919050565b60008060008373ffffffffffffffffffffffffffffffffffffffff1673ffffffffffffffffffffffffffffffffffffffff16815260200190815260200160002060030160009054906101000a900460ff169050919050565b60006020528060005260406000206000915090508060000154908060010154908060020154908060030160009054906101000a900460ff16905084565b60008115159050919050565b610ab981610aa4565b82525050565b6000602082019050610ad46000830184610ab0565b92915050565b600080fd5b600073ffffffffffffffffffffffffffffffffffffffff82169050919050565b6000610b0a82610adf565b9050919050565b610b1a81610aff565b8114610b2557600080fd5b50565b600081359050610b3781610b11565b92915050565b600060208284031215610b5357610b52610ada565b5b6000610b6184828501610b28565b91505092915050565b6000819050919050565b610b7d81610b6a565b8114610b8857600080fd5b50565b600081359050610b9a81610b74565b92915050565b600060208284031215610bb657610bb5610ada565b5b6000610bc484828501610b8b565b91505092915050565b610bd681610b6a565b82525050565b6000608082019050610bf16000830187610bcd565b610bfe6020830186610bcd565b610c0b6040830185610bcd565b610c186060830184610ab0565b95945050505050565b600082825260208201905092915050565b7f4e6f7420616e2061637469766520737562736372697074696f6e000000000000600082015250565b6000610c68601a83610c21565b9150610c7382610c32565b602082019050919050565b60006020820190508181036000830152610c9781610c5b565b9050919050565b7f537562736372697074696f6e20686173206e6f74207374617274656420796574600082015250565b6000610cd4602083610c21565b9150610cdf82610c9e565b602082019050919050565b60006020820190508181036000830152610d0381610cc7565b9050919050565b7f737562736372697074696f6e20616c7265616479206578697374730000000000600082015250565b6000610d40601b83610c21565b9150610d4b82610d0a565b602082019050919050565b60006020820190508181036000830152610d6f81610d33565b9050919050565b7f4e487b7100000000000000000000000000000000000000000000000000000000600052601160045260246000fd5b6000610db082610b6a565b9150610dbb83610b6a565b9250828202610dc981610b6a565b91508282048414831517610de057610ddf610d76565b5b5092915050565b610df081610aff565b82525050565b6000602082019050610e0b6000830184610de7565b92915050565b600081519050610e2081610b74565b92915050565b600060208284031215610e3c57610e3b610ada565b5b6000610e4a84828501610e11565b91505092915050565b7f496e73756666696369656e742062616c616e636520666f7220696e697469616c60008201527f202b20317820726563757272696e6720616d6f756e7400000000000000000000602082015250565b6000610eaf603683610c21565b9150610eba82610e53565b604082019050919050565b60006020820190508181036000830152610ede81610ea2565b9050919050565b6000604082019050610efa6000830185610de7565b610f076020830184610de7565b9392505050565b7f496e73756666696369656e7420617070726f76616c20666f7220696e6974696160008201527f6c202b20317820726563757272696e6720616d6f756e74000000000000000000602082015250565b6000610f6a603783610c21565b9150610f7582610f0e565b604082019050919050565b60006020820190508181036000830152610f9981610f5d565b9050919050565b6000610fab82610b6a565b9150610fb683610b6a565b9250828201905080821115610fce57610fcd610d76565b5b92915050565b6000606082019050610fe96000830186610de7565b610ff66020830185610de7565b6110036040830184610bcd565b949350505050565b61101481610aa4565b811461101f57600080fd5b50565b6000815190506110318161100b565b92915050565b60006020828403121561104d5761104c610ada565b5b600061105b84828501611022565b91505092915050565b60006060820190506110796000830186610de7565b6110866020830185610bcd565b6110936040830184610bcd565b949350505050565b7f41205061796d656e74206973206e6f742064756520666f72207468697320737560008201527f62736372697074696f6e00000000000000000000000000000000000000000000602082015250565b60006110f7602a83610c21565b91506111028261109b565b604082019050919050565b60006020820190508181036000830152611126816110ea565b905091905056fea2646970667358221220a3cc9a46e73b9abecbb423ed2ec753a8abe47b94d180d3965fce9f22ae927a5f64736f6c63430008120033",
  "linkReferences": {
    "contracts/libraries/MarketDeployer.sol": {
      "MarketDeployer": [
        {
          "length": 20,
          "start": 5174
        },
        {
          "length": 20,
          "start": 5648
        }
      ]
    }
  },
  "deployedLinkReferences": {
    "contracts/libraries/MarketDeployer.sol": {
      "MarketDeployer": [
        {
          "length": 20,
          "start": 2980
        },
        {
          "length": 20,
          "start": 3454
        }
      ]
    }
  }
}