{
  "_format": "hh-sol-artifact-1",
  "contractName": "Maths",
  "sourceName": "contracts/libraries/Maths.sol",
  "abi": [
    {
      "inputs": [
        {
          "internalType": "uint256",
          "name": "wageDeadline",
          "type": "uint256"
        },
        {
          "internalType": "uint256",
          "name": "creationDate",
          "type": "uint256"
        },
        {
          "internalType": "uint256",
          "name": "predictionTimestamp",
          "type": "uint256"
        },
        {
          "internalType": "uint256",
          "name": "numberOfOutcomes",
          "type": "uint256"
        }
      ],
      "name": "computeReputation",
      "outputs": [
        {
          "internalType": "uint256",
          "name": "",
          "type": "uint256"
        }
      ],
      "stateMutability": "pure",
      "type": "function"
    }
  ],
  "bytecode": "0x610a6c610053600b82828239805160001a607314610046577f4e487b7100000000000000000000000000000000000000000000000000000000600052600060045260246000fd5b30600052607381538281f3fe73000000000000000000000000000000000000000030146080604052600436106100355760003560e01c80636332cadd1461003a575b600080fd5b610054600480360381019061004f91906106ee565b61006a565b6040516100619190610764565b60405180910390f35b600080838661007991906107ae565b90506000858761008991906107ae565b905060006100a4629896808361009f91906107e2565b610122565b905060006100bf62989680876100ba91906107e2565b610122565b90506298968080848684866006600a6100d89190610957565b6100e291906107e2565b6100ec91906107e2565b6100f691906107e2565b61010091906109d1565b61010a91906109d1565b61011491906109d1565b945050505050949350505050565b600081600081111561058a576000610147629896808561014291906109d1565b610590565b905060008185901c9050600062989680826101629190610a02565b62989680808461017291906107ae565b61017c91906107e2565b61018691906109d1565b90506000819050600062989680836298968085866101a491906107e2565b6101ae91906109d1565b6101b891906107e2565b6101c291906109d1565b90506003816101d191906109d1565b826101dc9190610a02565b915062989680836298968085846101f391906107e2565b6101fd91906109d1565b61020791906107e2565b61021191906109d1565b905060058161022091906109d1565b8261022b9190610a02565b9150629896808362989680858461024291906107e2565b61024c91906109d1565b61025691906107e2565b61026091906109d1565b905060078161026f91906109d1565b8261027a9190610a02565b9150629896808362989680858461029191906107e2565b61029b91906109d1565b6102a591906107e2565b6102af91906109d1565b90506009816102be91906109d1565b826102c99190610a02565b915062989680836298968085846102e091906107e2565b6102ea91906109d1565b6102f491906107e2565b6102fe91906109d1565b9050600b8161030d91906109d1565b826103189190610a02565b9150629896808362989680858461032f91906107e2565b61033991906109d1565b61034391906107e2565b61034d91906109d1565b9050600d8161035c91906109d1565b826103679190610a02565b9150629896808362989680858461037e91906107e2565b61038891906109d1565b61039291906107e2565b61039c91906109d1565b9050600f816103ab91906109d1565b826103b69190610a02565b915062989680836298968085846103cd91906107e2565b6103d791906109d1565b6103e191906107e2565b6103eb91906109d1565b90506011816103fa91906109d1565b826104059190610a02565b9150629896808362989680858461041c91906107e2565b61042691906109d1565b61043091906107e2565b61043a91906109d1565b905060138161044991906109d1565b826104549190610a02565b9150629896808362989680858461046b91906107e2565b61047591906109d1565b61047f91906107e2565b61048991906109d1565b905060158161049891906109d1565b826104a39190610a02565b915062989680836298968085846104ba91906107e2565b6104c491906109d1565b6104ce91906107e2565b6104d891906109d1565b90506017816104e791906109d1565b826104f29190610a02565b9150629896808362989680858461050991906107e2565b61051391906109d1565b61051d91906107e2565b61052791906109d1565b905060198161053691906109d1565b826105419190610a02565b915081600261055091906107e2565b62dc234662989680808861056491906107e2565b61056e91906107e2565b61057891906109d1565b6105829190610a02565b965050505050505b50919050565b60008070010000000000000000000000000000000083106105c257608083901c92506080816105bf9190610a02565b90505b6801000000000000000083106105e957604083901c92506040816105e69190610a02565b90505b640100000000831061060c57602083901c92506020816106099190610a02565b90505b62010000831061062d57601083901c925060108161062a9190610a02565b90505b610100831061064d57600883901c925060088161064a9190610a02565b90505b6010831061066c57600483901c92506004816106699190610a02565b90505b6004831061068b57600283901c92506002816106889190610a02565b90505b600283106106aa57600183901c92506001816106a79190610a02565b90505b80915050919050565b600080fd5b6000819050919050565b6106cb816106b8565b81146106d657600080fd5b50565b6000813590506106e8816106c2565b92915050565b60008060008060808587031215610708576107076106b3565b5b6000610716878288016106d9565b9450506020610727878288016106d9565b9350506040610738878288016106d9565b9250506060610749878288016106d9565b91505092959194509250565b61075e816106b8565b82525050565b60006020820190506107796000830184610755565b92915050565b7f4e487b7100000000000000000000000000000000000000000000000000000000600052601160045260246000fd5b60006107b9826106b8565b91506107c4836106b8565b92508282039050818111156107dc576107db61077f565b5b92915050565b60006107ed826106b8565b91506107f8836106b8565b9250828202610806816106b8565b9150828204841483151761081d5761081c61077f565b5b5092915050565b60008160011c9050919050565b6000808291508390505b600185111561087b578086048111156108575761085661077f565b5b60018516156108665780820291505b808102905061087485610824565b945061083b565b94509492505050565b6000826108945760019050610950565b816108a25760009050610950565b81600181146108b857600281146108c2576108f1565b6001915050610950565b60ff8411156108d4576108d361077f565b5b8360020a9150848211156108eb576108ea61077f565b5b50610950565b5060208310610133831016604e8410600b84101617156109265782820a9050838111156109215761092061077f565b5b610950565b6109338484846001610831565b9250905081840481111561094a5761094961077f565b5b81810290505b9392505050565b6000610962826106b8565b915061096d836106b8565b925061099a7fffffffffffffffffffffffffffffffffffffffffffffffffffffffffffffffff8484610884565b905092915050565b7f4e487b7100000000000000000000000000000000000000000000000000000000600052601260045260246000fd5b60006109dc826106b8565b91506109e7836106b8565b9250826109f7576109f66109a2565b5b828204905092915050565b6000610a0d826106b8565b9150610a18836106b8565b9250828201905080821115610a3057610a2f61077f565b5b9291505056fea2646970667358221220fc4b92697dae322c7e8dbf29e9a190b36f776fa26573b92ca4772aaae897ee6264736f6c63430008120033",
  "linkReferences": {},
  "deployedLinkReferences": {}
}